:020000040800F2
:1000000000A00020A5130008F1920208212D01088C
:10001000FD920208059302080D93020800000000FB
:10002000000000000000000000000000159302081E
:1000300021930208000000002D930208659A010830
:1000400019140008191400081914000819140008DC
:1000500019140008191400081914000819140008CC
:1000600019140008191400081914000819140008BC
:100070001914000801230008A53A00081914000803
:10008000191400081914000819140008191400089C
:1000900039930208191400081914000819140008EB
:1000A00005420008C141000819140008A9410008D0
:1000B000D9410008ED41000819140008191400087E
:1000C000191400081914000819140008191400085C
:1000D00019140008C53B0008E13B0008FD3B00087F
:1000E000019A010819140008459302081914000820
:1000F000191400081914000819140008191400082C
:1001000000000000000000000000000019140008BA
:10011000191400081914000819140008191400080B
:1001200019140008191400081914000819140008FB
:100130001914000819140008000000000000000055
:100140001914000819140008191400080000000010
:10015000000000000000000000000000000000009F
:100160000000000000000000191400081914000825
:10017000191400080000000000000000000000004A
:08018000000000001914000842
:1001880081F0004102E000BF83F0004330B54FEA40
:1001980041044FEA430594EA050F08BF90EA020FAD
:1001A8001FBF54EA000C55EA020C7FEA645C7FEA40
:1001B800655C00F0E2804FEA5454D4EB5555B8BF63
:1001C8006D420CDD2C4480EA020281EA030382EAD4
:1001D800000083EA010180EA020281EA0303362D66
:1001E80088BF30BD11F0004F4FEA01314FF4801C39
:1001F8004CEA113102D0404261EB410113F0004F4B
:100208004FEA03334CEA133302D0524263EB430301
:1002180094EA050F00F0A780A4F10104D5F1200E9F
:100228000DDB02FA0EFC22FA05F2801841F10001FA
:1002380003FA0EF2801843FA05F359410EE0A5F1CE
:1002480020050EF1200E012A03FA0EFC28BF4CF0FF
:10025800020C43FA05F3C01851EBE37101F00045B5
:1002680007D54FF0000EDCF1000C7EEB00006EEBC2
:100278000101B1F5801F1BD3B1F5001F0CD349084C
:100288005FEA30004FEA3C0C04F101044FEA4452A3
:1002980012F5800F80F09A80BCF1004F08BF5FEA2A
:1002A800500C50F1000041EB045141EA050130BD0A
:1002B8005FEA4C0C404141EB010111F4801FA4F1AD
:1002C8000104E9D191F0000F04BF01460020B1FA02
:1002D80081F308BF2033A3F10B03B3F120020CDA3A
:1002E8000C3208DD02F1140CC2F10C0201FA0CF018
:1002F80021FA02F10CE002F11402D8BFC2F1200C7D
:1003080001FA02F120FA0CFCDCBF41EA0C01904032
:10031800E41AA2BF01EB0451294330BD6FEA04047B
:100328001F3C1CDA0C340EDC04F11404C4F1200266
:1003380020FA04F001FA02F340EA030021FA04F378
:1003480045EA030130BDC4F10C04C4F1200220FACF
:1003580002F001FA04F340EA0300294630BD21FA0D
:1003680004F0294630BD94F0000F83F4801306BFD3
:1003780081F480110134013D4EE77FEA645C18BFC7
:100388007FEA655C29D094EA050F08BF90EA020F5E
:1003980005D054EA000C04BF1946104630BD91EA56
:1003A800030F1EBF0021002030BD5FEA545C05D159
:1003B8004000494128BF41F0004130BD14F5800498
:1003C8003CBF01F5801130BD01F0004545F0FE410C
:1003D80041F470014FF0000030BD7FEA645C1ABF41
:1003E800194610467FEA655C1CBF0B46024650EA78
:1003F800013406BF52EA033591EA030F41F40021A4
:1004080030BD00BF90F0000F04BF0021704730B529
:100418004FF4806404F132044FF000054FF00001FE
:1004280050E700BF90F0000F04BF0021704730B5BF
:100438004FF4806404F1320410F0004548BF404294
:100448004FF000013EE700BF42004FEAE2014FEAE9
:1004580031014FEA02701FBF12F07F4393F07F4FC4
:1004680081F06051704792F0000F14BF93F07F4FF6
:10047800704730B54FF4607401F0004521F0004139
:1004880020E700BF50EA010208BF704730B54FF0BF
:1004980000050AE050EA010208BF704730B511F0C4
:1004A800004502D5404261EB41014FF4806404F1FC
:1004B80032045FEA915C3FF4DCAE4FF003025FEA7E
:1004C800DC0C18BF03325FEADC0C18BF033202EB06
:1004D800DC02C2F1200300FA03FC20FA02F001FA60
:1004E80003FE40EA0E0021FA02F11444C1E600BFFF
:1004F80070B54FF0FF0C4CF4E06C1CEA11541DBFB2
:100508001CEA135594EA0C0F95EA0C0F00F0DEF87C
:100518002C4481EA030621EA4C5123EA4C5350EA61
:10052800013518BF52EA033541F4801143F48013B2
:1005380038D0A0FB02CE4FF00005E1FB02E506F043
:100548000042E0FB03E54FF00006E1FB03569CF098
:10055800000F18BF4EF0010EA4F1FF04B6F5007F9E
:1005680064F5407404D25FEA4E0E6D4146EB060610
:1005780042EAC62141EA55514FEAC52040EA5E5099
:100588004FEACE2EB4F1FD0C88BFBCF5E06F1ED843
:10059800BEF1004F08BF5FEA500E50F1000041EB7A
:1005A800045170BD06F0004646EA010140EA020027
:1005B80081EA0301B4EB5C04C2BFD4EB0C0541EA49
:1005C800045170BD41F480114FF0000E013C00F35E
:1005D800AB8014F1360FDEBF002001F0004170BD82
:1005E800C4F10004203C35DA0C341BDC04F114049B
:1005F800C4F1200500FA05F320FA04F001FA05F227
:1006080040EA020001F0004221F0004110EBD370F3
:1006180021FA04F642EB06015EEA430E08BF20EA1F
:10062800D37070BDC4F10C04C4F1200500FA04F3C2
:1006380020FA05F001FA04F240EA020001F0004154
:1006480010EBD37041F100015EEA430E08BF20EAC7
:10065800D37070BDC4F1200500FA05F24EEA020E0F
:1006680020FA04F301FA05F243EA020321FA04F03E
:1006780001F0004121FA04F220EA020000EBD370F5
:100688005EEA430E08BF20EAD37070BD94F0000FF5
:100698000FD101F00046400041EB010111F4801F29
:1006A80008BF013CF7D041EA060195F0000F18BFDA
:1006B800704703F00046520043EB030313F4801F16
:1006C80008BF013DF7D043EA0603704794EA0C0FD0
:1006D8000CEA135518BF95EA0C0F0CD050EA4106E6
:1006E80018BF52EA4306D1D181EA030101F0004163
:1006F8004FF0000070BD50EA410606BF104619468B
:1007080052EA430619D094EA0C0F02D150EA013696
:1007180013D195EA0C0F05D152EA03361CBF1046D7
:1007280019460AD181EA030101F0004141F0FE4176
:1007380041F470014FF0000070BD41F0FE4141F4FA
:10074800780170BD70B54FF0FF0C4CF4E06C1CEAFA
:1007580011541DBF1CEA135594EA0C0F95EA0C0FAF
:1007680000F0A7F8A4EB050481EA030E52EA03356A
:100778004FEA013100F088804FEA03334FF080558B
:1007880045EA131343EA12634FEA022245EA1115B8
:1007980045EA10654FEA00260EF000419D4208BF69
:1007A800964244F1FD0404F5407402D25B084FEA16
:1007B8003202B61A65EB03055B084FEA32024FF4C2
:1007C80080104FF4002CB6EB020E75EB030E22BF1F
:1007D800B61A754640EA0C005B084FEA3202B6EBDF
:1007E800020E75EB030E22BFB61A754640EA5C008E
:1007F8005B084FEA3202B6EB020E75EB030E22BF1E
:10080800B61A754640EA9C005B084FEA3202B6EB1E
:10081800020E75EB030E22BFB61A754640EADC00DD
:1008280055EA060E18D04FEA051545EA16754FEA3F
:1008380006164FEAC30343EA52734FEAC2025FEA5D
:100848001C1CC0D111F4801F0BD141EA00014FF0EC
:1008580000004FF0004CB6E711F4801F04BF0143BD
:100868000020B4F1FD0C88BFBCF5E06F3FF6AFAED9
:10087800B5EB030C04BFB6EB020C5FEA500C50F169
:10088800000041EB045170BD0EF0004E4EEA1131EC
:1008980014EB5C04C2BFD4EB0C0541EA045170BDF3
:1008A80041F480114FF0000E013C90E645EA060E37
:1008B8008DE60CEA135594EA0C0F08BF95EA0C0F65
:1008C8003FF43BAF94EA0C0F0AD150EA01347FF4AD
:1008D80034AF95EA0C0F7FF425AF104619462CE784
:1008E80095EA0C0F06D152EA03353FF4FDAE1046E7
:1008F800194622E750EA410618BF52EA43067FF438
:10090800C5AE50EA41047FF40DAF52EA43057FF4C7
:10091800EBAE12E74FF0FF3C06E000BF4FF0010CD2
:1009280002E000BF4FF0010C4DF804CD4FEA410C36
:100938007FEA6C5C4FEA430C18BF7FEA6C5C1BD003
:1009480001B050EA410C0CBF52EA430C91EA030F84
:1009580002BF90EA020F0020704710F1000F91EAE1
:10096800030F58BF994208BF90422CBFD8176FEAAF
:10097800E37040F0010070474FEA410C7FEA6C5C7D
:1009880002D150EA013C07D14FEA430C7FEA6C5C84
:10099800D6D152EA033CD3D05DF8040B704700BFB0
:1009A8008446104662468C461946634600E000BFFE
:1009B80001B5FFF7B7FF002848BF10F1000F01BDD0
:1009C8004DF808EDFFF7F4FF0CBF012000205DF89B
:1009D80008FB00BF4DF808EDFFF7EAFF34BF012020
:1009E80000205DF808FB00BF4DF808EDFFF7E0FFB9
:1009F80094BF012000205DF808FB00BF4DF808ED0A
:100A0800FFF7CEFF94BF012000205DF808FB00BF70
:100A18004DF808EDFFF7C4FF34BF012000205DF852
:100A280008FB00BF4FEA410212F5001215D211D59A
:100A38006FF47873B3EB625212D94FEAC12343F0D3
:100A4800004343EA505311F0004F23FA02F018BF55
:100A5800404270474FF00000704750EA013005D11E
:100A680011F0004008BF6FF0004070474FF00000E1
:100A7800704700BF4FEA4102B2F1E04324BFB3F52B
:100A8800001CDCF1FE5C0DD901F0004C4FEAC002FD
:100A98004CEA5070B2F1004F40EB830008BF20F0E1
:100AA8000100704711F0804F21D113F13872BCBF9B
:100AB80001F00040704741F480114FEA5252C2F1F0
:100AC8001802C2F1200C10FA0CF320FA02F018BF39
:100AD80040F001004FEAC1234FEAD32303FA0CFC8C
:100AE80040EA0C0023FA02F34FEA4303CCE77FEA1B
:100AF800625307D150EA01331EBF4FF0FE4040F465
:100B08004000704701F0004040F0FE4040F4000013
:100B1800704700BF80F0004002E000BF81F0004154
:100B280042001FBF5FEA410392EA030F7FEA226C8B
:100B38007FEA236C6AD04FEA1262D2EB1363C1BF1B
:100B4800D218414048404140B8BF5B42192B88BF8A
:100B5800704710F0004F40F4000020F07F4018BFAD
:100B6800404211F0004F41F4000121F07F4118BFCD
:100B7800494292EA030F3FD0A2F1010241FA03FC75
:100B880010EB0C00C3F1200301FA03F100F000435D
:100B980002D5494260EB4000B0F5000F13D3B0F125
:100BA800807F06D340084FEA310102F10102FE2A94
:100BB80051D2B1F1004F40EBC25008BF20F0010004
:100BC80040EA03007047490040EB000010F4000FB2
:100BD800A2F10102EDD1B0FA80FCACF1080CB2EB45
:100BE8000C0200FA0CF0AABF00EBC25052421843A4
:100BF800BCBFD0401843704792F0000F81F4000149
:100C080006BF80F400000132013BB5E74FEA41031B
:100C18007FEA226C18BF7FEA236C21D092EA030F87
:100C280004D092F0000F08BF0846704790EA010F01
:100C38001CBF0020704712F07F4F04D1400028BF2E
:100C480040F00040704712F100723CBF00F5000010
:100C5800704700F0004343F0FE4040F40000704746
:100C68007FEA226216BF08467FEA236301464202F2
:100C780006BF5FEA412390EA010F40F48000704705
:100C88004FF0000304E000BF10F0004348BF4042AB
:100C98005FEA000C08BF704743F0964301464FF0E7
:100CA80000001CE050EA010208BF70474FF0000343
:100CB8000AE000BF50EA010208BF704711F0004384
:100CC80002D5404261EB41015FEA010C02BF844654
:100CD8000146002043F0B64308BFA3F18053A3F5B3
:100CE8000003BCFA8CF2083AA3EBC25310DB01FAFA
:100CF80002FC634400FA02FCC2F12002BCF1004F7E
:100D080020FA02F243EB020008BF20F0010070470E
:100D180002F1200201FA02FCC2F1200250EA4C0062
:100D280021FA02F243EB020008BF20EADC707047A8
:100D380073B96AB9002908BF0028BCBF00204FF06A
:100D48000041C4BF6FF000414FF0FF3000F076B8AB
:100D580082B0EC462DE9005000F040F8DDF804E0E0
:100D680002B00CBC704700BF07EE900AF5EEC07ADF
:100D7800F1EE10FA08B503D4BDE8084000F00AB84F
:100D8800F1EE677A17EE900A00F004F8404261EB42
:100D9800410108BD70B5FFF757FB00220D4B044613
:100DA8000D46FFF7A5FB00F04BF80646FFF72AFBB8
:100DB8000022094BFFF79CFB02460B4620462946BA
:100DC800FFF7E2F900F03CF8002242EA000420466E
:100DD800314670BD0000F03D0000F0412DE9704340
:100DE800069E14461D468046894600F049F804FBD5
:100DF80001F300FB0533A4FB00451D44B8EB0404D4
:100E080069EB0505C6E90045BDE870832DE9704327
:100E1800069E1446804689461D4600F07DF900FB73
:100E280005F504FB0153A0FB04451D44B8EB04047D
:100E380069EB0505C6E90045BDE87083704700BF4A
:100E48004A0011D212F5001211D20DD56FF4787341
:100E5800B3EB62520ED44FEAC12343F0004343EA96
:100E6800505323FA02F070474FF00000704750EAE1
:100E7800013002D14FF0FF3070474FF0000070474B
:100E880000292DE9F00FC0F29F800024002BC0F24A
:100E98009680154606460F46002B3ED18A4257D902
:100EA800B2FA82F34BB1C3F1200201FA03F720FA38
:100EB80002F29D40174300FA03F6290CB7FBF1F242
:100EC800330C01FB127CA8B243EA0C4700FB02F387
:100ED800BB4209D97F1902F1FF3C80F00181BB4276
:100EE80040F2FE80023A2F44FF1AB7FBF1F3B6B284
:100EF80001FB137146EA014100FB03F0884208D95F
:100F0800491903F1FF3780F0ED80884240F2EA800A
:100F1800023B43EA0242002303E08B420AD9002342
:100F28001A461046194614B1404261EB4101BDE82A
:100F3800F00F7047B3FA83F8B8F1000F40F08480DF
:100F48008B4202D3824200F2DE8000230122E8E7CE
:100F580012B90123B3FBF2F5B5FA85F2002A39D1AB
:100F68007F1B280C1FFA85FC0123B7FBF0F1320C1C
:100F780000FB117742EA07470CFB01F2BA4207D996
:100F88007F1901F1FF3802D2BA4200F2C18041460E
:100F9800BF1AB7FBF0F2B6B200FB127046EA004087
:100FA8000CFB02FC844507D9401902F1FF3702D235
:100FB800844500F2AB803A4642EA0142B1E7E44395
:100FC800524263EB430364E7404261EB41014FF057
:100FD800FF345BE79540C2F1200327FA03F1280CA0
:100FE80026FA03F39740B1FBF0F81F433B0C00FBD4
:100FF80018111FFA85FC43EA01410CFB08F38B42E8
:1010080006FA02F608D9491908F1FF3279D28B425B
:1010180077D9A8F102082944C91AB1FBF0F3BFB285
:1010280000FB131147EA01470CFB03F2BA4207D948
:101038007F1903F1FF3160D2BA425ED9023B2F44D7
:10104800BF1A43EA084390E7C8F1200203FA08FCF4
:1010580025FA02F343EA0C0C4FEA1C4921FA02F381
:1010680001FA08F720FA02F2B3FBF9F1174309FB7A
:1010780011333A0C1FFA8CFB42EA03430BFB01FACB
:101088009A4505FA08F008D913EB0C0301F1FF3271
:1010980035D29A4533D902396344CAEB0303B3FB0B
:1010A800F9F209FB1233BFB247EA03470BFB02F917
:1010B800B94508D917EB0C0702F1FF331BD2B94524
:1010C80019D9023A674442EA0145A5FB0001C9EB78
:1010D80007078F424FF000030AD305D02A4620E7BE
:1010E800624601E73B4614E706FA08F68642F5D25F
:1010F8006A1E002315E71A46E5E70B46A0E71146E6
:10110800CBE7904688E7434642460AE7023A53E768
:1011180002392F443CE700BF2DE9F00F144605467D
:101128000E46002B43D18A4253D9B2FA82F757B1FF
:10113800C7F1200620FA06F601FA07F302FA07F4C7
:101148001E4300FA07F5210CB6FBF1F22B0C01FB4C
:101158001267A0B243EA074600FB02F3B34209D97B
:10116800361902F1FF3780F0F680B34240F2F3807F
:10117800023A2644F61AB6FBF1F3ADB201FB13614D
:1011880045EA014100FB03F0884208D9091903F137
:10119800FF3680F0E280884240F2DF80023B43EA7B
:1011A8000242002310461946BDE8F00F70478B42F3
:1011B8004AD8B3FA83F6002E4DD18B4202D382422D
:1011C80000F2D6800023012210461946BDE8F00F30
:1011D800704712B90124B4FBF2F4B4FA84F2002A7D
:1011E8007CD1091B260CA7B20123B1FBF6F02A0C0F
:1011F80006FB101142EA014107FB00F28A4207D9B7
:10120800091900F1FF3C02D28A4200F2C38060460D
:10121800891AB1FBF6F2ADB206FB121145EA014597
:1012280007FB02F7AF4208D92C1902F1FF3180F011
:101238009680A74240F29380023A42EA0042104662
:101248001946BDE8F00F704700231A4610461946A4
:10125800BDE8F00F7047C6F1200522FA05F4B34047
:101268001C434FEA144821FA05F301FA06F720FA5D
:1012780005F5B3FBF8FC2F4308FB1C333D0C1FFAA4
:1012880084FA45EA03430AFB0CF9994502FA06FB7E
:1012980004D91B190CF1FF326DD39446C9EB030333
:1012A800B3FBF8F508FB1533BFB247EA03470AFB5F
:1012B80005F8B84504D93F1905F1FF3361D31D4638
:1012C80045EA0C4CACFB0B23C8EB07079F424FF0D9
:1012D800000549D345D062462B4663E79440C2F1E6
:1012E800200321FA03FC260C20FA03F301FA02F585
:1012F800BCFBF6F843EA05010B0C06FB18CCA7B2B9
:1013080043EA0C4C07FB08F3634500FA02F509D9D8
:101318001CEB040C08F1FF323AD2634538D9A8F126
:101328000208A444C3EB0C0CBCFBF6F389B206FB21
:1013380013CC41EA0C4107FB03F28A4207D9091989
:1013480003F1FF3022D28A4220D9023B2144891A74
:1013580043EA084349E73A460CE733461FE70A469B
:101368006BE7B0409042B6D20CF1FF32002319E788
:101378003346324616E799458FD9ACF1020C23441F
:101388008CE7B8459BD9023D274499E70346DEE739
:101398009046C7E7023821443AE700BF1448154988
:1013A800026800608A4200F01E80002100F004B844
:1013B800114B5B58435004311048114B42189A4264
:1013C800FFF4F6AF0F4A00F003B8002342F8043BDD
:1013D8000D4B9A42FFF4F9AF0EF0D2FE11F094FCD7
:1013E8007047FFF7FEBF0948D0F800D040680047B3
:1013F800FC9F0020EFBEADDEBC0403080000002007
:10140800D4010020D8010020F443002000D8FF1F99
:10141800FFF7FEBF80B483B000AF0346FB71FB79D2
:10142800074A9B0013445B781A46064B33F8123080
:101438009BB218460C37BD465DF8047B704700BF69
:10144800EC210020E421002080B59EB000AF786038
:10145800002387F87630B148002110222AF02EFAAE
:1014680007F12003184623F0F1FC032387F8243002
:10147800002387F827307B681B78002B19D00123BD
:101488003B6207F12003A648194623F047FCA34B0B
:1014980006221A70A14B97F876205A709F4B0722A4
:1014A800DA709E4B01229A7097F87630013387F8EC
:1014B80076307B685B78002B19D004233B6207F1F8
:1014C80020039748194623F029FC944B08221A71E7
:1014D800924B97F876205A71904B0722DA718F4B0E
:1014E80001229A7197F87630013387F876307B6855
:1014F8009B78002B19D002233B6207F12003884810
:10150800194623F00BFC854B07221A73834B97F877
:1015180076205A73814B0722DA73804B01229A7323
:1015280097F87630013387F8763008233B6207F165
:1015380020037B48194623F0F1FB784B09221A72E5
:10154800764B97F876205A72744B0722DA72734BEF
:1015580001229A7297F87630013387F876304FF483
:10156800D87023F077FF6F48012123F0A7FF6E485A
:1015780025F0BCFD07F12803184625F0B3FE6B4B98
:10158800BB626B4BFB6200233B6397F876309BB2E0
:10159800BB860023BB6397F87630012B01D98023E3
:1015A80000E00023FB634FF480733B644FF48063D7
:1015B8007B642023BB644FF40053FB6400233B652A
:1015C80007F128035848194625F04CFE56480121D2
:1015D80025F0B2FE4FF0A040012124F079FA0A204C
:1015E80018F0B8FA4FF0A040002124F045FA4FF067
:1015F800A04024F031FA00BF4FF0A04024F052FA86
:101608000346002BF8D14FF0A040002124F060FAE7
:1016180007F10C03184624F0EBF90023FB604FF4A4
:1016280040333B614FF400437B610223BB610023DD
:101638003B7707F10C034FF0A040194624F08AF9D4
:1016480007F15403184624F063F94FF400537B65FF
:101658000023BB650023FB6500233B6600237B66F4
:101668000023BB660023FB6697F8763087F8703056
:1016780007F154034FF0A040194624F009F901235B
:1016880087F87530002387F8773024E097F87730AB
:10169800224A9B0013449B7883F00103DBB2002BA2
:1016A80000D013E097F877201C4B13F8221097F816
:1016B8007520531C87F8753097F8773017489B00CA
:1016C8000344DB784FF0A04024F024FA97F87730F1
:1016D800013387F8773097F87730032BD6D94FF056
:1016E800A040012124F09CF900BF4FF0A040012147
:1016F80024F044FB0346002BF7D04FF0A040022112
:1017080024F026FB4FF0A040012124F005FB4FF008
:10171800A04024F0F1FA7837BD4680BDEC210020C6
:101728000008004801000010080002404000005076
:10173800E421002080B483B000AF7860064B1B889A
:101748009BB201339AB2044B1A80002318460C3717
:10175800BD465DF8047B70470C21002080B400AFC3
:10176800034B1B889BB21846BD465DF8047B704747
:101778000C21002080B586B002AFF871B9717A717A
:101788003B713B79624A2C2101FB03F313441B682C
:10179800FB60FB795B00FB715E4B4FF420421A60E3
:1017A80010E05C4B1B68591E5A4A1160002B09D186
:1017B800F868FFF7BFFF0346002B0CBF0023012387
:1017C800DBB2A1E0F8684FF4004125F061FC034664
:1017D800002BE6D1FB799BB24FF400520092F868D7
:1017E800194601224FF0807325F00AFC494B4FF44B
:1017F80020421A6010E0474B1B68591E454A116089
:10180800002B09D1F868FFF795FF0346002B0CBFA2
:1018180000230123DBB277E0F868022125F038FCC9
:101828000346002BE7D0BB79F868194625F014FC6D
:10183800384B4FF420421A6010E0364B1B68591E93
:10184800344A1160002B09D1F868FFF773FF03468B
:10185800002B0CBF00230123DBB255E0F868802180
:1018680025F016FC0346002BE7D0FB799BB200223B
:101878000092F868194601224FF0007325F0C0FB6A
:10188800244B4FF420421A6010E0224B1B68591E6B
:10189800204A1160002B09D1F868FFF74BFF034677
:1018A800002B0CBF00230123DBB22DE0F8680221D6
:1018B80025F0EEFB0346002BE7D07B79F868194644
:1018C80025F0CAFB134B4FF420421A6010E0114B6D
:1018D8001B68591E0F4A1160002B09D1F868FFF7E1
:1018E80029FF0346002B0CBF00230123DBB20BE0CA
:1018F800F868202125F0CCFB0346002BE7D0F868D8
:10190800202125F0E5FB012318461037BD4680BD90
:101918004CDB0208A806002080B586B002AF3B6009
:101928000346FB710B46BB7113467B713B7E694ACC
:101938002C2101FB03F313441B68FB60FB795B005C
:10194800FB71654B4FF420421A6010E0624B1B6834
:10195800591E614A1160002B09D1F868FFF7EAFEA9
:101968000346002B0CBF00230123DBB2AEE0F8686E
:101978004FF4004125F08CFB0346002BE6D1FB79A0
:101988009BB24FF400520092F868194601220023D6
:1019980025F036FB504B4FF420421A6010E04E4BB6
:1019A8001B68591E4C4A1160002B09D1F868FFF7D3
:1019B800C1FE0346002B0CBF00230123DBB285E0E8
:1019C800F868022125F064FB0346002BE7D0BB79B9
:1019D800F868194625F040FB3F4B4FF420421A6047
:1019E80010E03D4B1B68591E3B4A1160002B09D182
:1019F800F868FFF79FFE0346002B0CBF0023012366
:101A0800DBB263E0F868402125F042FB0346002B77
:101A1800E7D0FB799AB27B794FF410510091F868BE
:101A280011461A464FF0007325F0EAFA29E02A4BCE
:101A38004FF420421A6010E0274B1B68591E264AB3
:101A48001160002B09D1F868FFF774FE0346002BDC
:101A58000CBF00230123DBB238E0F868042125F02D
:101A680017FB0346002BE7D0F86825F003FB034675
:101A78001A463B681A703B6801333B607B79013B2F
:101A88007B717B79002BD2D1134B4FF420421A6023
:101A980010E0114B1B68591E0F4A1160002B09D129
:101AA800F868FFF747FE0346002B0CBF002301230D
:101AB800DBB20BE0F868202125F0EAFA0346002B98
:101AC800E7D0F868202125F003FB012318461037DA
:101AD800BD4680BD4CDB0208A806002080B588B052
:101AE80000AF4FF48050012123F006FD4FF48050E1
:101AF800012123F03DFD4FF48020012123F0DEFC7D
:101B080023480321052223F0D7F92148042105227F
:101B180023F0D2F91E480521052223F0CDF93823F8
:101B28007B6002233B7203237B720023BB7200237A
:101B3800FB723B1D1648194623F0F0F8154823F0B0
:101B480061FD4FF48273FB810023BB814FF4E06396
:101B58003B824FF40073FB8200237B830723BB8304
:101B680002237B820123BB8210233B8309484FF465
:101B7800805123F02BFE07F10C030648194623F089
:101B88007BFD0448012123F001FE2037BD4680BDBE
:101B9800000400480030014080B582B000AF786092
:101BA8007A68064B9A4203D1FFF798FF012300E0B9
:101BB800002318460837BD4680BD00BF00300140ED
:101BC80080B483B000AF78607A68154B9A4207D129
:101BD800144B1B889BB201339AB2124B1A8016E041
:101BE8007A68114B9A4207D1104B1B889BB201337C
:101BF8009AB20E4B1A800AE00D4B1B889BB2013338
:101C08009AB20B4B1A800A4B1B889BB201E04FF02B
:101C1800FF3318460C37BD465DF8047B704700BF9C
:101C2800003001400E210020003800401021002023
:101C38001221002080B584B000AF78600B46FB709D
:101C48004FF47A73FB810AE0FB895A1EFA81002B54
:101C580005D17868FFF7B4FF0346DBB225E0786862
:101C6800022123F0F9FD0346002BEDD0FB787868BC
:101C7800194623F0C7FD4FF47A73FB810AE0FB890C
:101C88005A1EFA81002B05D17868FFF799FF0346A1
:101C9800DBB20AE07868012123F0DEFD0346002B61
:101CA800EDD0786823F0C4FD034618461037BD46CA
:101CB80080BD00BF80B586B000AFF860B9607A60BB
:101CC8003B604FF47A73FB82FB689B8949E07B6831
:101CD800002B04D07B685A1C7A601B7800E0FF2335
:101CE8007B750EE0FB8A5A1EFA82002B09D1F86830
:101CF800FFF766FF0346002B0CBF00230123DBB26E
:101D080035E0F868022123F0A7FD0346002BE9D04F
:101D18007B7DF868194623F075FD0EE0FB8A5A1E94
:101D2800FA82002B09D1F868FFF74AFF0346002B17
:101D38000CBF00230123DBB219E0F868012123F06E
:101D48008BFD0346002BE9D0F86823F071FD0346AC
:101D58007B75BB68002B04D0BB685A1CBA607A7DBF
:101D68001A703B685A1E3A60002BB0D101231846FE
:101D78001837BD4680BD00BF80B584B000AF78601D
:101D88000B467B807868002123F000FD7B681B8868
:101D9800FB817B88102B2CD0102B06DC042B16D053
:101DA800082B1DD0022B0DD050E0402B33D0402BF8
:101DB80002DC202B26D049E0802B35D0B3F5807F7C
:101DC8003BD043E0FB8923F03803FB813EE0FB89ED
:101DD80023F03803FB81FB8943F00803FB8135E0DE
:101DE800FB8923F03803FB81FB8943F01003FB8157
:101DF8002CE0FB8923F03803FB81FB8943F01803AF
:101E0800FB8123E0FB8923F03803FB81FB8943F046
:101E18002003FB811AE0FB8923F03803FB81FB894F
:101E280043F02803FB8111E0FB8923F03803FB8191
:101E3800FB8943F03003FB8108E0FB8923F038037A
:101E4800FB81FB8943F03803FB8100BF7B68FA897B
:101E58001A807868012123F099FC1037BD4680BDAF
:101E680080B588B000AF786039600023FB613FE03F
:101E7800FB69012202FA03F37B613B681B881A465F
:101E88007B691340002B30D07B69FB603B689B78F3
:101E980003F00303DBB23B740123FB763B68DB787A
:101EA800022B06D0032B07D0012B08D10123FB7688
:101EB80005E00223FB7602E00323FB7600BFFB7EEE
:101EC8007B743B689B7803F030031B11DBB2BB7457
:101ED8003B689B7803F00C039B10DBB2FB7407F1A3
:101EE8000C037868194622F019FFFB690133FB617E
:101EF800FB690F2BBCD92037BD4680BD80B483B0A9
:101F080000AF78600B467B807A887B689A610C37D3
:101F1800BD465DF8047B7047B0B588B000AF234B71
:101F28003C461D460FCD0FC495E8030084E8030026
:101F38000323FB764FF40020012123F0BFFA4FF46E
:101F48000020012123F0BAFA4FF40020012123F0E8
:101F5800B5FA17484FF40041FFF7D0FF14484FF483
:101F68008041FFF7CBFF12484FF40051FFF7C6FF3F
:101F78000023FB6112E0FB69DB0007F12002134438
:101F880053F8202C3946FB69DB000B440433104618
:101F98001946FFF765FFFB690133FB61FA7EFB69B0
:101FA8009A42E8D82037BD46B0BD00BFDCBC020865
:101FB8000008004880B483B000AF03463960FB8056
:101FC800FB8805493A689B000B44106818600C3779
:101FD800BD465DF8047B7047AC06002080B483B032
:101FE80000AF03463960FB80FB883A6804499B00D0
:101FF8000B44186810600C37BD465DF8047B7047C9
:10200800AC06002080B584B000AF78600023FB8167
:1020180007E0FB8918467968FFF7CCFFFB89013395
:10202800FB81FB891F2BF4D91037BD4680BD00BF4B
:1020380080B500AF0548002140F22A3229F03EFC65
:1020480000F096F800F050F880BD00BFFC21002099
:1020580080B400AF064B1B78DBB2002B14BF002303
:102068000123DBB21846BD465DF8047B704700BF0C
:102078006221002080B485B000AF78607B685B780F
:102088001A047B681B781B021A437B689B781343EE
:10209800BB601723FB7319E0114B1B885A1C91B2C4
:1020A8000F4A1180194697F90F30012202FA03F3FB
:1020B8001A46BB681340002B01D0432300E02123BC
:1020C800084A42F82130FB7B013BFB7397F90F303C
:1020D800002BE1DA1437BD465DF8047B704700BF7A
:1020E80014210020FC21002080B500AF04E01A4B29
:1020F8001B685A1C184B1A60184B1B78DBB2002B54
:10210800F5D1174B00221A80164B00221A8017E0CF
:10211800144B1B881BB29A00134B1344184606F045
:102128000FFE0246114B1A60104B1B681846FFF74A
:10213800A1FF0C4B1B889BB201339AB2094B1A8042
:10214800084B1B881BB21F2BE2DD044B01221A70BF
:1021580000F0ECF880BD00BF2C07002062210020B1
:102168001421002016210020AC0600203007002092
:1021780080B598B000AF4FF40030012123F09EF9EC
:102188004FF090400621012222F096FE07F1340319
:10219800184622F05BFE40237B63022387F8383021
:1021A800002387F83A30012387F83B30032387F868
:1021B800393007F134034FF09040194622F0AEFD54
:1021C8004FF40030012123F097F9444B1A68444B2F
:1021D800A3FB02135B0D9BB2013BA7F85E3007F12E
:1021E8005003184623F0FEFE1D237B65B7F85E30CA
:1021F800A7F850300023A7F858300023A7F852302A
:1022080007F150033748194623F076FE07F13C03DF
:10221800184624F019F96023FB630123A7F840301E
:1022280000237B640023A7F8483007F13C032D48BE
:10223800194623F01FFF2B48082124F027F92948C5
:10224800012124F061FA0120012123F037F9264801
:1022580024F04CFF07F10803184625F043F8234BF8
:10226800BB60234BFB6010233B6140F22A33BB82E7
:102278000023BB618023FB614FF480733B62002322
:102288007B620023BB624FF40053FB6200233B6375
:1022980007F108031448194624F0E4FF11484FF4E5
:1022A8000071012224F07EFA0F480221012225F054
:1022B8007BF80D233B7101237B710023BB71012344
:1022C800FB713B1D184624F0A3FB0A48FFF79AFE52
:1022D800FFF70AFF6037BD4680BD00BF2800002019
:1022E800819F5E16004401403000024034440140A2
:1022F800FC21002048DF020880B500AF4FF40070D1
:1023080025F070F80346002B0AD0064B00221A70FD
:102318000548002125F010F84FF4007025F08CF8DE
:1023280080BD00BF622100203000024080B500AFB0
:10233800084840F22A3125F01BF80748002123F00D
:102348006BFE0548012123F075FE0248012124F0A7
:10235800F3FF80BD300002400044014080B588B0E2
:1023680000AF78600023FB610023BB618548002132
:10237800022229F0A3FA7B681B7C002B01D00223E0
:10238800FB617B685B78002B03D17B689B78002B13
:1023980002D0FB690133FB617B4BFA6953F82230A9
:1023A8003B610023FB610EE1FB695B003A69134462
:1023B8001B88FB73FB695B003A6913441B881B0A83
:1023C8009BB2FB75FB7B1A01704B1344BB607B68A7
:1023D8005B79002B0FD0BB685A686D4B9A420AD1C3
:1023E800BB681B89B3F5806F04D0BB681B89B3F544
:1023F800006F00D1E4E07B685B7A002B0FD0BB68EC
:102408001A68644B9A4200D1DAE0BB685B68B3F1A2
:10241800904F04D1BB689B7B062B00D1D0E07B6832
:102428009B79002B09D0BB685A685B4B9A4204D150
:10243800BB681B89012B00D1C2E07B68DB78002BCD
:1024480009D0BB685A68544B9A4204D1BB681B89AF
:10245800042B00D1B4E07B681B79002B09D0BB6842
:102468005A684D4B9A4204D1BB681B89022B00D194
:10247800A6E0FB7D022B07D17B681B7883F0010364
:10248800DBB2002B00D09BE0FB7D012B07D17B68E2
:102498005B7883F00103DBB2002B00D090E07B680F
:1024A8009B7A002B19D07B681B7C83F00103DBB27D
:1024B800002B12D0FB7B052B08D0FB7B062B05D00D
:1024C800FB7B072B02D0FB7B082B06D1BB681B6864
:1024D800B3F1804F01D10423FB757B68DB7A002BB5
:1024E8000ED07B681B7C83F00103DBB2002B07D086
:1024F800FB7B032B04D9FB7B072B01D80423FB753B
:10250800FB7D012B03D1B86800F05CFD58E0FB7D32
:10251800022B09D1BB69DBB2B868194600F0FCFC94
:10252800BB690133BB614BE0FB7D032B36D17B6874
:10253800DB79002B06D0134B5B78B868194600F09E
:102548006BFA17E07B685B8AB3F5FA7F09D90D4B04
:1025580059787B685A8A7B689B8AB86800F00CFABD
:1025680008E0084B59787B685A8A7B689B8AB86868
:1025780000F02AFA034B5B780133DAB2014B5A7048
:102588001EE000BF34070020DCDB020804DC020880
:10259800000400480044014000080048FB7D042B6B
:1025A8000ED1124B19787B689A897B68DB89B868E9
:1025B80000F052FA0D4B1B780133DAB20B4B1A704C
:1025C800FB690133FB61FB690A2B09DCFB695B00D2
:1025D8003A6913441A884FF6FF739A427FF4E4AEBF
:1025E800024B18462037BD4680BD00BF3407002087
:1025F80080B588B000AF786013460A46FA703B8011
:1026080007F10C03184623F01FFF7023FB6001231A
:102618003B8200237B823B887B6102233B834FF410
:102628008073BB83FB780C2B48D801A252F823F0A7
:102638006D260008C5260008C5260008C52600081E
:1026480083260008C5260008C5260008C5260008F8
:1026580099260008C5260008C5260008C5260008D2
:10266800AF26000807F10C037868194623F002FD2D
:102678007868082123F00AFF20E007F10C03786846
:10268800194623F083FD7868082123F01BFF15E025
:1026980007F10C037868194623F0F8FD78680821DB
:1026A80023F02CFF0AE007F10C037868194623F0A1
:1026B8006BFE7868082123F03DFF00BF2037BD4638
:1026C80080BD00BF80B586B000AFF860B960134622
:1026D800FB71BB689BB2BB82FB79BB750223FB75A0
:1026E80007F11403F8681946FFF7BAFB1837BD4617
:1026F80080BD00BF80B586B000AFF860F9723A813E
:10270800FB803F4B1B785A1CD1B23D4A11701A010D
:102718003C4B13447B61FB6819683A89FB7A08468D
:1027280011461A4601F05CFBFB685A68FB681B8976
:10273800104619460222FFF7C5FFFB681968FB68B7
:102748009A7AFB88084611461A46FFF751FFFB683C
:102758001B7B002B05D0FB681B681846012123F062
:10276800D3FFFB681B681846012123F063FCFB6854
:102778009B7A0C2B38D801A252F823F0B92700080D
:10278800F1270008F1270008F1270008C7270008EB
:10279800F1270008F1270008F1270008D5270008CD
:1027A800F1270008F1270008F1270008E3270008AF
:1027B800FB681B6803F134027B691A6014E0FB684C
:1027C8001B6803F138027B691A600DE0FB681B681F
:1027D80003F13C027B691A6006E0FB681B6803F1A1
:1027E80040027B691A6000BF7B693A891A81FB68DD
:1027F8001A687B695A607B6918461837BD4680BDE0
:10280800632100203807002080B483B000AF02465F
:102818000B46FA71BB80FA790C4B53F822301A68D0
:10282800BB88A3F57A73F879084951F8201009890B
:1028380001FB03F3064981FB03018911DB17CB1A5E
:1028480013600C37BD465DF8047B7047780800209C
:10285800D34D621080B483B000AF02460B46FA71C4
:10286800BB80FA79054B53F822301B68BA881A6086
:102878000C37BD465DF8047B704700BF7808002020
:1028880080B582B000AF02460B46FA71BB80FA7978
:102898000A4B53F82230002B0CD0FB790B2B09D8AC
:1028A800FA79064B53F82230DB68F979BA8808467A
:1028B800114698470837BD4680BD00BF78080020FC
:1028C80080B485B000AF0346FB710023FB7309E0B9
:1028D800FA7B094B53F822301B6800221A60FB7BF5
:1028E8000133FB73FA7BFB799A42F1D31437BD4667
:1028F8005DF8047B704700BF7808002080B584B07D
:1029080000AF0346FB710023BB600023FB7318E094
:10291800FA7B184B53F822305A68BB689A420DD09C
:10292800FA7B144B53F822305B68BB60FA7B114B7F
:1029380053F822305B68184601F0CAFCFB7B013370
:10294800FB73FA7BFB799A42E2D30023FB7309E01D
:10295800FA7B084B53F822301B6800221A60FB7B75
:102968000133FB73FA7BFB799A42F1D31037BD46EA
:1029780080BD00BF7808002090B587B000AFF86030
:10298800F9723A81FB800D4B7B61FC7A3B897A694D
:10299800B2FBF3F39AB2FB88F8680821FFF7AAFEA6
:1029A8000246074B43F82420FA7A054B53F82230A5
:1029B800044ADA601C37BD4690BD00BF00127A0099
:1029C800780800201128000890B587B000AFF8609B
:1029D800F9723A81FB800D4B7B61FC7A3B897A69FD
:1029E800B2FBF3F39AB2FB88F8680121FFF782FE85
:1029F8000246074B43F82420FA7A054B53F8223055
:102A0800044ADA601C37BD4690BD00BF40420F0043
:102A1800780800205D28000890B583B000AF786082
:102A28000B46FB70FC78786808214FF6FF7200238C
:102A3800FFF760FE0246064B43F82420FA78044B61
:102A480053F82230034ADA600C37BD4690BD00BF08
:102A5800780800205D28000890B585B000AFF860C0
:102A6800F9723A81FB80FC7A3B89084A92FBF3F3BE
:102A78009AB2FB88F8680121FFF73CFE0246044B36
:102A880043F824201437BD4690BD00BF40420F00D4
:102A9800A808002080B483B000AF02460B46FA7144
:102AA800BB80FA79094B53F82230002B09D0FB7907
:102AB800072B06D8FA79054B53F822301B68BA88D9
:102AC8001A600C37BD465DF8047B7047A8080020E3
:102AD80080B400AF064B1A78064B1B789A420CBF9D
:102AE80000230123DBB21846BD465DF8047B70471E
:102AF800652100206621002080B400AF034B1A78BE
:102B0800034B1A70BD465DF8047B704765210020B1
:102B18006621002080B483B000AF0346FB71044BEC
:102B2800FA791A700C37BD465DF8047B704700BF10
:102B38006421002080B400AF114B00221A70104BA2
:102B480000225A600E4B00229A600D4B0022DA6078
:102B58000B4B00221A640A4BFF2283F84420084BCF
:102B6800FF2283F84520064B002283F84620044BB9
:102B7800002283F84720BD465DF8047B704700BFFC
:102B8800A42E002080B483B000AF78600B467B8011
:102B9800054B1A6C7B8813445A1C034B1A640C3778
:102BA800BD465DF8047B7047A42E002080B485B034
:102BB80000AF78600B467B806B4B9A686A4B5A6013
:102BC8007A88694B9A60684B9A68674B1B6C1A4401
:102BD800654B9A60644B9A68644B1B78DA40624B89
:102BE8009A60614B9A68604B5B68D21A5E4BDA60F8
:102BF8005D4B9A685C4B5A605B4BDA6840F68C23F5
:102C08009A4273D9584B1B781A46574B93F845305C
:102C18005BB29A421CD1544B1B78032B18D9524BE8
:102C28001B780C2B14D8504B93F84630182B08D827
:102C38004D4B93F846300133DAB24B4B83F84620BC
:102C48000AE0494B1B78DAB2474B83F8442003E08B
:102C5800454B002283F84620434B1B781A46424BCB
:102C680093F844305BB29A4232D13F4B93F84730E5
:102C7800002B2DD00023FB600CE03B4BFA6804329C
:102C880053F8223099B23A4BFA6823F81210FB68CD
:102C98000133FB60344B93F844305AB2FB689A42D4
:102CA800EBDC314B93F844305BB2FB6007E0304B10
:102CB800FA68002123F81210FB680133FB60FB68F7
:102CC8000B2BF4DD2B4B1B780133DAB2294B1A702E
:102CD800254B012283F84720234B1B78DAB2224B7D
:102CE80083F84520204B00221A7037E01E4B93F8DA
:102CF8004730002B32D01C4BDA6840F2EE239A4260
:102D080019D9194BDA6840F6C9039A4213D8164BF9
:102D18001B780B2B0FD8144B1B781A46124BD9680B
:102D2800114B043243F822100F4B1B780133DAB2EF
:102D38000D4B1A7012E00C4B002283F84720002339
:102D4800FB6008E0084BFA680432002143F82210BF
:102D5800FB680133FB60FB680B2BF3DD1437BD46C2
:102D68005DF8047B704700BFA42E00206721002077
:102D7800A80900206521002080B483B000AF00239B
:102D88007B600AE00A4B7A6833F81230002B01D0D6
:102D9800012306E07B6801337B607B680B2BF1DD48
:102DA800002318460C37BD465DF8047B704700BF0A
:102DB800A809002080B485B000AF78600B467B80FE
:102DC8007B68FB60FB68143BBB60BB689B7A013384
:102DD800DAB2BB689A72BB689B7A0A2B09D9BB68BE
:102DE8005B781A46054B002123F81210BB680022B5
:102DF8009A721437BD465DF8047B7047A809002015
:102E080080B586B000AF78600B467B807B687B61BD
:102E18007B69103B3B613B69DB68FB603B699B78E6
:102E2800002B0FD13B697A889A803B6901229A70FE
:102E3800FB681A68FB689B7A10461946022200F064
:102E480041F821E03B697A88DA803B69DA883B6996
:102E58009B88D31A9AB23B691A813B695B781A46F8
:102E68003B6919890A4B23F812103B6900229A70B2
:102E7800FB681A68FB689B7A10461946002200F026
:102E880021F83B6900229A721837BD4680BD00BF01
:102E9800A809002080B586B000AFF860B960134675
:102EA800FB71BB689BB2BB82FB79BB750223FB75C8
:102EB80007F11403F8681946FEF7D2FF1837BD4624
:102EC80080BD00BF80B586B000AF786013460A4663
:102ED800FA703B8007F10C03184623F09BFBFB7844
:102EE8009BB2BB813B88FB8101233B8200237B8211
:102EF800084B1B78012B02D10323BB8201E000237E
:102F0800BB8207F10C037868194623F02FFB1837AA
:102F1800BD4680BD6421002080B584B000AF7860D4
:102F28000B46FB70FA781346DB009B1A9B00224A7B
:102F38001344FB60FB6800229A70FB6800229A72B7
:102F4800FB68FA785A70FB6801221A70FB687A6885
:102F5800DA607B6859687B681B891A467B685B7BEB
:102F6800084611461A46FFF795FF7B681A687B6882
:102F78009B7A104619460022FFF7A4FF78680021C3
:102F8800012200F05BFFFB68103318460B4900F084
:102F98007DFFFB6814331846094900F085FFFB687C
:102FA80003F11002FB681433786811461A4600F0E2
:102FB800D9FF1037BD4680BDC8080020092E00087B
:102FC800BD2D000880B584B000AF7860FFF7B2FD72
:102FD8001D4BFB60FB6800221A70FB687A68DA6098
:102FE8007B6859687B681B891A467B685B7B084647
:102FF80011461A46FFF74EFF7B681A687B689B7A72
:10300800104619460022FFF75DFF7868002101226B
:1030180000F014FFFB68103318460C4900F036FF27
:10302800FB68143318460A4900F03EFFFB6803F1B9
:103038001002FB681433786811461A4600F092FFB4
:103048001037BD4680BD00BFC8080020B52B00085A
:103058008D2B000880B483B000AF0346FB71FA796A
:10306800044B33F8123018460C37BD465DF8047B24
:10307800704700BFA809002080B483B000AF0346A2
:10308800FB71FA79044B33F8123018460C37BD46F9
:103098005DF8047B704700BFA809002080B584B0A4
:1030A80000AF78607B689B7903F00103002B0CBFAD
:1030B80000230123FB720023FB607B685B7903F02C
:1030C8000203002B03D0FB6843F40033FB607B68EA
:1030D8005B7903F00103002B03D0FB6843F48033D2
:1030E800FB607B681A6DFB7A1046F9681A4623F074
:1030F800C5FD1037BD4680BD80B588B000AF78608B
:103108007B681B6D1846002123F09CFD7B689B683B
:10311800BB600023FB607B689B7903F00203002BF4
:1031280002D04FF4005300E000233B617B689B7999
:1031380003F00403002B02D04FF4806300E0002367
:103148007B610023FB610023BB617B685B7903F033
:103158000103002B03D0BB6943F00403BB617B6808
:103168005B7903F00203002B03D0BB6943F008032B
:10317800BB617B681A6D07F108031046194623F0F6
:10318800A7FC7868FFF78AFF7B689B7903F0080340
:10319800002B06D07B681B6D1846012123F09EFD8D
:1031A80005E07B681B6D1846002123F097FD7B68BE
:1031B8001B6D1846012123F045FD2037BD4680BD13
:1031C80080B590B000AFF860B9607A60FB700023FA
:1031D800FB63FA68824B9A4209D1FA7897F848302B
:1031E800786811461A4600F041FAF8631DE0FA685B
:1031F8007C4B9A4209D1FA7897F84830786811469A
:103208001A4600F0E9FAF8630FE0FA68764B9A423A
:1032180009D1FA7897F84830786811461A4600F0CC
:1032280081FBF86301E0FB6BD5E0FB6B012283F8BF
:103238004420FB6B00221A62FB6B1A6AFB6BDA6193
:10324800FB6B00229A62FB6B9A6AFB6B5A62FB6B00
:10325800BA68DA62FB6BFA785A71FB6B7A689A6023
:10326800FB6B97F848209A71F86BFFF745FFFB78DE
:1032780003F00103002B54D0FB6B1B6B002B43D0D6
:1032880007F11003184624F02DF8FB6BDB6C3B614B
:103298004FF480537B630023BB6300233B6200230E
:1032A800BB6280237B620023FB62FB6BDB689BB203
:1032B800BB830023BB6120233B63FB6B5B697B61A2
:1032C800FB6B1B6B184623F011FFFB6B1A6B07F1A6
:1032D80010031046194623F0C5FFFB6B1B6B1846FD
:1032E800012124F029F8FB6B1B6D184640210122AF
:1032F80023F010FDFB6B1B6B184624F047F80346C0
:103308001A46FB6B1A640CE0FB6B1B6D18463749B9
:1033180023F060FDFB6B1B6D18463449012223F036
:1033280017FDFB7803F00203002B4DD0FB6B1B6BE2
:10333800002B42D007F11003184623F0D3FFFB6B94
:10334800DB6C3B614FF480537B630023BB6300233A
:103358003B620023BB6280237B620023FB62FB6B22
:103368001B699BB2BB831023BB6100233B63FB6BD0
:103378005B6B184623F0BAFEFB6B5A6B07F1100320
:103388001046194623F06EFFFB6B5B6B1846022153
:10339800012224F009F8FB6B5B6B1846002123F02F
:1033A800E7FFFB6B5B6B00225A60FB6B1B6D1846DB
:1033B8008021012223F0AEFC06E0FB6B1B6D184652
:1033C8000B49012223F0C4FCFB6B1B6D184601213D
:1033D80023F038FCFB6B18464037BD4680BD00BF64
:1033E8000038014000440040004800400501050045
:1033F8000701070080B584B000AF786039607B684A
:10340800FB60FB683A689A60F868FFF775FE10374A
:10341800BD4680BD80B584B000AF78600B46FB70B8
:103428007B68FB60FB68FA785A71F868FFF764FEFE
:103438001037BD4680BD00BF80B582B000AF786050
:103448007B685B6B7A6891697A68926A0A44DA6089
:103458007B685A6A7B689B6A9A420CD97B685B6B6B
:103468007A68516A7A68926A8A1A5A607B685A6AD4
:103478007B689A620AE07B685B6B7A6811697A6894
:10348800926A8A1A5A607B6800229A627B680022D4
:1034980083F844207B685B6B1846012123F04CFFBE
:1034A8000837BD4680BD00BF80B485B000AF7860E6
:1034B8007B68FB60FB681B6B002B1DD0FB681B6BDC
:1034C8005B68BB60FB681A6CBB689A4207D8BB682C
:1034D800DAB2FB681B6CDBB2D31ADBB228E0FB68FC
:1034E800DB68DAB2BB68DBB21344DAB2FB681B6C88
:1034F800DBB2D31ADBB21BE0FB68DA69FB681B6A34
:103508009A4208D3FB68DB69DAB2FB681B6ADBB254
:10351800D31ADBB20CE0FB68DB68DAB2FB68DB6964
:10352800DBB21344DAB2FB681B6ADBB2D31ADBB234
:1035380018461437BD465DF8047B704780B485B0E3
:1035480000AF78607B68FB60FB685B6B002B03D087
:10355800FB6893F8443008E0FB689A6AFB685B6A8A
:103568009A4214BF00230123DBB218461437BD4624
:103578005DF8047B704700BF80B485B000AF786009
:103588007B68BB60BB681B6B002B17D0BB685A6994
:10359800BB68D968BB681B6CCB1A13441B78FB73D8
:1035A800BB681B6C5A1EBB681A64BB681B6C002B7B
:1035B8001BD1BB68DA68BB681A6416E0BB685A6935
:1035C800BB681B6A13441B78FB73BB681B6A5A1CD5
:1035D800BB68DB689A4203D3BB6800221A6204E026
:1035E800BB681B6A5A1CBB681A62FB7B18461437F7
:1035F800BD465DF8047B704780B584B000AF786045
:103608000B46FB707B68FB60FB689A69FB685B6A2A
:103618001344FA781A70FB685B6A5A1CFB681B69CA
:103628009A4203D3FB6800225A6204E0FB685B6A93
:103638005A1CFB685A62FB685B6B002B0AD0FB685C
:103648005B6B1B6803F00103002B0AD1F868FFF7D6
:10365800F3FE06E0FB681B6D18460349012223F0C0
:1036680077FB1037BD4680BD0701070080B586B0DF
:1036780000AF786013460A46FA70BB704E4B7B6108
:103688007B694E4A1A607B697A689A607B694C4A02
:103698005A617B694B4A9A617B694FF48072DA60A0
:1036A8007B694FF480721A617B69474A1A637B69A8
:1036B800464A5A637B69464A1A657B691B6D2433FF
:1036C8001A467B69DA647B691B6D28331A467B6965
:1036D8009A644FF48040012121F00EFF012001215E
:1036E80021F0ECFE02233B7303237B730023BB739F
:1036F800BB7803F00103002B01D0022300E0012373
:10370800FB73BB7803F00803002B1FD01023BB60AA
:10371800BB7803F00103002B14BF00230123DBB2A5
:10372800BB732C480421072221F0C6FB07F10803CC
:103738002848194621F0F2FABB7803F00103002B60
:1037480028D12448102121F09BFB23E0FB7803F0CB
:103758000203002B0CD01023BB601E480421072253
:1037680021F0AAFB07F108031A48194621F0D6FAF6
:10377800FB7803F00103002B0CD02023BB60154815
:103788000521072221F098FB07F108031148194683
:1037980021F0C4FA0E233B7401237B740023BB740D
:1037A8000123FB7407F11003184623F031F97B69F4
:1037B80018461837BD4680BDC0090020ECDB02085A
:1037C800BC0A0020BC0B0020580002404400024004
:1037D800003801400008004880B586B000AF786026
:1037E80013460A46FA70BB70494B7B617B69494AAC
:1037F8001A607B697A689A607B694FF48072DA6034
:103808007B694FF480721A617B69434A5A617B690C
:10381800424A9A617B69424A1A654FF40030012195
:1038280021F088FE02233B7303237B730023BB73C1
:10383800BB7803F00103002B01D0022300E0012331
:10384800FB73BB7803F00803002B24D04FF48043AC
:10385800BB60BB7803F00103002B14BF00230123D6
:10386800DBB2BB734FF090400E21072221F024FBFE
:1038780007F108034FF09040194621F04FFABB7842
:1038880003F00103002B30D14FF090404FF48041FA
:1038980021F0F6FA29E0FB7803F00203002B0FD0A1
:1038A8004FF48043BB604FF090400E21072221F077
:1038B80003FB07F108034FF09040194621F02EFA58
:1038C800FB7803F00103002B0FD04FF40043BB60DB
:1038D8004FF090400F21072221F0EEFA07F108037C
:1038E8004FF09040194621F019FA26233B74012322
:1038F8007B740023BB740123FB7407F11003184683
:1039080023F086F87B6918461837BD4680BD00BF8E
:10391800140A0020ECDB0208BC0C0020BC0D0020BF
:103928000044004080B586B000AF786013460A4670
:10393800FA70BB70454B7B617B69454A1A607B69AD
:103948007A689A607B694FF48072DA607B694FF419
:1039580080721A617B693F4A5A617B693E4A9A6163
:103968007B693E4A1A654FF48020012121F0E2FD6F
:1039780002233B7303237B730023BB73BB7803F0E1
:103988000103002B01D0022300E00123FB73BB7865
:1039980003F00803002B21D04FF48063BB60BB7891
:1039A80003F00103002B14BF00230123DBB2BB7318
:1039B8002B480A21072221F07FFA07F1080328483B
:1039C800194621F0ABF9BB7803F00103002B2BD18A
:1039D80023484FF4806121F053FA25E0FB7803F087
:1039E8000203002B0DD04FF48063BB601C480A21F2
:1039F800072221F061FA07F108031948194621F056
:103A08008DF9FB7803F00103002B0DD04FF4006310
:103A1800BB6013480B21072221F04EFA07F1080377
:103A28000F48194621F07AF927233B7401237B7448
:103A38000023BB740123FB7407F11003184622F01E
:103A4800E7FF7B6918461837BD4680BD680A002025
:103A5800ECDB0208BC0E0020BC0F00200048004030
:103A68000004004880B582B000AF78607B685B6B6B
:103A78001846002123F060FC7B685A6A7B689B6AC1
:103A88009A4203D07868FFF7D7FC03E07B680122ED
:103A980083F844200837BD4680BD00BF80B582B09A
:103AA80000AF084B7B604FF4005023F0DFFC064862
:103AB800002123F041FC7868FFF7D4FF0837BD46A2
:103AC80080BD00BFC00900204400024090B585B009
:103AD80000AF78607B681B6DDB69FB607B681B6BE4
:103AE800002B28D1FB6803F02003002B23D07B6830
:103AF800DB6A002B08D07B68DB6A7A68126D928CCF
:103B080092B21046984716E07B685A697B68DB6971
:103B1800581C7968C86113447A68126D928C92B205
:103B2800D2B21A707B68DA697B68DB689A4202D382
:103B38007B680022DA617B685B6B002B2BD1FB680A
:103B480003F08003002B26D07B689A6A7B685B6A47
:103B58009A4219D07B681A6D7B6899697B689B6A61
:103B68005C1C786884620B441B78DBB210461946EB
:103B780023F0A2F87B689A6A7B681B699A420AD389
:103B88007B6800229A6206E07B681B6D184609492B
:103B9800002223F0DDF8FB6803F00803002B05D0B2
:103BA8007B681B6D1846044923F014F91437BD4689
:103BB80090BD00BF070107000003030080B582B075
:103BC80000AF044B7B607868FFF780FF0837BD467D
:103BD80080BD00BFC009002080B582B000AF044B93
:103BE8007B607868FFF772FF0837BD4680BD00BF6D
:103BF800140A002080B582B000AF044B7B6078685F
:103C0800FFF764FF0837BD4680BD00BF680A002083
:103C180080B584B000AF78607B689B88BB817B6887
:103C28001B7BBB730223FB737B681B68184601214F
:103C380021F044FC7B689A6807F10C03104619468A
:103C4800FEF70EF91037BD4680BD00BF80B400AF47
:103C5800034B044ADA60BD465DF8047B704700BF39
:103C680000ED00E00400FA0580B500AF024B034AFE
:103C78001A60FFF7EBFF80BDFC9F0020EFBEADDEB2
:103C880080B582B000AF4FF4FC00012121F016FC92
:103C98000323BB7141F6FF73BB803B1D4FF090407F
:103CA8001946FEF7DDF84FF6FF73BB803B1D0D4844
:103CB8001946FEF7D5F83B1D0B481946FEF7D0F814
:103CC8003B1D0A481946FEF7CBF83B1D0848194624
:103CD800FEF7C6F83B1D07481946FEF7C1F8083736
:103CE800BD4680BD0004004800080048000C00489C
:103CF800001000480014004880B485B000AF786018
:103D08007B681B78FB60FB6883F311881437BD461A
:103D18005DF8047B704700BF80B485B000AF0346F0
:103D2800FB71FB79FB60FB6883F31288012318465B
:103D38001437BD465DF8047B704700BF80B483B07C
:103D480000AF78607B689B0A0F4A934211D00E4AF5
:103D5800934203D8B3F5801F09D00EE00B4A934273
:103D680003D00B4A934206D007E0002306E0012364
:103D780004E0022302E0032300E0FE2318460C3788
:103D8800BD465DF8047B7047010010004B00100031
:103D98005000100080B483B000AF0346FB80FB885E
:103DA8009B089BB2DBB218460C37BD465DF8047B16
:103DB800704700BF80B584B000AF0346FB71FB7944
:103DC8003B7301237B730023BB730123FB7307F150
:103DD8000C03184622F01CFE1037BD4680BD00BFFC
:103DE80080B586B000AF786013460A467A807B704B
:103DF80007F10C03184622F0F5F87B88013B9BB2CB
:103E08003B610C4B1A687B780B4901FB03F3B2FB4F
:103E1800F3F39BB2013B9BB2BB810023BB8200231F
:103E2800FB8107F10C037868194622F065F818370A
:103E3800BD4680BD2800002040420F0080B582B0FA
:103E480000AF786013460A467A807B707B681968F1
:103E58007A887B78084611461A46FFF7C1FF7B68C7
:103E68001B681846012122F0E5F87B68DB7A1846C2
:103E7800FFF7A0FF7B68DB7A1B2B03D11920FFF724
:103E880099FF00BF0837BD4680BD00BF80B483B02E
:103E980000AF786039607B683A681A600C37BD46B5
:103EA8005DF8047B704700BF80B483B000AF7860D2
:103EB80039607B683A681A607B6800225A600C3760
:103EC800BD465DF8047B704780B588B000AF786068
:103ED80039607B682033FB61EFF312833B613B69F8
:103EE800DBB2FB735020FFF717FF0346FB7622E097
:103EF80000237B6117E07B687A69043253F822302B
:103F0800002B0DD07B687A69043253F82220FB69B4
:103F18001A607B687A69043253F822300433FB61F3
:103F28007B6901337B617B69032BE4DDFB6900223C
:103F38001A600023FB76FB7E002BD9D107F10F0313
:103F48001846FFF7D9FE7B681B6A002B0CBF0023BD
:103F58000123DBB2386801211A4622F0F1FB203731
:103F6800BD4680BD80B586B000AFF860B9607A60A4
:103F7800FB681B681846FFF7E1FE0346FB75FB7DEF
:103F8800032B00D94EE0FB689B7A1846FFF702FF27
:103F98000346BB75BB68002B0ED1FB681A68FB682B
:103FA8009B7A9B08DBB2022101FA03F39BB210460D
:103FB8001946002222F0C4FBFA7DB87D1B4913463E
:103FC8009B0013445B000344BA6841F82320FA7D40
:103FD800B87D164913469B0013445B000344043321
:103FE8007A6841F82320BB68002B0ED0FB681A685A
:103FF800FB689B7A9B08DBB2022101FA03F39BB2B0
:1040080010461946012222F09BFBFA7D13469B00BD
:104018001344DB00054A1A44FB681B68104619461E
:10402800FFF752FF1837BD4680BD00BFFC2E0020A9
:1040380080B582B000AF78600B46FB707B6819686A
:104048007B689B7A9B08DBB2022202FA03F39AB2DE
:10405800FB78084611461A4622F072FB0837BD461F
:1040680080BD00BF80B582B000AF78607B681A68F9
:104078007B689B7A9B08DBB2022101FA03F39BB2AF
:104088001046194622F07CFB0837BD4680BD00BFAC
:1040980080B588B000AF786039607B681A697B6842
:1040A800DB681340BB6174E0BB69B3FA83F33B611F
:1040B8003B694FF0004222FA03F3DB43FB607B6865
:1040C800FA681A61BA69FB681340BB613B691B3B1C
:1040D800042B5ED801A252F823F000BF83410008E8
:1040E8006B410008534100083B410008F9400008B3
:1040F8003B685B6A002B08D03B685B6A9BB2013B5C
:10410800FB833B6800225A6202E07B68DB6AFB8320
:104118003B681B6A7B6108E07B691B68FA8B7869DE
:10412800114698477B695B687B617B69002BF3D1FB
:104138002FE03B681B681B683A6811687A68526B05
:1041480092B208461146984723E03B685B681B68B3
:104158003A6851687A68926B92B208461146984755
:1041680017E03B689B681B683A6891687A68D26B6D
:1041780092B20846114698470BE03B68DB681B681B
:104188003A68D1687A68126C92B208461146984724
:1041980000BFBB69002B87D12037BD4680BD00BF5B
:1041A80080B500AF02480349FFF772FF80BD00BF2A
:1041B800002C0140FC2E002080B500AF02480349C6
:1041C800FFF766FF80BD00BF002C0140FC2E0020D9
:1041D80080B500AF4FF080400149FFF759FF80BD1F
:1041E800242F002080B500AF02480349FFF750FF95
:1041F80080BD00BF000400404C2F002080B500AFF8
:1042080002480349FFF744FF80BD00BF004001405A
:10421800742F002080B584B000AF26480021A0226A
:1042280027F04CFB0320012121F084F94FF484305E
:10423800012121F061F94FF42020012121F03EF9FC
:104248000023FB7313E0FB7B1A011B4B13443B60F9
:104258003B6859683B689B7B1A463B68DB7B084692
:1042680011461A4620F028FEFB7B0133FB73FB7BCB
:104278000A2BE8D90023BB6007E0104ABB68134447
:1042880000221A70BB680133BB60BB680A2BF4DDDF
:1042980000237B6007E00A4A7B681344FF221A70F8
:1042A8007B6801337B607B68032BF4DD1037BD46E8
:1042B80080BD00BFFC2E002004DC0208EC2E00208C
:1042C800F82E002080B400AFBD465DF8047B70472F
:1042D80080B586B000AF78607868FFF72FFD034699
:1042E800BB75EFF312833B613B69DBB2FB73502074
:1042F800FFF712FD0346FB7513E0BA7D7B685B6A26
:10430800591C0D4813469B001344DB00034420331B
:1043180059607B685B6943F001027B685A6100233E
:10432800FB75FB7D002BE8D107F10F031846FFF75B
:10433800E3FC1837BD4680BDFC2E002080B582B056
:1043480000AF02460B46FA71BB714FF09040102146
:1043580020F0A4FDFB7908481946FDF76BFCBB79F2
:1043680005481946FDF766FC4FF09040102120F0F3
:1043780087FD0837BD4680BD0030014080B584B058
:1043880000AF0346B9607A60FB734FF0904010218C
:1043980020F084FDFB7B63F07F03DBB208481946FD
:1043A800FDF748FC0648B96800227B68FDF782FCE7
:1043B8004FF09040102120F063FD1037BD4680BDBE
:1043C8000030014080B582B000AF144B1B78002B41
:1043D80020D14FF40030012121F070F810233B6008
:1043E80001233B7103237B710023BB710023FB7105
:1043F8003B464FF09040194620F090FC4FF090401B
:10440800102120F03DFD06480421FDF7B5FC034BC3
:1044180001221A700837BD4680BD00BF6821002000
:104428000030014080B582B000AFFFF7CBFFFB1D25
:10443800752019460122FFF7A1FFFB79702B01D0E7
:10444800002300E0012318460837BD4680BD00BFA1
:1044580080B582B000AF7860FFF7E4FF034683F0D1
:104468000103DBB2002B01D0002306E07B68054A7C
:104478001A607B68044A5A60012318460837BD460B
:1044880080BD00BF394500085145000880B582B09D
:1044980000AF78600B467B80FFF7C4FF034683F0CC
:1044A8000103DBB2002B01D0002332E07B681B4AFA
:1044B8001A607B681A4A5A607B681A4ADA607B6815
:1044C800194A1A617B88BB2B03D9184B01221A7031
:1044D8001EE07B88612B03D9144B02221A7017E067
:1044E8007B88292B03D9114B03221A7010E07B8893
:1044F800132B03D90D4B04221A7009E07B88092B72
:1045080003D90A4B05221A7002E0084B06221A70DA
:10451800012318460837BD4680BD00BFA1450008E5
:10452800F54500084546000890C1793D0000002087
:1045380080B400AF034B4FF480521A80BD465DF83B
:10454800047B70474C00002080B584B000AF7860D1
:1045580007F108033B2019460622FFF70FFF3B7AB5
:104568001B029AB27B7A13439AB27B681A807B68E3
:104578000233BA7A120291B2FA7A0A4392B21A80D4
:104588007B6804333A7B120291B27A7B0A4392B277
:104598001A801037BD4680BD80B500AF6B208021E2
:1045A800FFF7CCFE642015F0D5FA6B200021FFF749
:1045B800C5FE642015F0CEFA6B200121FFF7BEFE80
:1045C8001B201821FFF7BAFE1C201021FFF7B6FEAA
:1045D800054B1B781A201946FFF7B0FE1920002159
:1045E800FFF7ACFE80BD00BF0000002080B584B09E
:1045F80000AF786007F10803432019460622FFF749
:10460800BDFE3B7A1B029AB27B7A13439AB27B684F
:104618001A807B680233BA7A120291B2FA7A0A4394
:1046280092B21A807B6804333A7B120291B27A7B89
:104638000A4392B21A801037BD4680BD80B584B057
:1046480000AF786007F10F03382019460122FFF701
:1046580095FE052015F06AFAFB7B002B03D07B68DA
:1046680001221A7002E07B6800221A701037BD46DA
:1046780080BD00BF80B586B002AF78600023FB72B2
:1046880000F05CF8142015F065FA07F10A0301221E
:1046980000927720A0210122FDF73EF90346FB7224
:1046A800FB7A83F00103DBB2002B01D0002334E056
:1046B8000023FB600EE0FB68DBB25BB2184600F03B
:1046C8004BF803461946174BFA6823F81210FB6893
:1046D8000133FB60FB68072BEDDD124800F060F842
:1046E8000346002B01D0002317E07B6842F21072CA
:1046F8001A807B6842F210725A807B680A4A5A60B4
:104708007B680A4A9A607B68094ADA607B68094ACA
:104718001A617B68084A5A61012318461037BD465A
:1047280080BD00BFC4100020CD480008ED48000837
:1047380001490008214900083549000880B500AF43
:1047480077201E2101220123FDF714F84FF42F6072
:1047580015F0ECF980BD00BF80B586B002AF034606
:10476800FB7100233B7300237B7397F907305033A9
:10477800DBB25B00DAB207F10C030121009177206C
:1047880011460222FDF7C8F83B7B1B029AB27B7BDD
:1047980013439BB29BB218461037BD4680BD00BF7D
:1047A80080B487B000AF78600023FB607B680E336D
:1047B8001B88DBB203F00F03BB727B680E337A6889
:1047C8000E32128822F0FF0292B21A800123FB7285
:1047D80000237B613CE07B695B105B007A681344D3
:1047E8001B88002B01D00023FB727B6903F00103B7
:1047F800002B0AD07B695B105B007A6813441B8826
:10480800DBB2FA685340FB600AE07B695B105B002F
:104818007A6813441B881B0A9BB2FA685340FB60F2
:1048280008233B610EE0FB6803F40043002B03D030
:10483800FB6883F4C053FB60FB685B00FB603B696B
:10484800013B3B613B69002BEDDC7B6901337B61FC
:104858007B690F2BBFDD7B680E337A680E321188B7
:10486800BA7A92B20A4392B21A80FB7A83F00103B1
:10487800DBB2002B08D0BA7AFB681B0B03F00F03DE
:104888009A4201D1002300E0FF235BB218461C378F
:10489800BD465DF8047B704780B584B002AF3B1D10
:1048A80001220092772000210322FDF735F83B7999
:1048B8001A047B791B021A43BB791343184608373D
:1048C800BD4680BD80B500AF054B1B785033DBB2C9
:1048D8007720194601220123FCF74CFF80BD00BF59
:1048E8000100002080B500AFFFF7D6FF0246014B5C
:1048F8001A6080BDBC10002080B500AF054B1B7846
:104908004033DBB27720194601220123FCF732FF3E
:1049180080BD00BF0100002080B500AFFFF7BCFFDD
:104928000246014B1A6080BDC01000202DE9B00F6F
:10493800A3B000AF78653965A84B1B6818464FF0DF
:104948000001A74B5B899AB24FF000031D0245EAAC
:104958001265140202460B46121B63EB0503C7E9F6
:104968001A239F4B9B889AB24FF000034FEA034BE0
:104978004BEA124B4FEA024A994B1B899AB24FF005
:104988000003B96E03FB01F0F96E02FB01F1084464
:10499800B96EA1FB0223C1180B464FEAD21848EAA8
:1049A80043684FEAE3191AEB08024BEB0903C7E91E
:1049B8001E238B4B5B889AB24FF00003D803F86430
:1049C800F96C41EA5241F964D403BC64844BDB8836
:1049D8009AB24FF00003B96E03FB01F0F96E02FBC7
:1049E80001F10844B96EA1FB0223C1180B46150A50
:1049F8003D64D7F840C04CEA036CC7F840C01812B1
:104A08007864D7E91223D7E91045121943EB050357
:104A1800C7E91C23724B9B899AB24FF00003B96E09
:104A280003FB01F0F96E02FB01F10844B96EA1FB2A
:104A38000223C1180B46D50DBD63D7F838C04CEA20
:104A4800432CC7F838C0D815F863D7E90E2312F5F8
:104A5800FA6243F10003C7E92023D7E9200140F2B5
:104A6800CF724FF00003824273EB0104C0F2DE8084
:104A7800D7E92023B2F5FA6243F1FF33C7E91823D7
:104A88007A6E3B6E03FB02F17A6E3B6E03FB02F318
:104A9800CC183A6E3B6EA2FB030163181946024616
:104AA8000B469D007D61D7F814C04CEA927CC7F88C
:104AB80014C094003C61D7E90423121843EB0103A6
:104AC800C7E91823D7E9182359104FEA3200D7E964
:104AD8001E23121A63EB0103C7E91E23D7E9182323
:104AE80095083D63D7F830C04CEA837CC7F830C0DE
:104AF80098107863D7E91C23D7E90C45121B63EBA0
:104B08000503C7E91C23D7E92001364A4FF0FF33D4
:104B1800904271EB030567DAD7E9200140F2DC52D5
:104B28004FF00003121843EB0103C7E918237B6E0B
:104B38003A6E02FB03F27B6E396E01FB03F3D11868
:104B48003A6E3B6EA2FB032319440B46C7E91823B0
:104B5800C7E91823D7E918014FF000024FF0000306
:104B6800121A63EB01034FEAC30CC7F80CC0FC68C8
:104B780044EA5274FC60D500BD60D7E902231218DC
:104B880043EB0103D7E91E01121843EB0103C7E900
:104B98001E23D7E9180102460B46921843EB03037C
:104BA8004FEA830CC7F804C07C6844EA92747C60BE
:104BB80095003D60D7E90045121943EB050312182B
:104BC80043EB01035B104FEA3202D7E91C01821A5A
:104BD80061EB0303C7E91C2306E000BFBC100020FB
:104BE800C410002024FAFFFFFB6EBA6E02FB03F22A
:104BF800FB6EB96E01FB03F3D118BA6EBB6EA2FB54
:104C0800032319440B46D50FBD62D7F828C04CEAD8
:104C1800430CC7F828C0D817F862D7E92023D7E98A
:104C28000A45121B63EB0503C7E920231F4B1B68CA
:104C38001A464FF00003396F03FB01F0796F02FB4E
:104C480001F10144386FA0FB022319440B46550DAE
:104C58003D62D7F820C04CEAC32CC7F820C05815CD
:104C68007862D7E91E23D7E90845A21A65EB030342
:104C7800D50BBD61D7F818C04CEA434CC7F818C02B
:104C8800D813F861BB69FB657B6D002B02D0FA6D08
:104C98007B6D1A603B6D002B03D0D7F880203B6DED
:104CA8001A608C37BD46BDE8B00F7047C0100020B1
:104CB80080B586B002AF78600023FB730023BB7316
:104CC80007F10E03012200920C2000210122FCF7BB
:104CD80023FE0346FB73FB7B83F00103DBB2002B4F
:104CE80002D1BB7B482B01D0002306E07B68054A34
:104CF8001A607B68044A5A60012318461037BD467B
:104D080080BD00BF154D0008B54D000880B584B0C2
:104D180002AF0C200A2100220123FCF72BFD0346D9
:104D2800FB71142014F016FF0C200A210F22012316
:104D3800FCF720FD0346FB710A2014F00BFF3B1D16
:104D4800012200920C2010210322FCF7E5FD034606
:104D5800FB710A2014F0FEFE0C200A210022012318
:104D6800FCF708FD0346FB710A2014F0F3FEFB1C58
:104D7800012200920C2002210122FCF7CDFD0346FE
:104D8800FB71FB1C012200920C2009210122FCF777
:104D9800C3FD0346FB710C200A2101220123FCF705
:104DA800E9FC0346FB710837BD4680BD80B586B077
:104DB80002AF786007F10E03012200920C20022155
:104DC8000122FCF7A9FD0346FB73FB7B83F001037B
:104DD800DBB2002B04D1BB7B03F00103002B00D115
:104DE8005FE007F10803012200920C20032106224C
:104DF800FCF792FD0346FB7307F10E0301220092B4
:104E08000C2009210122FCF787FD0346FB73FB7B7D
:104E180083F00103DBB2002B00D042E0BB7B03F040
:104E28000403002B00D03CE0BB7B03F00803002BFD
:104E380000D036E07B7A1B029AB23B7A13439BB2CE
:104E48009BB21A469203D31A9B009BB29AB27B6814
:104E58001A807B689A1CFB7A1B0299B2BB7A0B43B7
:104E68009BB29BB219468903CB1A9B009BB29BB29B
:104E780013807B681A1D7B7B1B0299B23B7B0B431B
:104E88009BB29BB219468903CB1A9B009BB29BB27B
:104E980013800C200A2101220123FCF76BFC034636
:104EA800FB731037BD4680BD80B483B000AF786017
:104EB8000B467B807B689B8A9AB27B8853409AB268
:104EC8007B689A820C37BD465DF8047B704700BF4B
:104ED80080B400AFBD465DF8047B704780B586B0EE
:104EE80002AF786039600023FB730023BB73124B59
:104EF8003A681A6007F10E03012200921E200A2167
:104F08000122FCF709FD0346FB73FB7B83F00103D9
:104F1800DBB2002B02D1BB7B482B01D0002306E07B
:104F28007B68064A1A607B68054A5A60012318465E
:104F38001037BD4680BD00BFD41000204D4F00087B
:104F4800A151000880B588B000AF0023BB600023E2
:104F5800FB6000233B610123FB768A4B1B68002B17
:104F68001BD0884B1B681B68002B06D0854B1B6821
:104F78001B681846012120F0A1FA824B1B681B8987
:104F8800BB800223FB710023BB717E4B1B68DA6870
:104F98003B1D10461946FCF763FF322014F0DAFD7A
:104FA8001E20002111220123FCF7E4FB1E20012111
:104FB80060220123FCF7DEFB642014F0CBFD07F12F
:104FC8001403184600F0E8F80023FB613AE01E20BD
:104FD800022101220123FCF7CDFB322014F0BAFD97
:104FE80007F11403184600F0D7F8BA68BB8A1BB259
:104FF8001344BB60FA68FB8A1BB21344FB603A692E
:105008003B8B1BB213443B613A8BFB8A12B21BB237
:105018009A42B8BF13469AB2BB8A12B21BB29A42DE
:10502800B8BF13469BB21BB213F5805F02DC0023A6
:10503800FB760AE054484FF48041FFF735FFFB69DF
:105048000133FB61FB69092BC1DD1E2000211222FF
:105058000123FCF78FFB0023FB613AE01E200221AD
:1050680001220123FCF786FB322014F073FD07F1BF
:105078001403184600F090F8BA68BB8A1BB2D31A1A
:10508800BB60FA68FB8A1BB2D31AFB603A693B8B98
:105098001BB2D31A3B613A8BFB8A12B21BB29A42FB
:1050A800B8BF13469AB2BB8A12B21BB29A42B8BFB3
:1050B80013469BB21BB213F5805F02DC0023FB761C
:1050C8000AE031484FF48041FFF7EEFEFB690133F7
:1050D800FB61FB69092BC1DDBB6807EE103AF8EEEE
:1050E800C77A9FED2A7AC7EE277AF0EEE77A284B3F
:1050F800C3ED007AFB6807EE103AF8EEC77A9FED29
:10510800237AC7EE277AF0EEE77A214BC3ED017ACE
:105118003B6907EE103AF8EEC77A9FED1E7AC7EEA4
:10512800277AF0EEE77A1A4BC3ED027A1E200021A7
:1051380070220123FCF71EFB1E20012120220123DF
:10514800FCF718FB1E20022100220123FCF712FBAA
:10515800642014F0FFFCFB7E83F00103DBB2002B1C
:105168000BD00B4B4FF07E521A60094B4FF07E521A
:105178005A60074B4FF07E529A60FFF7A9FE20371E
:10518800BD4680BDD41000200008004800406F468E
:105198000400002001C05E4680B586B002AF78608A
:1051A80007F10803012200921E2003210622FCF7C2
:1051B800B3FB3B7A1B029AB27B7A13439BB21BB2B6
:1051C80007EE903AB8EEE77A1F4BD3ED007A67EE18
:1051D800277AFDEEE77A17EE903A9AB27B681A8042
:1051E8007B680433BA7A120291B2FA7A0A4392B20D
:1051F80012B207EE902AB8EEE77A134AD2ED027A95
:1052080067EE277AFDEEE77A17EE902A92B21A80B7
:105218007B6802333A7B120291B27A7B0A4392B2DC
:1052280012B207EE902AB8EEE77A074AD2ED017A71
:1052380067EE277AFDEEE77A17EE902A92B21A8087
:105248001037BD4680BD00BF0400002080B483B085
:1052580000AF786039600C37BD465DF8047B704755
:1052680080B483B000AF78600B46FB700C37BD4646
:105278005DF8047B704700BF80B483B000AF7860EE
:10528800012318460C37BD465DF8047B704700BF04
:1052980080B483B000AF7860074B1B68FF2B01D93F
:1052A800FF2302E0044B1B68DBB218460C37BD46EF
:1052B8005DF8047B704700BFC443002080B584B00C
:1052C80000AF78600023FB600EE007F10802FB687E
:1052D8001A44FB68C3F101031046194623F09AFFEC
:1052E8000346FA681344FB60FB68002BEDD03B7A59
:1052F80018461037BD4680BD80B584B000AF7860D1
:105308000B46FB7014F0DEFBF86023F0DDFF03466C
:10531800002B04D023F0C8FF0346002B00D10FE078
:10532800FB1C1846012123F043FFB860BB68002B23
:1053380006D114F0C7FB0246FB68D31A312BEFD90C
:105348001037BD4680BD00BF80B582B000AF23F0E6
:1053580017FE23F077FE23F09BFE23F089FD054B13
:105368007B607B68044A1A607B6818460837BD462C
:1053780080BD00BFD8100020B4DC020880B483B020
:1053880000AF78600B467B807A887B689A610C371F
:10539800BD465DF8047B704780B483B000AF786089
:1053A8000B467B807B687A881A850C37BD465DF88A
:1053B800047B704780B582B000AF78600B46FB7005
:1053C800FB78002B0AD07B681B6B5A687B681B6BC9
:1053D8001B8910461946FFF7D1FF09E07B681B6B54
:1053E8005A687B681B6B1B8910461946FFF7D4FF68
:1053F8000837BD4680BD00BF80B584B000AF786077
:1054080013460A467A807B707B88BB817B78BB73A6
:105418000223FB7307F10C0378681946FCF720FD9B
:105428001037BD4680BD00BF80B582B000AF786040
:105438007B685A687B681B89104619460622FFF765
:10544800DBFF7868FEF70EFE78680121FEF7F0FDB5
:105458000837BD4680BD00BF80B483B000AF786018
:105468007A684FF6FF739A4294BF00230123DBB298
:1054780018460C37BD465DF8047B704780B588B088
:1054880000AFF8600B467A60FB72274B1B685B081D
:10549800FB61FB681B68184620F08AFCFA697B6888
:1054A800B2FBF3F3BB61B869FFF7D6FF0346002BE5
:1054B80005D0FB69012B02D9FB695B08FB61B86960
:1054C800FFF7CAFF0346002BE8D1FA69174BA3FB85
:1054D80002139B0CFB75BB699AB2FB7DF8681146F9
:1054E8001A46FEF7ABFCFB7A40F6540202FB03F3C4
:1054F80003F648020E4B1344043318460D49FEF7D1
:10550800C5FCFB7A40F6540202FB03F303F648029B
:10551800074B13440433F86819460022FEF722FDAE
:105528002037BD4680BD00BF2800002083DE1B4316
:10553800A02F00201D5D000880B584B000AF786002
:1055480013460A46FA70BB70204B1A68204BA3FB1F
:105558000213DB0CFB737B681B68184620F028FCE1
:10556800FB7B78684FF6FF711A46FEF767FC7B688D
:1055780019687B689A7ABB7803F00103002B01D085
:10558800002300E00223084611461A4600F05EF8A0
:10559800FB7840F6540202FB03F303F505620D4B5A
:1055A800134418460C49FEF771FCFB7840F6540288
:1055B80002FB03F303F50562064B134478681946AA
:1055C8000022FEF7CFFC1037BD4680BD2800002022
:1055D80083DE1B43A02F0020495D000880B584B0FE
:1055E80000AF78600B46FB702223FB607B681B686A
:1055F800184620F0DDFBFB689BB27868194601224B
:10560800FEF71CFCFB7840F6540202FB03F303F69A
:1056180048020C4B1344043318460B49FEF736FC7A
:10562800FB7840F6540202FB03F303F64802054BED
:1056380013440433786819460022FEF793FC1037A8
:10564800BD4680BDA02F0020F15E000880B586B061
:1056580000AF786013460A46FA703B8007F10C03E6
:10566800184620F0D7FFFB789BB2BB813B88FB81B3
:1056780001233B8200237B820023BB8207F10C03BA
:105688007868194620F072FF1837BD4680BD00BF04
:1056980080B582B000AF78600B46FB707B681B68F2
:1056A800184620F085FB78684FF6FF710122FEF757
:1056B800C5FB7B681A687B689B7A104619460222EC
:1056C800FFF7C4FFFB7840F6540202FB03F303F52F
:1056D80005620B4B134418460A49FEF7D7FBFB78C3
:1056E80040F6540202FB03F303F50562044B13442E
:1056F800786819460022FEF735FC0837BD4680BD9C
:10570800A02F0020615F000880B582B000AF7860EC
:105718007B685A687B681B89104619460122FFF787
:105728006BFE78680021FEF783FC0837BD4680BD14
:1057380080B483B000AF78607B684FF48062DA6031
:105748007B6803F134027B685A617B6800221A6225
:105758007B680022DA617B6803F587627B689A615F
:105768007B684FF480621A617B6800229A627B68CA
:1057780000225A620C37BD465DF8047B704700BFB3
:1057880080B586B000AFB9607B600346FB731346F3
:10579800BB81FB7B40F6540202FB03F23B4B1344F4
:1057A8007B61BB891A013A4B1A447B691A637B698E
:1057B800374AC3F834247B69364A1A607B697A68A9
:1057C8009A607B6903225A717B6997F820209A7145
:1057D8007B69BA68DA627869FFF7AAFF7B690022F9
:1057E80083F83C287B69012283F838287B690022EA
:1057F80083F839287B690022A3F846287B690022B0
:10580800A3F848287B690022A3F844287B69FA7B1F
:1058180083F84A287B691B6B1846FFF705FE7869F1
:105828000121FFF7C7FD322014F094F997F82430CE
:10583800002B0ED17B69D3F83424FB7B1046194624
:10584800FFF7CCFE7B691A6BFB7B10461946FFF706
:105858001FFF97F82430012B12D17B69D3F8342429
:10586800FB7B104619467A68FFF708FE7B69196BBF
:10587800FA7B97F82030084611461A46FFF75CFE77
:105888007B6918461837BD4680BD00BFA02F002091
:1058980004DC0208CCDC020880B584B000AF786074
:1058A8007B6893F83D38002B00D0CDE0684B1B781F
:1058B800002B03D178680121FFF77CFD7B6893F802
:1058C8003C38002B4CD1786800F072FC0346002B62
:1058D80003D05F4B00221A70B6E05D4B1B78022B99
:1058E80018D85B4B1B78002B01D1FF23FB73584B57
:1058F8001B78012B01D1FF23FB73554B1B78022B1F
:1059080001D17F23FB73524B1B780133DAB2504B22
:105918001A7012E07B689A697B689B6A581C7968E0
:10592800886213441B78FB737B689A6A7B681B69DF
:105938009A4202D37B6800229A62FB7B9AB27B6808
:10594800A3F840287B68082283F83E287B68012258
:1059580083F83C287B681B6B1846FFF7D5FE73E07D
:105968007B6893F83E38002B5FD07B68B3F84038EB
:10597800DBB203F00103BB73BB7B002B18D0354BA4
:105988001B78002B03D0334B1B78012B03D178688D
:105998000121FFF70FFD2F4B1B78022B03D02D4B56
:1059A8001B78032B1CD178680021FFF703FD17E053
:1059B800284B1B78002B03D0264B1B78022B03D1D6
:1059C80078680121FFF7F6FC224B1B78012B03D0E6
:1059D800204B1B78032B03D178680021FFF7EAFCE2
:1059E8001C4B1B780133DAB21A4B1A70194B1B780F
:1059F800032B19D97B68B3F840385B089AB27B68E7
:105A0800A3F840287B6893F83E38DBB2013BDAB252
:105A18007B6883F83E280F4B00221A707B6893F846
:105A28003E38002B00D14EE70EE0786800F0C0FB4E
:105A38000346002B08D07B68002283F83C287B684B
:105A48001B6B1846FFF7F0FC1037BD4680BD00BF42
:105A5800692100206A21002080B584B000AF7860F9
:105A68007B6893F83D38002B00D068E07B6893F89A
:105A78003C38002B31D1786800F09AFB0346002BA4
:105A880000D05CE07B689A697B689B6A581C7968DF
:105A9800886213441B78FB737B689A6A7B681B696E
:105AA8009A4202D37B6800229A62FB7B5B009BB21E
:105AB80043F400739BB29AB27B68A3F840287B68D2
:105AC8000A2283F83E287B68012283F83C287B68F9
