:020000040800F2
:1000000000500020956B010849220108BD2201081B
:100010004722010845220108432201080000000090
:100020000000000000000000000000004122010864
:100030003F220108000000003D220108952201082E
:10004000416C0108416C0108416C0108416C0108D8
:10005000416C0108416C01085954010855540108CC
:10006000416C0108F9540108416C0108416C010818
:10007000416C0108416C010875540108416C01088C
:10008000B1540108416C0108416C0108416C010840
:10009000B11A0108416C0108416C01085154010872
:1000A000416C010831540108416C010841540108B8
:1000B000215401081154010801540108F3540108A6
:1000C000E7540108ED540108E1540108416C0108AE
:1000D000416C010869540108416C01085D54010834
:1000E000A9220108416C0108255501080000000003
:1000F0000000000000000000000000000000000000
:0C01000000000000000000005FF808F1A3
:100110002DE9F04F684B694EA1B033600023736046
:1001200009F00CFB18B911F0EFF809F02BFB0EF0F9
:1001300077FF634B634C1A78634F42F001021A70E9
:100140000023089309930A934FF4E0130B93236859
:10015000397B43F480332360A36943F01003A36128
:10016000236803F400330993089B01330893099B28
:100170001BB9089BB3F5A06FF2D12268514B12F462
:10018000003201D0022315E0186840F00100186029
:100190000892236803F002030993089B0133089334
:1001A000099B1BB9089BB3F5A06FF2D123689D078B
:1001B00039D501230A93454B45481A6842F010028D
:1001C0001A601A6822F003021A601A6842F00202EA
:1001D0001A606368636063686360636843F48063A4
:1001E00063603C4B1A68043B22F070425A603A4A02
:1001F0001060606820F47C106060586840F0004037
:100200005860D86820F40040D8609B68180449BF43
:10021000324B4FF4E01313604FF480130B930A9B9F
:10022000012B01D117E0FEE7022B18D169B10B9B1E
:10023000B3F5801F02D14FF4A01305E00B9BB3F57B
:10024000E01F02D14FF400130B9361680B9B0B432B
:1002500043F4803302E0636843F46013636023680F
:1002600043F0807323602168164B8901FBD55968E0
:1002700021F003015960596841F002015960636837
:10028000104903F00C03082BF9D14868144B00F017
:100290000C00042803D0082804D00D4A00E012689E
:1002A0001A6028E048684D68C0F38340ED0300F110
:1002B000020019D40B4A1CE05F9D00087001002069
:1002C000FC3A002000100240EC1200200020024006
:1002D00000127A000410014000000020001BB7004B
:1002E000F400002000093D00496812688D0348BFF2
:1002F0005208504318606268DFF890A1C2F30312FD
:10030000524492F80CB01A68DFF8889122FA0BFB7D
:10031000C3F800B0524B20ADC9F80830514B4FF034
:100320000008C9F80C30A3694F4843F00103A361EA
:10033000636AB360636A43F080736362A36943F0E6
:100340001C03A3614FF6FF7325F82C3D29468DF859
:10035000568014F09AF9454A29461046039214F043
:1003600094F94348294614F090F9424B28465968BD
:1003700041F00071596014F08FFD159B3E49B3FBAD
:10038000F1F3F3603D4B4FF47A71C3F80080BBFB8F
:10039000F1FB3B4B0BF1FF315960F02189F8231041
:1003A0000721C3F808801960BB68DFF8EC90039A56
:1003B000C9F800300AF11C0393E80300A36985E83B
:1003C000030043F00803A36108231361159816A9DD
:1003D00014F05BF9D9F80030DFF8B4B0180761D534
:1003E0009BF89031012B5DD8264B9BF891219B689F
:1003F00013F0805A00F05A854346002B52D0224B0E
:10040000DFF86880186829461590404614F03DF9D9
:100410004FF40063C8F810303C2009F03EFC4FF068
:10042000000B97F891319B4538DADFF840800822BD
:100430004FF40063C8F810207820C8F814300392F5
:10044000029309F01FFC039A029BC8F8142078203D
:10045000C8F8103009F016FC0BF1010BE1E700BF02
:10046000000000080005FA0500080140000C0140EA
:10047000001001400000014040420F00F83A002007
:1004800010E000E07001002094A6010870A60108A9
:10049000EC12002000ED00E028110020BAF1000F5E
:1004A00000F00D85642009F0F8FBA022BE48002171
:1004B00018F026FCBD4A536823F4406343F0706390
:1004C00043F400635360E369002243F00703E361F0
:1004D000A36943F4006343F00C03A361B44B4FF0F2
:1004E000000A03F1100102F801A001320C2AF5D133
:1004F000FF221A775A779A77DA77AE4BAE4AD9F855
:1005000000401A605146AD48302218F0F9FB04F063
:100510004008042351460C20A94A484311F802E040
:10052000A64A00F802E0B8F1000F08D1BEF11E0F94
:1005300005D14FF0FF0E013B00F802E0DBB20131C4
:100540000429E8D19F4A97F805A013709E4A9F4B53
:100550003262C03272629E4A83F800A002EBCA0285
:10056000934B5278A10648BF01229A620023994A10
:1005700040F2DC5199520233102BF8D10EA8002121
:100580001C2218F0BDFB14F400731DBF9248149593
:1005900006900693BAF10E0F04D00AF0EF0ABAF1F2
:1005A000080F02D101228DF84A20C4F340028DF8D1
:1005B0003E20C4F3403218F100088DF83820C4F30F
:1005C000C03218BF4FF001088DF83B2014F40062D0
:1005D0008DF8408007D097F88421B2F1010EDEF14A
:1005E000000252EB0E02003318BF01238DF8423097
:1005F000B36AB7F84401003318BF01238DF84330C4
:10060000C4F300538DF84430B7F846318DF83C20E0
:10061000ADF84830B7F85231C4F30042ADF8463077
:10062000C4F380438DF83F30B7F850318DF8412046
:1006300004F00101C4F3C002ADF84E00E0048DF8EF
:1006400039108DF83A20ADF84C3004D56348B0F835
:100650004C01ADF84E00B3F5FA7F84BF0023ADF82E
:100660004E3097F8D4315E4886F82C30002386F857
:100670002D3043709DF84A30002B14BF0223002315
:1006800001B902B10133544A4FF0000A02EB83036F
:100690009B6ACDF810A0059305984FF6FF7230F8CD
:1006A0000A30934200F0A781D8B2DFF844819DF868
:1006B0003D20070108EB07041AB1821E012A40F20F
:1006C00094819DF840202AB158F8072045498A4274
:1006D00000F08B819DF841202AB158F8072041494C
:1006E0008A4200F082819DF83E203AB162683E491C
:1006F0008A4203D12289012A00F077819DF83B20AC
:100700003AB1626838498A4203D12289022A00F04C
:100710006C819DF83C203AB1626834498A4203D129
:100720002289022A00F06181DDF850E0BEF1000F5D
:100730000FD06168DEF8002091420AD12289BEF80C
:100740000410914200F05181BEF80610914200F071
:100750004C811B0A022B02D19DF8382003E0012BAB
:1007600004D19DF83920002A00F03F819DF84420F3
:1007700032B19DF84A201AB90438032898BF0423DF
:100780009DF83820002A3DD0DA1ED2B2012A31D895
:1007900058F80720B2F1804F00F0278111498A42B2
:1007A00040F0848021E100BF883D0020000001402E
:1007B0007001002000280020DE140020A82800205E
:1007C00016CC0108A6280020FC120020041F0020DF
:1007D000DCCC01081E1F002070A60108EC120020CE
:1007E0009D0100200004004000080140000C014071
:1007F0001CCC0108022B05D158F80730B84A9342A7
:1008000056D1F2E0012B51D19DF83F20B54B22B9D2
:10081000BDF84C20B2F5FA7F07D958F80720B04947
:100820008A4204BF032283F82F20FF2283F874201A
:1008300083F875202189627B4FF0000B83F878B034
:10084000C3F884406068ADF854108DF856202946EE
:10085000022283F830B0C3F834B0C3F838B0C3F81C
:100860003CB0C3F870B083F876B083F877B08DF8F9
:100870005720029313F009FF58F80700A17A5A464F
:100880000CF034F820465946012211F021F8029B61
:10089000954A9649C3F88820954AC3F890B0C3F8A2
:1008A0008C2020460A1D07F0ABFF9EE0022B46D1AC
:1008B00004981C22C3B25A438E49002301EB020B59
:1008C0004FF0010C8BF802308BF80A308BF80100E6
:1008D00001F802C0627B21896068CBF80C40ADF85A
:1008E00054108DF8562029460222CDF80CC08DF800
:1008F0005720029313F0C9FE029B58F807001A46CE
:10090000A17A0BF0F3FF029BDDF80CC0194662469A
:10091000204610F0DDFF784A029BCBF81020774A82
:10092000CBF81830CBF8142020460BF114020BF151
:10093000100107F065FF049A0132049255E0032B81
:1009400039D19DF83F30674F3BB197F82E80204654
:1009500008214FF6FF7200231EE0BDF84C3097F8D7
:100960002E80B3F5FA7F0FD9654A2046B2FBF3F229
:100970000821BDF84E3092B208F094FC07EB8807CE
:10098000C7F858015F4B0EE05F4A2046B2FBF3F216
:10099000BDF84E30012192B208F084FC07EB8807C5
:1009A0005A4BC7F85801C3604E4B93F82E200132C2
:1009B00083F82E2019E0042B17D1BDF84630524A97
:1009C000484F92FBF3F22046BDF84830012192B225
:1009D00097F82D8008F066FC07EB8803C3F88801C0
:1009E00097F82D30013387F82D300AF1020ABAF159
:1009F000180F7FF451AE96F82D20454B86F8A821AC
:100A0000444A4FF0000E177883F800E0A7F1170270
:100A1000022A344C98461ED8F246236A002153F825
:100A20000A0003EB0A0B15F0FFFC10B1B36A8BBB95
:100A30002BE0394B0AEB030E9BE80F008EE80F000A
:100A400098F800300AF1100A0133BAF1C00F88F8A3
:100A50000030E2D1EAE7314B13F837A003EBC703CC
:100A6000D3F804B088F800A0BBF1000FDED0D64563
:100A7000DCDA294A4FEA0E1303EB020C5B440FCB7E
:100A80000EF1010E8CE80F00F1E7D9F80030DB041D
:100A90004ED41FE0224A02EBC70393F83800214AE4
:100AA000DE6B1070002EF0D000238342EDDAC3EB32
:100AB000C3017218D2F800A0DFF870C0013341F80A
:100AC0000CA001EB0C0E9188AEF8041092798EF810
:100AD0000620EAE707F0EF03082B134B4FD150E055
:100AE00000080040700100207B3D0108F801002053
:100AF000893E0108E801002029C90008613E01087B
:100B000000127A00A93E010840420F00993E0108F8
:100B1000EC1D0020041F0020FC1D0020DCCC01087F
:100B200070A60108341F0020E6120020351F0020A7
:100B300098F800A0BAF1010FCCD9C44E4FF00008CC
:100B4000D04506F11006C5DA56F8100C4FF07C516E
:100B500015F0D6FA4FF07C5146F8100C56F8140CEC
:100B600015F0CEFA4FF07C5146F8140C56F80C0CE8
:100B700015F0C6FA08F1010846F80C0CE0E70E2F54
:100B800008D11A78182F42F010021A7008D109F013
:100B9000B0F905E01A78192F22F010021A70F5E763
:100BA00005F0ACFDD9F800305E0302D4A84B012259
:100BB0001A70A84BA84E1A78022742F004021A7045
:100BC0004FF40043ADF8543014238DF85630B36918
:100BD000294643F004038DF85770A048B36113F021
:100BE00054FD9F4A9F4B00201A6009F089F89E4BE4
:100BF000B04693E80300B36985E8030043F00803B7
:100C0000B361159816A913F040FD14F0A9FB08F084
:100C10008BFA38460CF04EF918B14088003018BFF6
:100C20000120C00702D4012007F012FB8F4E0021E3
:100C300030461022D9F8007018F062F84FF6FF73B2
:100C4000ADF83430022307F4004A07F400694FF08E
:100C5000000B1F408DF836308DF837B00DD00127CE
:100C600020A921F84C7D7D480BF08AFE072386F8E9
:100C700000B086F801B0B770F370BAF1000F0ED073
:100C8000022320A921F84C3D74480BF079FE012382
:100C9000FA183371B37107237771F371D7B2B9F1D1
:100CA000000F0FD0022320A921F84C3D70480BF013
:100CB00067FE092301223373B2737B1C072277730B
:100CC000F273DFB2D8F804306A4843F44043C8F8FE
:100CD0000430D8F81430DFF89C9143F00103C8F8D1
:100CE0001430D8F8183043F40073C8F8183014F0F2
:100CF0005BF8614B4FF000081593604B022F169381
:100D000034BF434680231A934FF480731B934FF4F0
:100D100080631C93202329461D9348464FF40053BB
:100D200018971E93CDF85C80CDF86480CDF87C8058
:100D300014F01CF8D9F80030012F43F00103C9F872
:100D400000304F4B98BF00215A6888BF012122F420
:100D5000702222F4807242EA01225A609968494A5C
:100D6000013F0A4042F4602242F002029A60DA6ACD
:100D7000FFB222F4700242EA0757DF6240460123C5
:100D800031188A78002A5AD0325C5D1C092A91F801
:100D900003E0EDB23A4911D9A2F10A0707EB470780
:100DA0004FF0070C0CFA07FC0EFA07FED1F80C8086
:100DB00028EA0C0C4CEA0E07CF600EE002EB42076B
:100DC0004FF0070C0CFA07FC0EFA07FED1F8108062
:100DD00028EA0C0C4CEA0E070F61062B28490ED8A6
:100DE000013B03EB83034FF01F0E0EFA03FE9A4004
:100DF0004F6B27EA0E0747EA02034B6320E00C2BF8
:100E00000ED8073B03EB83034FF01F0E0EFA03FED1
:100E10009A400F6B27EA0E0747EA02030B630FE0C5
:100E20000D3B03EB83034FF01F0E0EFA03FE9A40B7
:100E3000CF6A27EA0E0747EA0203CB6200E01D46AD
:100E40000430102820D02B469AE700BF041E002053
:100E500010240020FC3A002000100240000801404D
:100E6000FD9A0008D83E002078A70108D02600206F
:100E7000000C0140080002404C240140E026002004
:100E800000240140FDF7F1FFAA4B9A6842F48072FA
:100E90009A609A6842F001029A609A6842F00802E9
:100EA0009A609968A34A090710D5FAE702F1FF385A
:100EB000B8F1090F8CBF00230123FFF79EBA9E4BA8
:100EC00083F891A10EF071FAFFF7ECBA936843F042
:100ED00004039360974A936813F00403FAD191686E
:100EE00041F4A0019160944AB2F8580150B9B2F9A6
:100EF0005A3133B9B2F95C31D3F1010338BF002361
:100F000000E0034613F0010340F08A808B4A00B2F0
:100F1000137115F0A1F88A4915F0F2F8864F0646CC
:100F2000B7F95A0115F098F8854915F0E9F8054622
:100F3000B7F95C0115F090F8814915F0E1F88146A8
:100F4000304609F05DFB0746304609F0E7FA804677
:100F5000284609F055FB0646284609F0DFFA054603
:100F6000484609F04DFB8246484609F0D7FA394613
:100F70008146504615F0C4F839468346484615F078
:100F8000BFF851460490404615F0BAF8494605901E
:100F9000404615F0B5F831460790504615F0B0F8C8
:100FA0004946C4F8AC0106F1004015F0A9F82946FD
:100FB000C4F8B001C4F8B451059815F0A1F8014681
:100FC000049814F095FF2946C4F8B801079815F065
:100FD00097F80146584614F089FF3146C4F8BC0121
:100FE00008F1004015F08CF82946C4F8C0015846B5
:100FF00015F086F80146079814F078FF2946C4F8E2
:10100000C401049815F07CF80146059814F070FFAF
:101010003946C4F8C801304615F072F8C4F8CC015E
:10102000484E33689B0320D5C82008F036FEAE201A
:101030000DF0F2FE08B111F036FA84F8D001C820A4
:1010400008F02BFE404B00210C224048C4F8D4315C
:1010500017F056FE022384F8DB3111F093FA08F002
:10106000F6FD3B4B0344C4F8E031DFF8FC90324D11
:10107000D9F800300021B3F856300C2235480493DB
:1010800095F85FB195F8698195F86A7117F038FEA7
:1010900000211422304817F033FE3048304994F8CC
:1010A000F131002284F8F0210160924681461BB99B
:1010B000029310F0E0FC029BA4F8F2A10BB908F037
:1010C00055FC284B19201A8822F040021204120CF9
:1010D0001A801A8822F038021204120C42F03002F0
:1010E0001A801A8892B242F040021A8094F8F411E1
:1010F00008F027FC012008F0C5FD01211A2008F0A6
:1011000020FC012008F0BEFD15A80AF0F5FB9DF9B2
:101110005630013303D19DF95430013303D0B4F874
:10112000F2319BB213B300230120A4F8F23105F091
:1011300003FC7AE200240140EC12002000000020B1
:1011400035FA8E3C2811002074140020480300203A
:10115000404B4C0054030020D41C0020D03E002003
:1011600080A7010800300140501D0020CA4BCB4A27
:1011700064201A60CA4A5A60CA4ADA60CA4A1A61C6
:1011800008F08BFD042384F8F031C84B06221A7056
:10119000C74BBBF1090F1A6842F001021A6001F255
:1011A0001980012202FA0BF240F202331340002BA5
:1011B00041F0088012F0FD0F01F00480BD4A94F860
:1011C000F1A11370BC4BC9F800309146BAF1000F81
:1011D00001D110F050FC0023A4F8F231BAF1000F55
:1011E00001D108F0C3FBB54BB54A6420C3F8E42134
:1011F000B44AC3F8E82108F050FD042389F8003010
:10120000AA4B07225A70AA4B1A6842F002021A60CF
:10121000042F00F26F81DFE817F0050076016B0004
:10122000050009011E21012277200DF09FFD4FF4DA
:101230002F6008F027FD142008F02FFD7720A02153
:1012400001220DAB0FF0C1FE002851D00027A7F1FD
:1012500060014FF00009C9B2022215AB77208DF86A
:1012600054908DF855900FF0B0FE9DF855309DF8D4
:10127000541043EA0121914B03F5FB72B952023736
:10128000102FE4D1B3F804E201210EF00F070EF4A1
:101290007F4EA3F804E24A464B46DFF820C222F014
:1012A00001006044B0F8F601002818BF002112F0D8
:1012B000010F03D0C0B24340082002E083EA1023AC
:1012C000FAE713F4004F18BF83F4C05301384FEA14
:1012D0004303F6D10132102ADFD1784A47EA0E0ED5
:1012E000A2F804E221B9C3F303339F4200F07687EA
:1012F00094F80632714F0BB10227FDE0142008F07C
:10130000CCFC7720D02101220DAB0FF05EFE00282F
:1013100000F08C809DF834300322552B87F81F3263
:10132000A7F8282240F08280D12101220DAB77203E
:101330000FF04BFE9DF83430772003F00F021B09AD
:1013400087F8202287F82132162215ABAA210FF048
:101350003CFE9DF854209DF8553043EA0223A7F83F
:1013600008329DF856209DF8573043EA0223A7F82B
:101370000A329DF858209DF8593043EA0223A7F815
:101380000C329DF85A209DF85B3043EA0223A7F8FF
:101390000E329DF85C209DF85D3043EA0223A7F8E9
:1013A00010329DF85E209DF85F3043EA0223A7F8D3
:1013B00012329DF860209DF8613043EA0223A7F8BD
:1013C00014329DF862209DF8633043EA0223A7F8A7
:1013D00016329DF864209DF8653043EA0223A7F891
:1013E00018329DF866209DF8673043EA0223A7F87B
:1013F0001A329DF868209DF8693043EA0223A7F865
:101400001C32314B41F270721A8046F678125A80C3
:101410002E4A5A602E4A9A602E4ADA602E4A1A6183
:101420002E4A5A61012387F8063265E794F82C9218
:10143000224FB9F1000F40F0E386142008F02DFC94
:1014400007F22D237620D02101220FF0BEFD97F860
:101450002D32582B57D107F50C738821182276208E
:101460000FF0B3FD31227620F4210DF07FFC012333
:101470001B4A87F82C32144B9A601A4AA3F8009042
:101480005A6045F6D8125A80174ADA60174A1A612C
:10149000174A5A6100F0B4BED41C0020A1660008AF
:1014A000F9B80008BD43010890C1793DF000002063
:1014B0008C120020023F002080A70108700100204C
:1014C0008D6600088D120108481B002055BA0008DF
:1014D0008D1001085FBA0008B5100108E14201084B
:1014E000DD420108DF42010879BA0008F510010861
:1014F00075400108012F06D03E4B9F703E4B1A6885
:1015000042F004021A603C4F3B6823F080029B07C4
:101510003A6002D5D4F8E4319847002384F8F431D6
:10152000364B4FF47A721A60354B1B689847354B2F
:101530000022B8F1040F1A70994600F26886012261
:1015400002FA08F313F01A0140F05D8613F0050F5C
:1015500000F059862C4820ABC0F84C1203F82C1D23
:101560001E200A210FF031FD002800F04C869DF866
:101570005430482B40F04786244B254A1A60254AB0
:101580005A601C4B0222DA703B6843F008033B6050
:1015900095F85431DFF870800BB188F8F03195F888
:1015A00055310BB11C4A137095F856310BB189F8BF
:1015B00000303B681F0735D5049A4FF064090FFAD5
:1015C00082FA9AFBF9F7384614F046FD834609FB88
:1015D00017A000B214F040FD104914F091FD01462F
:1015E000584614F085FC0E4914F08AFDC8F85002E4
:1015F0001BE000BFF00000208C120020E81C00203F
:10160000D41C0020043F002070010020D8120020CC
:10161000D922010889110108023F00208988883CED
:10162000000020410023C8F85032C24B4FF00A0896
:101630001A7842F002021A70BF4B08221A61BE4F9C
:101640001920FB6808F1FF3883F00803FB6008F0FD
:1016500024FB012008F054FB192008F01EFB002099
:1016600008F04EFB18F0FF08E9D108233B61B34BAB
:101670001B68180705D5B24B1B689847B14B012270
:101680001A70D4F854724FF00008387B14F0E4FC60
:10169000AD4914F035FD08F0B3FFAC4BC4F8580267
:1016A000188814F0D9FC01464FF07E5014F0DCFD90
:1016B000A74BC4F85C02A449186914F021FDC4F8D2
:1016C0006002387814F0C8FC01464FF07E5014F0E8
:1016D000CBFD0146C4F864024FF07E5014F006FCC6
:1016E0004FF07E53C4F868024046C4F87432C4F820
:1016F0008032C4F86C82C4F87082C4F87882C4F86E
:101700007C8208F07DFF0746404608F007FF394617
:101710008046384614F0F4FC41468246404614F0B8
:10172000EFFC39468146504614F0EAFC41468346B8
:10173000484614F0E5FC0146584614F0D9FB3946FA
:10174000C4F88402404614F0DBFC3946029014F0E1
:10175000D7FC029B83464146184614F0D1FC034651
:1017600019465846029314F0C1FB029BC4F8880244
:101770001946584614F0BCFB4146C4F88C0250464A
:1017800014F0BEFC39468046484614F0B9FC0146C8
:10179000404614F0ABFB0027C4F8900284F8947222
:1017A0006C4CFF211B22204617F0AAFA2770634FCA
:1017B000694B3A68012112F0020F1970204604D0DB
:1017C0006170032119700221A170510704D51978A5
:1017D0004C1C1C700324445412F00A0F0CD01A78CD
:1017E00004218154511CC9B205244454D11C023235
:1017F0001970D2B2062181543268940604D5197842
:101800004C1C1C7007244454110608D5197809246F
:1018100044548C1C01311C70C9B20A2444546979A7
:10182000082901D00E2908D11C7804F1010E83F893
:1018300000E04FF00B0E00F804E01C784FF00C0CA9
:1018400004F1010E5FFA8EFE12F4803F83F800E08F
:1018500000F804C009D004F1020C3F4C84F800C029
:101860003C4C4FF00E0C04F80EC0540708D51C7801
:1018700004F1010E83F800E04FF0100E00F804E0D0
:101880001C784FF0120C04F1010E5FFA8EFE12F478
:10189000806F83F800E000F804C00ED095F814C201
:1018A000BCF1000F09D004F1020C2B4C84F800C0ED
:1018B000284C4FF0130C04F80EC01C784FF0140C99
:1018C00004F1010E5FFA8EFE12F4007F83F800E04F
:1018D00000F804C009D004F1020C1F4C84F800C0C9
:1018E0001C4C4FF0150C04F80EC0182913D11C78AD
:1018F0004FF0160E00F804E004F1010E5FFA8EFEC0
:101900004FF0170C00F80EC004F1030E0234E4B2DD
:1019100083F800E00155110304D519784C1C1C70A4
:1019200019244454D40519D51A78511C19701A2356
:10193000835413E0FC3A0020000C01408C1200207C
:10194000D81200203C1B002035FA8E3C12000020EB
:10195000D41C00203B2800203A2800200021982297
:10196000994817F0CDF9994C11F0A6F9B5F84E3118
:101970009749A4F89C320023964A0B808B70B5F8E7
:1019800096019549C4F898220A6081B2934A995207
:101990000233242BFAD13368D9045CBFB5F89C110B
:1019A00011801B0740F1C08095F89031062B00F2A2
:1019B000B580DFE803F004070E395473730045F275
:1019C000F05201E042F6F822854B1A8011F0FEF940
:1019D000A3E0834B42F6F8221A8014F03DFB8149C4
:1019E00014F08EFB804914F081FA14F075FD002389
:1019F0007E4A98500433482BFAD17D4A7D4B4020D3
:101A00009A607D4B12221A700BF092FA002800F0B7
:101A1000858001234FF0070990F9000040218DE8EF
:101A20000802764A764B73E06D4B42F6F8221A8034
:101A3000744A704B40209A606F4B10221A700BF062
:101A400077FA00286AD001234FF0000890F90000CF
:101A500040218DE808016C4A4FF4E13358E0604BB7
:101A600042F6F8221A80694A624B40209A60624B23
:101A700008221A700BF05CFA00284FD001234FF0B7
:101A8000000C90F9000040218DE80810604A4FF4E6
:101A9000E13307F049FAC4F8A0023BE0504A42F6AD
:101AA000F821118054490C22062B5A480A7010D094
:101AB0000023037084F8A43284F8A5321B2384F831
:101AC000A632052384F8A72284F8A8324FF4E13522
:101AD0000DE00021017084F8A41284F8A5124E4D87
:101AE000212184F8A61284F8A72284F8A8324B4A50
:101AF000404B40209A600BF01BFA78B101234FF065
:101B0000000E474A90F9000040218DE808402B461E
:101B100007F00AFA003018BF012028B9082008F0A1
:101B20000FFF404A334B9A603368334A13F4804FB7
:101B300004D0082111703C482E49886042F201010E
:101B4000194089B1264944F620600880990404D5DB
:101B500008211170354827498860DD0704D50C211C
:101B6000117033482349886011781806A1F10401E7
:101B7000517040F19F804FF000082E4DDFF8C0906B
:101B800041461522DFF8BCA02B48C4F8AC9285F87A
:101B90000180C5F80480C5F8088017F0B1F8A9F1F4
:101BA00005034046CAF8003006F01CFE234B022015
:101BB0001B68EB600BF0BCF95146002844D1802033
:101BC00008F0BEFE6EE000BF642700207001002018
:101BD000D41E0020741400202C110020A21200201A
:101BE000281D0020CDCCCC3F0000B0448011002047
:101BF000E9C30008000000205628002051C6000854
:101C0000A0860100D9C30008A1C50008C5C300080B
:101C100055C500086412002090D0030085C3000859
:101C20003DC4000839C4000815C4000821C40008D8
:101C30002DC40008A81C002020040020F43A002035
:101C4000DE140020C81C002090F805E06B78C44A20
:101C50004FF00C0C0CFB032C9CF801C0F44504D095
:101C60000133DBB2042BF2D900236B700B6890F9BF
:101C700000001B7813F0FD0F6B784FF00C0505FB8F
:101C800003220CBF0121032153780022009101920D
:101C9000022107F049F9B34B186000288FD00120CA
:101CA00006F0A0FDB04B186800F5CC73C4F8C8323C
:101CB00012F090FB33680DF1540813F4007F52D0FA
:101CC000AA4BAB4D9A69069842F0010228609A61CE
:101CD00003884FF01009ADF83030A64802230CA954
:101CE0008DF832908DF8333012F0CFFC2B68A1487C
:101CF0005B880CA9ADF8303004238DF8323012F037
:101D0000C4FC2B680120197A12F0AAFC2B689A4AAD
:101D10005B684FF0000A536140468DF859904FF0D0
:101D2000010915938DF858A08DF85A9013F0EAFA2E
:101D30002B680DA85B7A8DF836A08DF8343003231C
:101D40008DF835308DF8379013F0BCFA8B4B1A684C
:101D50008B4B3C3A1A603B684FF0FF3243F0100364
:101D60003B60884B1A60884B884DC4F8CC32803376
:101D7000C4F8D03233680027D9032F7040F1BC80FB
:101D800008F044FEDFF834C2DFF8E09140F22A3375
:101D90004FF0010A1A466046394685F800A00293C2
:101DA000CDF80CC016F0ACFFD9F818204FF0100B8E
:101DB00042F00802C9F8182018228DF833206D4827
:101DC00003220CA98DF83220ADF830B00AF0D8FD0E
:101DD000D9F81C206E4D42F00202C9F81C206D4A51
:101DE000A9F6947911686C4AB1FBF2F12A8801399D
:101DF00022F45C7202FA0BF222FA0BF289B22A8008
:101E00001D22AA852985A5F814A02A8C22F001029A
:101E100002FA0BF222FA0BF22A842A8CA888298B68
:101E200022F0020221F0730101FA0BF102FA0BF227
:101E300021FA0BF122FA0BF241F0600180B242EA82
:101E40000A02A8802983AF862A842A8B22F00802FE
:101E500002FA0BF222FA0BF242F008022A83B5F8DA
:101E600044206FEA42426FEA524292B2A5F84420FF
:101E7000D9F8A82F42EA0A02C9F8A82F484612F05A
:101E800093FF029B454A18938023DDF80CC01A93F8
:101E90004FF480731B9348464FF4005341461E9302
:101EA00019971C971D971F971592CDF858C0CDF81C
:101EB0005CB012F05BFFAB890DA89BB243F40073DA
:101EC000AB81D9F8003043F00203C9F800308DF837
:101ED00034B08DF835A08DF836708DF837A013F03A
:101EE000F1F92F4B1A682F4BFA500437802FF8D195
:101EF00011F0FDFD11F0FBFD33685A0540F18580BE
:101F0000D4F87C6F284B04201E600BF011F80421DC
:101F1000C4F8800F0AF0E2FF244B84F8840F0820F5
:101F20001E600BF005F8224B082118600AF0D6FF5E
:101F3000204D84F8850F002128462C2216F0E0FE63
:101F40008E236B704FF07C09E0237D27EB7085F8C2
:101F5000009085F82B70184D2C22002130E000BF36
:101F6000A4AD0108A41C0020501D00200010024058
:101F7000A01C0020000C014000040140F43A0020A5
:101F80009C1C00206C1C0020101500202D2400201B
:101F900000040040F400002000366E0134040040CC
:101FA000F0B201082E240020F0280020442900204F
:101FB00090290020142900204929002044040020F1
:101FC000284616F09DFE8A236B701020A023EB702C
:101FD00085F8009085F82B70C4F8886F0AF0A8FF88
:101FE0001021C4F88C0F0AF079FF84F8900F20209C
:101FF000C4F8946F0AF09CFF2021C4F8980F0AF0EF
:102000006DFF84F89C0F11F0E5F8854D00262B88B4
:10201000322023F040031B041B0C2B802B884FF431
:10202000805723F038031B041B0C2B802B889BB29A
:1020300043F040032B809F238DF834308DF83560BA
:102040008DF836608DF8376007F027FE8DF8556003
:10205000744E0DAA042377612846414604F022FB02
:1020600037619DF856209DF85530120242EA03422E
:102070009DF857301A436C4B9A426C4B1BD008D8D2
:102080006B498A4210D001F51A4102318A420DD0C3
:102090001FE068498A4209D001318A420BD0664963
:1020A0008A4216D1402202E0202200E080221A80DB
:1020B0004FF4807202E04FF480721A805A809A883E
:1020C000198812029A604A43DA60012284F89D2F2F
:1020D00004E000221A805A809A60DA60DE6806B353
:1020E000F60A37464FF00009B14509DA09EB060553
:1020F0006D10E8024146102207F0CCFC0F2805DCE9
:10210000FF020EF049FBC4F8A07F0AE0002358F854
:10211000032001327FD10433102BF8D12E462F46F5
:10212000E2E7464D464A2B6813F4002318BF01230B
:10213000137007F08CFD434B1860434B5A791946D6
:10214000052A03D1414B4FF4C8721A80404B4FF41B
:102150007A721A803F4BC8221A803F4B1A7842F09D
:1021600008021A703D4B1A7822F002021A702A688F
:1021700040F6020313406BB139483A4B18603A4BB2
:1021800003201870394B0120187039480023038050
:1021900038480380930308D5042384F8DC3194F88D
:1021A000DB3143F0010384F8DB318B6801222B60C3
:1021B000314B1A70314B1A7862F07F021A7021B0DD
:1021C000BDE8F08FBBF1010F04D82D4B00221A702F
:1021D000FFF71EB84FF0000BFEF7E3BF294B42F2AA
:1021E00010721A805A80284A03275A60274A9A6038
:1021F000274ADA60274A1A61274A5A61FFF77CB9F1
:102200000427FFF779B9B8F1010F7FF6C1A94FF0A4
:102210000008FFF78CB905F101093D467FE700BFD3
:1022200000380040000C014018BA200018000020BF
:10223000152020001740EF001620C20028110020B2
:1022400011240020EC1C0020EC1200202427002088
:10225000003F0020F83E0020E6120020033F00204F
:1022600066140020E82800204829002000010020F2
:10227000C2260020C426002010240020FC3A0020A2
:10228000023F0020481B002083BA000869110108A2
:102290008DBA000879110108CD3E0108964A2DE952
:1022A000F04F1468954904F59C4320330B60944B20
:1022B00089B01968934E11F4804F05D104F0EAFA01
:1022C00010B933780133337077788E4BBFB15A68C9
:1022D000944240F2E880013F5F70E4E0D8F80030BB
:1022E000072C98BF195D884B88BF21461B6887481B
:1022F0009847032C0BD906EB440420810137834B0C
:10230000FCB21D78DFF82C82A542E7D81FE0D8F890
:10231000003004F10E0203EB82029388D288002879
:10232000E9D0C01A4FF47A714843D31A90FBF3F006
:10233000084440F6C903984205DC40F2EE23984277
:10234000B8BF184601E040F6CA0080B2D3E70F23B9
:1023500086F82C306E4B36781B784FF0030A0393C7
:10236000B6FBFAFA6B4B0AEB4A0A1B78CAEB060A71
:1023700069005FFA8AFA4FF0000BD8F80080664FC8
:10238000049305914FEA4A0AD94605998B4556D0E0
:102390006249039A3BF8014042B904F07BFA20B14C
:1023A000049B002B08BF002400E0039CB8F8141025
:1023B000A14206D8B8F81610A14234BF002101216D
:1023C00000E0002131B95FFA89F0029104F06EFA61
:1023D000029904465FFA89F003280BD851B94FF0EF
:1023E000010E0EFA09FE474991F82C0020EA0E0072
:1023F00081F82C0004F04EFAC0B9424927F80A408F
:1024000091F8760020B9022E10D9012081F87600CB
:1024100079883C880C44B9880C444149A4B22BF813
:10242000014024B2032194FBF1F4A4B23D4909F127
:1024300001092BF8014006370BF1020BA5E7314BE0
:10244000394993F82C20B2F10F077A427A4183F888
:102450009020364B6AB1364A1268560109D40A6890
:10246000D9689A60521AC82A1DD9012283F82120FE
:1024700019E027480022096802709868D9605B68F3
:10248000091A994288BF294B4FF0000488BF83F88E
:102490002120AC4207DAE0B204F008FA214B23F81D
:1024A00014000134F5E7164A1368DD0405D5204B06
:1024B0001B68DC0701D410F053FC0F4B1D681D4B4B
:1024C00019688B7A002B39D0164A013B32F8130079
:1024D0000B7B1BB1C0F53B60083080B200B2A0F5A9
:1024E0007A70B0F57A7FA8BF4FF47A7020EAE07076
:1024F00013F0B2FD104957E018110020801200209F
:1025000028110020C02400200800002056280020A8
:102510001C11002024110020EE240020C8240020DB
:1025200038250020A2120020F43A0020D41E0020FA
:10253000901200202C11002000007A448C48026880
:1025400010043AD58B4AD2F89400281A002834DBBC
:1025500005F59C402030C2F894008748C97A447938
:10256000864830F8140080B290FBF1F092F8981091
:10257000013101F00F0182F898100A4482F89900A5
:1025800018467F4A9A5C01331044102B80B2F8D170
:1025900000B290FBF3F000B26428A8BF642020EAE8
:1025A000E07013F059FD774913F05EFE764913F0A1
:1025B000A7FD13F091FF754B18806D49744C0B68A3
:1025C00013F4807F00F0FF80724B9D42724D03D95F
:1025D000AB780BB90123AB70AB78002B00F0F38024
:1025E0006D4B277893F821606C4B711E4E424E4123
:1025F0001A68002EC7F38007C2F3806899460CBFA3
:102600004FF0030A4FF0000A95F82030052B00F236
:10261000D480DFE803F0034D5274819A002F3AD042
:102620005F4B18685F4B198804F068F9012809D1DD
:102630005D4B64211A684F4BD3F8AC30DB8801FB4B
:1026400003232B61B8F1000F0DD04A4BD3F8AC3007
:102650001B7943B106F090F8032385F820304FF43E
:102660007A73EB61D0E7002E40F0A7804E4BDFF885
:1026700028B11A682B699A4209D906F07DF803231C
:102680008BF8203040F6B833CBF81C30BCE7012380
:102690008BF82030B8E74FF48060B8F1000F02D01B
:1026A0000AF004FB01E00AF011FB00232B6184E037
:1026B000002E42D106F060F8A6E726B1052385F882
:1026C0002030012100E031466FB1354B4FF0020A56
:1026D0001B68DA89354B1A805A809A80254AD2F8CD
:1026E000AC205288DA80304B1A686B699A4201D864
:1026F000002F5FD147F23053EB6103231EE02378B4
:1027000043F00203237010F02BFB274B1A68EB6990
:102710001344AB61042311E0234B1A688EB1AB69FB
:102720009A424AD9224B1B781BB9D9F80030DA07F4
:1027300043D4237823F002032370052385F8203047
:1027400062E7EB691344AB6137E0174B64211A6809
:10275000084B4FF48060D3F8AC30DB8801FB0323D7
:102760002B61002385F82030EB700AF0AFFA4BE7BD
:1027700028110020C0240020D0260020E0260020C0
:10278000592500200000C84200C07F44582800207E
:10279000033F0020404B4C00D41E0020901200202C
:1027A000080400200C040020F43A0020A2120020AB
:1027B0001100002000297FF427AFBAF1000F02D0EA
:1027C00050460AF039FA964E06F5C470B6F84E1126
:1027D00004F094F8804678B907F06CFC914B002225
:1027E000C3F8B080C3F8B480C3F8B880C3F8BC2085
:1027F000C3F8C020C3F8C42023785B0741D58A48BA
:102800000368DF063DD5894B1B78DD0639D4884B3C
:10281000844D1F788FB196F8E031B8F1000F16D1D2
:1028200073B1844B1A68D5F8C8309B1A002B07DAAD
:1028300010F096FA85F8CC8023E0B8F1000F19D19A
:1028400010200AF0F9F9012385F8CC3019E03BB1EA
:10285000784A4FF47A71126801FB0323C5F8C83037
:1028600095F8CC306BB10AF0CBF96E4B002283F8AF
:10287000CC2006E095F8CC301BB10AF0C1F985F800
:10288000CC70002296F8DE9196F8DF11B6F89871B8
:10289000B6F89AE11346684D9B08505F0232B84281
:1028A000C4BF63F07F03DBB27045B8BF43F04003A1
:1028B000082AF0D15B4D95F8CD209A4205D195F8C4
:1028C000CE20F92A04D8013200E0002285F8CE207B
:1028D00085F8CD30564B594F1A789A46DAB93B688D
:1028E000D80708D5B8F1000F15D12378D90712D52C
:1028F00010F0B6FA0FE023785A070CD5504B1B782E
:102900004BB1504BDB7833B911B110F029FA02E02A
:10291000B8F1000FF9D095F8CE20DFF808B1142AED
:10292000DFF8348140F0AA809AF8002019F10009FC
:1029300018BF4FF001094AB39BF8CD205F2A0FD191
:10294000227802F0040202F0FF0112B110F008FA3E
:1029500006E00B2002910AF06FF902998BF8CE1075
:10296000B9F1000F12D095F8CD307D2B0ED1237820
:1029700003F0040303F0FF0B13B110F0F1F905E0CD
:102980000B200AF059F9274B83F8CEB0237803F0D7
:10299000040303F0FF00002B70D195F8CD30214ADD
:1029A000572B16D1284B20494FF47A721A800B68A6
:1029B0001B0601D507F098FF244B1B68580702D56A
:1029C000234A0A21118013F0080357D1214A1380AA
:1029D00054E015490968490717D55A2B15D192F8C3
:1029E000CF302BB1012382F8CF0082F8D03045E000
:1029F00092F8D13083F0010382F8D1300BB10C2072
:102A000000E00D200AF018F938E05D2B00F05A853F
:102A10005B2B00F059855E2B20D1032000F055BDC3
:102A2000EC120020C024002028110020E612002013
:102A300011000020F43A0020A21200209012002081
:102A40001C110020D41E0020003F00208C1200200A
:102A5000F83E0020D21D0020501D0020562B01D131
:102A60000CF0A3FC9AF80030002B00F0438595F899
:102A7000CD306F2B40F0388510F0F2F9A94A136879
:102A8000580736D595F8D130A74A93B1237859071E
:102A90000FD5A64BB3F90610B6F89831994208DD68
:102AA0003B6813F0010304D13221A2F8D21082F85E
:102AB000D1303B6813F4803F9B4B0CD095F8D42069
:102AC0002AB993F8CF2012B93222A3F8D2200123D9
:102AD00085F8D4300DE095F8CF2052B1227802F07D
:102AE000040202F0FF0122B9012283F8CF1083F81B
:102AF000D020D8F80090002309F1850A3B6009F145
:102B0000870598460AF1020303EB080113F8082031
:102B10004B7815F8010C9A420AD2294610F08AFF28
:102B200030B115F8023C01229A403B6813433B60E8
:102B300008F10408B8F1500F05F10405E2D17C4B0F
:102B40001F783FB17B4D7C4E2B6813F0020F40F095
:102B50003A8331E309F1D50809F1D60508F10103FB
:102B6000D919DA5D4B7815F8010C9A4229D2294619
:102B700010F060FF28B395F802E028796F4B0EF152
:102B8000FF3E4FF00C0C0EEB4E0E0CFB00FC9E4477
:102B9000654B95F803A003F1D80909EB0C025168C5
:102BA00071450ED0002109F80CA0C2F804E0916034
:102BB000012202FA00F093F8082122EA000083F8CB
:102BC00008010637482F05F10605C7D15C4BDFF831
:102BD00084A11F685B4B4FF000091B6803935A4B9D
:102BE0001B780493DAF80030002B00F0DC8293F8B5
:102BF0000080B8F1000F00F0D682DAF804200398C4
:102C0000821A002A0DDB012101FA09F100F5FA729E
:102C1000CAF80420444A92F8080120EA010182F827
:102C20000811049A002A00F0BE821AF8041C587891
:102C30000431C9B23C4A002840F075823B4830F963
:102C400011104248B0F8960100F1C805A94201DD13
:102C50009D7814E0C838814202DA9D786D420EE01A
:102C6000012303FA09F392F8081121EA030382F819
:102C70000831039A02F5FA73CAF8043093E292F825
:102C8000083143FA09F3DB0700F18D82002DCCBF38
:102C90000220012009F0F2FF08F1FF33132B00F2AC
:102CA0007982DFE813F0140021002E005900720031
:102CB0007900DF004501AB01DF010F027702590007
:102CC00068007900DF004501B10017017D013B7804
:102CD00038461D44FA2DA8BFFA2525EAE5753D7052
:102CE00006F08AFF01201AE07B7838461D44642DE7
:102CF000A8BF642525EAE5757D7006F07DFF0220FA
:102D00000DE0FB7838461D44642DA8BF6425104BA8
:102D100025EAE575FD70196806F02AFF03202946AB
:102D2000CDE100BF28110020C0240020A212002005
:102D3000063F0020901200208C12002080C0010865
:102D4000E81D0020F43A00201C110020EC120020A5
:102D5000042800209C25002079790D20294464292D
:102D6000A8BF642121EAE17179710DF06BF9B8F126
:102D70000D0F00F00F8239790E2029446429A8BF75
:102D8000642121EAE171397199E1B9790520294479
:102D900081F30801B97192E1AF4BD3F800B09BF811
:102DA0000020022A1FD1284613F056F9AB4913F030
:102DB0005BFADBF8241013F09BF80021029013F06B
:102DC0003DFB029A38B91046A44913F055FB029A0C
:102DD00010B1A24A00E00022CBF824200F201146B7
:102DE0000DF044F90CE09BF802100F202944C8298B
:102DF000A8BFC82121EAE1718BF802100DF022F979
:102E0000B8F10F0F00F0C681934BD3F8008098F80B
:102E10000030022B1AD1284613F01EF98F4913F007
:102E200023FAD8F8201013F063F80021054613F0B8
:102E300005FB30B92846894913F01EFB10B1874DB8
:102E400000E00025C8F8205012205CE198F801103D
:102E500012202944C829A8BFC82121EAE17188F8B5
:102E600001102CE17C4BD3F800B09BF80020022A23
:102E70001FD1284613F0F0F8784913F0F5F9DBF884
:102E8000301013F035F80021029013F0D7FA029AAF
:102E900038B91046714913F0EFFA029A10B16F4A2F
:102EA00000E00022CBF83020102011460DF0DEF8B3
:102EB0000CE09BF80C1010202944C829A8BFC82199
:102EC00021EAE1718BF80C100DF0BCF8B8F1100F8D
:102ED00000F06081604BD3F8008098F80030022B3E
:102EE0001AD1284613F0B8F85C4913F0BDF9D8F8A8
:102EF0002C1012F0FDFF0021054613F09FFA30B9A7
:102F00002846564913F0B8FA10B1544D00E0002598
:102F1000C8F82C501320F6E098F80B101320294421
:102F2000C829A8BFC82121EAE17188F80B10C6E0C2
:102F3000494BD3F800B09BF80020022A1FD1284645
:102F400013F08AF8464913F08FF9DBF83C1012F0C1
:102F5000CFFF0021029013F071FA029A38B910469F
:102F60003E4913F089FA029A10B13C4A00E000226F
:102F7000CBF83C20112011460DF078F80CE09BF8BE
:102F8000161011202944C829A8BFC82121EAE171DF
:102F90008BF816100DF056F8B8F1110F00F0FA800A
:102FA0002D4BD3F8008098F80030022B1AD1284618
:102FB00013F052F82A4913F057F9D8F8381012F0E4
:102FC00097FF0021054613F039FA30B92846234906
:102FD00013F052FA10B1214D00E00025C8F8385026
:102FE000142090E098F8151014202944C829A8BF8F
:102FF000C82121EAE17188F8151060E0164BD3F87A
:10300000008098F80030022B1AD1284613F024F8DB
:10301000124913F029F9D8F8281012F069FF00219D
:10302000054613F00BFA30B928460C4913F024FA80
:1030300010B10A4D00E00025C8F82850092062E0D0
:1030400098F8031009202944C829A8BFC82121EAFB
:10305000E17188F8031032E0082800200000C8421F
:1030600000007A44AA4BD3F8008098F80030022B75
:103070001AD1284612F0F0FFA64913F0F5F8D8F857
:10308000341012F035FF0021054613F0D7F930B99E
:103090002846A04913F0F0F910B19E4D00E000253C
:1030A000C8F834500A202EE098F80D100A20294460
:1030B000C829A8BFC82121EAE17188F80D100CF0D9
:1030C000C1FF67E0924BD3F8008098F80030022BE4
:1030D0001DD1284612F0C0FF8F4913F0C5F8D8F86B
:1030E000401012F005FF0021054613F0A7F930B992
:1030F0002846884913F0C0F910B1864D00E000253C
:10310000C8F840500B2029460CF0B0FF42E098F878
:1031100017100B202944C829A8BFC82121EAE17152
:1031200088F81710CBE7012834D198787B4B33F916
:103130001110B1F5617F05DB40F633039942B8BF4A
:103140000B4601E04FF46173B8F10C0F22D14FF43C
:103150009665A3F5617395FBF0F593FBF5F592F891
:103160000931EDB2AB4215D0032D94BF2B4602239B
:1031700082F8093108FB0363694A03F61A031360F6
:1031800009F0DEFE404629460CF05CFF681CC0B228
:1031900009F074FD012202FA09F2624B93F808115A
:1031A0000A4383F8082109F10109B9F1040F0AF172
:1031B0000C0A7FF417ADC5E45B490B68D80510D540
:1031C0005A4BDB786BB1336899070AD5584B1B888B
:1031D00013F001070AD106F06DFF012009F066FD2A
:1031E00004E0012009F072FD012300E000232A68B9
:1031F00052070DD563B1012009F068FD4C4B1B88C7
:103200009F0708D406F056FF022009F04FFD02E0A8
:10321000022009F05BFD336813F00A0F26D02B68FB
:10322000D8060BD5424B1B8859070AD4042009F055
:103230003DFD404B1A88404B1A8002E0042009F003
:1032400045FD2B689A0607D5394B1B885B0606D4CB
:10325000402009F02BFD02E0402009F037FD2B68EB
:103260005F0603D5334B1A88344B1A8033689E06A9
:1032700008D42B68180540F1F6804FF4807009F0EF
:1032800015FDF4E02E4EDFF8A880337813F0020F1E
:1032900000F091802B4B1B78042B40F28C802B6824
:1032A00013F400790FD0B8F80030D90676D4102086
:1032B00009F0FCFC202009F009FD2348011D0EF057
:1032C000C2FA022266E0B8F8007007F01007BFB239
:1032D00037B1102009F0FAFC1C4B012783F800904D
:1032E0002B685A054ED51A4B1B685A89194BB3F9EE
:1032F00000100029B8BF494291422DDAB3F90230DB
:10330000002BB8BF5B429342ACBF0023012324E0F3
:10331000082800200000C84200007A44A2120020C1
:10332000E81D0020C024002028110020D41E002009
:1033300094120020D21D0020D41D0020B8260020A9
:10334000E6120020D01C0020102800202828002091
:1033500038040020CA1D002000239BB1B8F80030BB
:103360009B061CD4202009F0A1FC8D4B8D481A68C7
:103370005B68011D436002600EF065FA8A4B01270D
:103380001F700CE0B8F80030980608D5202009F02E
:103390009DFC0022844B01271A7000E00027DFF813
:1033A000108298F80A31BBB90E2009F045FC0123C0
:1033B00088F80A3110E0B8F8003003F03003002B31
:1033C0003FF457AF102009F081FC202009F07EFC6B
:1033D000754B00221A7002E0002F3FF44AAF002123
:1033E0000F46724A0023BB52714A02F586703B5267
:1033F00002F588703B5202F58A7E002041F80E00EB
:103400008E44CEF80430CEF8080002F59E7E41F8D6
:103410000E008E44CEF80430CEF80800023702F5D4
:10342000B27E41F80E00042F8E44CEF80430CEF860
:10343000080001F11401D4D13178C9067FF519AF24
:10344000C2F88C01C2F89001A2F89431A2F896312A
:10345000A2F89831574900225A520C315A5202337D
:103460000A2BF7D105E74FF4807009F02FFC524A80
:1034700053791646082B01D00E2B02D1402009F0BB
:1034800025FC4E4A13685B0540F1868096F814329D
:103490001BB9237813F0040F02E02B6813F4002FFC
:1034A0000BD0434B002283F8B2213C2011F042FBA9
:1034B000002871D009F0DEFCF7E70FF08BFE0FF06B
:1034C000FBFB69E0012000E002205FFA80F909F1CE
:1034D000FF3386F8183806F055F90BF0A1FD484681
:1034E00009F0CCFBFFF7CABAB9F1000F02D07E2B6E
:1034F0003FF4C2AA95F8CD30972B05D1304B4FF44D
:10350000C8721A80FFF7BABAA72B06D12D4B1A78CA
:1035100042F004021A70FFF7B1BA0022BB2B0792E7
:1035200001D1022303E0B72B04D14FF6FE73ADF8AF
:103530001E3009E0BE2B01D1022303E0BD2B1AD1BE
:103540004FF6FE73ADF81C30D8F80030BDF81C10F3
:10355000B3F858200A44A3F85820BDF81E10B3F859
:103560005A200A44A3F85A200BF01FFF002385F8C5
:10357000CE30FFF783BA792B04D1134BDA7822F0DF
:10358000010206E07A2B7FF479AA0F4BDA7842F039
:103590000102DA70FFF772BA09B0BDE8F08F00BF20
:1035A000042900201C28002028280020FA3E0020A2
:1035B000C02400205A260020EC12002028110020F0
:1035C00024270020E612002048030020C44A2DE9E9
:1035D000F04FC44BD2F800E0B3F90600BEF80A3051
:1035E00087B098420FDBB0F5FA6F9EF8077007DAE4
:1035F000C21A5743A3F5FA6397FBF3F7643703E066
:10360000C7F1640700E06427B74B0021B3F89621A7
:1036100093F95E310292B54A9BB2D2F800C003938F
:1036200064460A46AF4B029D31F903B0C5EB0B036C
:1036300003F2F31640F2E635AE4203D8002BB8BFD2
:103640005B4201E04FF4FA73022A4FF06406A84D82
:103650002ED09CF81D81B8F1000F04D04345CCBF9B
:10366000C8EB0303002393FBF6F86FF0630A35F809
:1036700018900AFB083A08F1010835F918800FFA8A
:1036800089F5C5EB080505FB0AF595FBF6F5A94498
:10369000984D21F805900EEB02052D796B43964D60
:1036A00093FBF5F364339BB27B4393FBF6F630E078
:1036B0009CF81E81B8F1000F04D04345CCBFC8EB85
:1036C0000303002393FBF6F66FF0630905EB46084E
:1036D00009FB063A05EB4606B8F90E80B6F910501C
:1036E000844EC8EB050505FB0AFA039D9AFBF9FA1F
:1036F000C8EB0A0808FB05F8A6F804809EF80650F7
:1037000083EAE376A6EBE3766E437B4D96FBF5F614
:1037100064360CEB020898F80190754B06FB09F92A
:103720004FF0640803F11C0599FBF8F902F80590C5
:1037300094F80B9003F11F0506FB09F999FBF8F9C2
:1037400002F8059094F8159003F1220506FB09F69E
:10375000022A96FBF8F656551D4616BF253383F808
:103760002780D754029B634E9B4502DA735A5B4213
:1037700073520231062902F1010204F101047FF4BF
:1037800051AF594CB4F89831984205DBB0F5FA6F57
:10379000A8BF4FF4FA6000E01846C01A4FF47A72DE
:1037A0005043C3F5FA63B0FBF3F34FF0640E93FBA1
:1037B000FEF205EB42016FF0630000FB0233098D5E
:1037C00005EB4202B2F92A000AB2821A534393FB74
:1037D000FEFE4A4B71441B88F1805906454F3ED589
:1037E000474B1888424BB3F84030C01A00B212F071
:1037F00033FC444912F084FC804606F001FF814608
:10380000404606F08BFE8046B7F9020012F024FC19
:103810008246B7F9000012F01FFC4946834612F0B9
:103820006FFC414603465046009312F069FC009B32
:103830000146184612F05AFB12F028FE494638801D
:10384000504612F05DFC41468146584612F058FC45
:103850000146484612F04CFB12F018FE78802A4BC5
:103860001A689A4612F0020F00F09780274B6A6C94
:103870001B6845F207219A1A8A421D4F40F38D803A
:103880007B6411F0D9FC224BDFF890801A789946BE
:10389000032AB8F8003043D10A2B4DD90023282041
:1038A00089F8003006F0F9F911F0C6FCB7F84800C5
:1038B00009F06CF9174B18491B68DA7890FBF2F0A5
:1038C000421C082A28BF08220A7059791B7992B233
:1038D00051435A43A7F84A10A7F84C202CE000BFE8
:1038E000E81D0020A2120020EC120020501D002034
:1038F00078260020CA1D00200CFEFFFF9412002035
:10390000D21D002035FA8E3C28110020181100200D
:1039100048290020E828002000010020EC28002091
:103920000A2B09D80323B54A89F800300023137005
:10393000A7F84A30A7F84C3099F80020B04B012A7C
:103940000DD002D3022A1ED027E0B5F84A20B8F8DD
:1039500000309A4221DD012389F8003011E0B8F8E7
:103960000020B5F84C10914202DD02221A7011E0DD
:10397000A449B1F84A1001318A4202DD00221A70CE
:103980000BE0082007E0B5F84C30B8F80020013310
:103990009A42E0DC072009F04FF9DAF800703A05A6
:1039A0007BD5994B296D1A68964BC1EB020B45F2FA
:1039B00007218B4571DD9548B6F90690D0F8008057
:1039C0001A6598F80A004FF47A7201289BFBF2FB03
:1039D000B4F84E11A9F57A798D4E03D046D302285A
:1039E00023D045E093F86510586D03EB4101B1F821
:1039F00068E0082190FBF1FC1FFA8EFECCEB000082
:103A0000704490FBF1F1586589B240F6E4404143BF
:103A1000A3F870E0B8F80830C3EB11314A43B8F9A5
:103A2000063092FBF3F2326022E07A4BB8F808A03D
:103A30001B78C6F800A05B071AD5774802F05EFF36
:103A400020B917F0100F18BF4FF0000909FB09F259
:103A5000322392FBF3F39944B8F906304FF47A72AB
:103A600003FB09F393FBF2F3534400E000233360BC
:103A70003368D5E91E0103FB0BFB4FF47A739BFB04
:103A8000F3FB10EB0B0041EBEB710023C5E91E01CA
:103A9000624A12F041FD624B1860624B1A68984608
:103AA00012F4805F26D03F0621D55F4B1B789E071E
:103AB0001DD55E4B1978042919D900235C4E0522C7
:103AC0009A55981C1E440A27122BC2B2777004D054
:103AD000B1EB520F0346F1D800E014222A443223FE
:103AE00082F87F30FF2382F880300F2000E00A2028
:103AF00009F0A2F8D5F89820424E002A4ED04D4B3E
:103B0000D6F89C1018689946814247D896F8A010BC
:103B1000B6F8A2305268C9B9012786F8A070D35C04
:103B200003B3384606F0ECF886F8A47009F044F8C0
:103B3000B6F8A230B3B9D6F898301B78053BBB4233
:103B400010D806F084F8C6F8A8000BE0002786F825
:103B5000A070D35C33B1384606F0D2F886F8A47072
:103B600009F02AF8D5F89820B5F8A2105268254B2C
:103B7000525CFE2A03D10022A3F8A2200EE0FF2A05
:103B800002D109F03DF809E0D9F800000A2606FB49
:103B900002020131C3F89C20A3F8A2101D4E327816
:103BA000500703D5244B08225A6166E0D8F800304C
:103BB000D9075CBF42F0010232701B4A127812072B
:103BC00003D4327822F001023270DB0203D533785D
:103BD00023F001033370194B1B685F0702D5184AA5
:103BE00012889ABBB5F8AC200AB198072CD4154BB3
:103BF0001B88003318BF012327E000BF000100200D
:103C0000482900207826002018110020E8280020EC
:103C1000F4280020033F002074140020407E05009B
:103C2000F828002090120020E6120020D01C00206E
:103C3000F8260020F43A0020000C01408C120020ED
:103C4000F83E0020003F002001233BB1022385F80D
:103C5000A430337823F00103337005E03278D107C4
:103C600058BF022385F8A43005F0F1FFD5F8B03035
:103C7000C01A002801DB08F09FFF0FF0ABFAC04B21
:103C80001A78002A78D0D5F8B430002B00F00087DD
:103C9000D5F8B400BB4C06F04AF8002800F0F886CE
:103CA000D4F8B40006F03EF8092801D03F2855D1D9
:103CB0004FF00008D5F8B860B34F44462EB1B34872
:103CC0003968324615F064F810B9B84604B93C4674
:103CD000AF4B10379F42F1D304B3D4F800E0D8F8CB
:103CE00000C0D5F8B830A7481EF803701CF80310C0
:103CF000B94213D15A1C59B92D2B09D8C0F8B82094
:103D000003442027024483F8BC7082F8BC1005E00D
:103D10002B4483F8BC70C5F8B820E2E7D5F8B8307A
:103D20000BB1444510D09B4809F050F8444507D8E2
:103D300054F8100B09F04AF8092009F040F8F5E7AB
:103D4000954809F043F80026D5F8B8309E429FD236
:103D50008E4B985D09F033F80136F5E7D4F8B830AA
:103D6000002B40F0B686042840F0248704F1BC0004
:103D700002F074FD00F08CBE884F97F84A30012B9A
:103D800040F08186DFF83482854B3A68C8F80070CD
:103D90001A60C2469B46DBF80000DFF8049205F08B
:103DA000C6FF002800F05D86D9F8000005F0BAFFD4
:103DB000DAF80030024693F8481019B924283DD1AA
:103DC000012238E0012904D14D280CBF0222002233
:103DD00031E0022904D13C280CBF032200222AE052
:103DE00003290CD140284FF0000102D983F8481074
:103DF0004EE058711971D971987104221BE00429A1
:103E000007D1997983F8490080EA01029A71052265
:103E100011E005293CD1587919798842987906D959
:103E200050409871481C18710B441A7230E090424F
:103E30000CBF0622002283F8482029E03178594B34
:103E4000490725D4232AD9F8001016D14C484FF041
:103E5000010E80F800E05448C5F8B410C5F884118C
:103E60000192009308F0B2FF4B4808F0AFFF009BAF
:103E7000197841F002011970019AD5F888311B7840
:103E8000934205D1494A4A4B1A604A4A4A4BDA6082
:103E9000DAF80030DFF8249193F84820062A7FF4FE
:103EA0007AAF93F8490000F0CFFE8246002840F038
:103EB000D185D9F8002092F849304C2B00F09B8432
:103EC00000F28080332B00F0D18421D8292B00F020
:103ED0005E8409D8252B00F02084272B00F0248451
:103EE000232B40F0F385E6E02D2B00F0618407D80A
:103EF0002B2B40F0EB8508F044FF607100F0A7BD6C
:103F00002F2B00F02085312B00F0328500F0DEBD34
:103F10003E2B00F0FB801DD8372B00F0DB8404D84B
:103F2000352B00F01E8200F0D1BD392B00F01E842D
:103F30003C2B40F0CB85DFF88890D9F800A008F042
:103F400020FF8AF80000D9F80030187806F07CF8D5
:103F500000F07DBD432B00F09A8407D8412B08BFA9
:103F60004FF0000900F0878400F0B0BD442B00F052
:103F70003385482B40F0AA8508F00AF900F067BDA8
:103F8000063F002078260020BCC00108342700200E
:103F90009CC2010854DA010859DA0108642700209C
:103FA000A4290020033F002089DA0108EFBEADDE1E
:103FB000F04F00200400FA0500ED00E0A0290020E9
:103FC000501D0020D12B00F06B8320D8CC2B00F0AB
:103FD00009820FD8C82B64D004D84E2B00F0188467
:103FE00000F074BDC92B00F03383CA2B00F0988019
:103FF00000F06CBDCE2B00F01D83C0F01283CF2BE0
:1040000000F04482D02B00F0018300F05FBDD82B7C
:1040100000F01A810DD8D32B3DD029D3D42B00F03A
:104020007A82D62B08BF4FF0000900F0698200F0B9
:104030004DBDF22B00F0BF8212D8EF2B40F0468529
:10404000DFF88893D9F800A008F0A6FEAAF85A0075
:10405000D9F8009008F0A0FEA9F8580000F0F7BCCD
:10406000F32B00F0BD84FA2B00F0EE8200F02EBDA1
:10407000337803F0040303F0FF09002B40F0E784DA
:1040800008F07FFE022884F8180840F2C582CA4B67
:1040900083F81898C0E208F07FFEC84B188000F043
:1040A000D6BC92F805A04FEA5A0ABAF1120F1CD8F2
:1040B0004FF000091DE008F064FE132815D8DFF862
:1040C0000CA300F1200BDAF8003003EB8B0B08F0A7
:1040D00058FEBB4B0BF1050903F5A872197A814212
:1040E00000F020810C339342F8D110F01FFD00F056
:1040F000AEBCD14507D208F04FFEB24B23F81900F1
:1041000009F10109F5E70122AF4B9BE208F039FE06
:1041100084F8E00108F035FE84F8DF0100F097BC78
:10412000AA4B1A6899461278022A6FD14FF00009FB
:10413000DFF898A209F1080BDAF80030009308F0D4
:1041400020FE11F085FFA24912F08EF8009B43F883
:104150002B00DAF800B008F014FE09F10A030BEBAB
:10416000830B11F075FF9B4912F07EF8DAF80030EE
:10417000CBF80400009308F004FE11F069FF9649A3
:1041800012F072F809F10E0B009B09F10109B9F167
:10419000030F43F82B00CBD1B9F1070FDAF800B0C9
:1041A0001AD108F0EEFD11F053FF894912F05CF8C6
:1041B000CBF84400DAF800B008F0E3FD11F048FF56
:1041C000834912F051F8CBF84800DAF800B008F053
:1041D000D8FD8BF84C0012E008F0D3FD0BEB09037F
:1041E0005870DAF800B008F0CCFD0BEB0903D87278
:1041F000DAF800B008F0C5FD0BEB0903587509F1BA
:104200000109B9F10A0FC7D100F021BC4FF0000A33
:10421000D9F800B008F0B5FD0BEB0A035870D9F8D7
:1042200000B008F0AEFD0BEB0A03D872D9F800B06D
:1042300008F0A7FD0BEB0A030AF1010ABAF10A0F15
:104240005875E5D100F003BC8146DFF880A109F183
:10425000080BDAF80030009308F09EFD11F0F8FE2C
:104260005D4912F001F8009B43F82B00DAF800B02A
:1042700008F092FD09F10A030BEB830B11F0E8FE45
:10428000554911F0F1FFDAF80030CBF80400009343
:1042900008F082FD11F0DCFE4F4911F0E5FF09F155
:1042A0000E0B009B09F10109B9F1030F43F82B0034
:1042B000CBD1B9F1070FDAF800B01AD108F06CFDD4
:1042C00011F0C6FE444911F0CFFFCBF84400DAF8F4
:1042D00000B008F061FD11F0BBFE3F4911F0C4FFD2
:1042E000CBF84800DAF800B008F056FD8BF84C0027
:1042F00012E008F051FD0BEB09035870DAF800B03A
:1043000008F04AFD0BEB0903D872DAF800B008F0A8
:1043100043FD0BEB0903587509F10109B9F10A0FC7
:10432000C7D194E31B788BF8053008F02AFD89F893
:10433000010008F026FD89F8020008F022FD89F846
:104340000300DAF80000254BC5F890010021853004
:10435000C5F88C3105F06AFC214B80F00100187023
:1043600075E308F00EFD0B283FF6BFAE4FF0060ACE
:104370000AFB00F0154BD0301B6803EB000A08F075
:1043800000FD03283FF6B1AE8AF80A0008F0F9FCF8
:104390008AF8050008F0F5FC8AF8060008F0F1FC40
:1043A0008AF8070008F0EDFC8AF8080008F0E9FC3C
:1043B0008AF809004BE300BFEC120020D41D002056
:1043C0009CC20108A212002065120020501D00208E
:1043D000000020410000C84200007A442C14002054
:1043E000110000205379092B7FF67FAED54AD2F811
:1043F00000A008F0C6FCD34B8AF80000D3F800A058
:1044000008F0BFFC8AF8010008F0BBFCCD4A642824
:10441000A8BF64201368187108F0B3FCC94A642867
:10442000A8BF64201368587108F0ABFCC54AFF2888
:10443000A8BFFF201368987108F0A3FCC14B642843
:1044400028BF6420D3F800A08AF8070008F099FC80
:104450008AF80200BB48D0F800A008F092FCB94AE4
:104460008AF80300D2F800A008F096FCD9F80030D2
:10447000AAF80A005B790A2B40F2E982B14BD3F823
:10448000009008F07EFC89F80800E0E208F084FC67
:104490006FF4AF6E00EB0E039BB2C62B98BFA4F86F
:1044A000960108F079FCA4F8400108F075FCA4F826
:1044B000420108F071FCA4F8440108F06DFCA4F876
:1044C000D80108F05EFC84F8ED0108F05AFC08F011
:1044D00058FC84F8EE0108F054FC84F8850108F0DB
:1044E00050FC84F8920108F04CFC974BD3F80090F4
:1044F00008F052FC00EB80004000A9F8560035E1BE
:1045000008F04AFC914B23F8090009F10209B9F1BE
:10451000100FF5D19BE253790F2B7FF4E6AD08F035
:1045200030FC072881463FF6E0ADDFF81CA2DAF840
:1045300000B008F031FC0E2303FB09F90BEB090373
:10454000A3F82501DAF800B008F026FC0BEB09030C
:10455000A3F82701DAF800B008F01EFC0BEB090302
:10456000A3F82901DAF800B008F00BFC0BEB090303
:1045700083F82B01DAF800B008F003FC0BEB090319
:1045800083F82C01DAF800B008F0FBFB0BEB090311
:1045900083F82D01DAF800B008F0F3FB0BEB090308
:1045A00083F82E01DAF800A008F000FC0AEB0903FA
:1045B000C3F82F014BE208F0E4FB0F2881463FF6D9
:1045C00094AD08F0DEFBC9EBC90904EB090383F8DD
:1045D000D00003F1D00908F0D4FB89F8010008F0FD
:1045E000D0FB89F8020008F0CCFB89F8030008F042
:1045F000C8FB89F8040008F0C4FB89F8050008F03E
:10460000C0FB89F8060005F074FC20E233785807F7
:1046100000F11D820CF078FE05F0B4F80AF000FD00
:1046200015E23378590700F112824FF4C873A5F8E8
:10463000AC300CE233785A0700F10982444B1A7807
:1046400042F004021A7002E233785B07E4D53DE2DF
:1046500008F097FB3E4B1A7810B142F0020201E0DD
:1046600022F002021A7008F08CFB3A4BDFF8F89047
:10467000187008F09BFBC9F8000008F097FBC9F818
:10468000040008F089FB344B188008F085FB334B9D
:10469000188095F8943143F0020385F89431D6E1FF
:1046A00008F06FFB009008F081FB834608F07EFB6A
:1046B000824608F07BFB814608F06EFB08F06CFB3D
:1046C00008F05FFB009B9BB91020C5F898B1C5F8B6
:1046D0009CA108F0FBFA1E4B1A7842F001021A70F6
:1046E000B9F1000F00F0B3811D4BC3F80090AEE1AB
:1046F000102B40F0AC81C5F8A4B1C5F8A8A1B9F160
:10470000000F02D0164BC3F8009016480223011D7B
:1047100085F8B0310DF097F899E1A06008F046FBFC
:10472000A3681843A06092E108F036FBA4F8580192
:1047300008F032FBA4F85A0108F02EFBA4F85C0143
:1047400085E100BFE81D0020501D0020061F00204D
:10475000E6120020D01C0020FE280020FC280020AB
:10476000981200201C2800200429002008F009FBD2
:1047700084F87A0108F005FB84F87E0108F001FB5B
:1047800084F87D0108F0FDFA84F87F015FE108F00C
:1047900003FBA4F8800108F0FFFAA4F8820108F0F6
:1047A000F0FA84F8840108F0F7FAA4F886014EE1E3
:1047B00008F0E7FA84F8900108F0EEFAA4F89A01FC
:1047C00008F0EAFAA4F8960108F0E6FAA4F89801CD
:1047D00008F0D7FAD9F8003084F891015B79082BFA
:1047E00040F2358108F0D8FAA4F89C0108F0D4FA18
:1047F000A4F89E012BE108F0C4FA84F8D60108F071
:10480000C0FA84F8D70108F0C7FAA4F8D8011EE16D
:1048100092F805B00323BBFBF3FBBBF1120F3FF68D
:1048200064ACDFF820944FF0000ADA4580F00F8185
:1048300008F0A7FA89F8A00108F0AEFA40F2ED23DB
:10484000984205DD40F6CA039842A8BF184601E029
:1048500040F2EE20A0F2EE20192390FBF3F089F84D
:10486000A1010AF1010A09F10209DEE708F089FA5B
:1048700084F89201EBE008F084FA04EB090309F1F3
:104880000109B9F1080F83F88801F4D1DFE008F0DD
:1048900078FAC4F808A0607108F088FAA368184391
:1048A000A06008F06EFA84F8900108F075FAA4F898
:1048B000580108F071FAA4F85A0108F06DFAA4F84A
:1048C0005C0108F069FAA4F8800108F065FAA4F820
:1048D0008201BCE053794FF0070AB3FBFAF2C2EB56
:1048E000C2029A1A12F0FF0F7FF4FFABB3FBFAFA81
:1048F000BAF1000F00F0AB8008F043FA5FFA80FBDA
:104900004FFA8BF008F0D6FA0AF1FF3A5FFA8AFA0A
:10491000814600283FF4E9AB80F800B008F03CFA8B
:10492000A9F8020008F02DFA89F8040008F029FA25
:1049300089F8050008F025FA89F8070008F021FA3F
:1049400089F80600D4E7DFF8FC9209F1400A08F084
:1049500023FAA9F8A40208F014FA89F8A60208F0CC
:1049600010FA09F1040989F8A302D145EFD16EE0EC
:1049700008F007FA1F283FF6B8ABD8F800305B798B
:10498000082B7FF4B2AB00F1880A08F005FA04EBBB
:104990008A0A00F03F00AAF8060008F0FDF9BAF80C
:1049A0000620800100F4FE531343AAF8063008F0F5
:1049B000E8F900018AF8040008F0E3F99AF80430F5
:1049C00000F00F0018438AF8040008F0DAF98AF8BA
:1049D000050006F01BF83AE0012385F8B13136E016
:1049E00008F0CFF9FF2881461CD100238DF817303D
:1049F0009DF81730052B2AD89DF817207D4B9DF880
:104A00001710012003EBC101496800FA01F153F8C6
:104A1000320089B2482208F003FA9DF817300133BA
:104A2000DBB2E3E705283FF660AB002008F094F91D
:104A300008F06EF9DBF8000005F06AF918B93220C9
:104A400005F02BF9F6E74FFA89F003F0EDFC0020B2
:104A500008F082F908F05CF9D8F80030002283F8F9
:104A6000482095F8B13173B1386805F051F918B99B
:104A7000322005F012F9F7E701F0B2FE05F017F960
:104A80005D4A5E4BDA605E4B4C379F427FF475A9FE
:104A90005C4B1B68980611D55B4BD5F8B4211B689D
:104AA0009A1A002A0ADB594A1278042A06D903F511
:104AB0001233574A03F5F873C2F8B431554B9B686B
:104AC000002B00F094805448984790E010F02EF8A6
:104AD000C0E70C2803D1514808F078F95AE00A28B9
:104AE00001D00D2858D14A4C4D4804F1BC0608F0BD
:104AF0006DF93046232114F036F910B1801BC4F84B
:104B0000B800D5F8B830002B38D0591E705C404A38
:104B1000202801D10B46F6E7C2F8B8301344002232
:104B200083F8BC203F4B404CD3F800A0D4F8009051
:104B3000DFF8DC80484614F023F908F1BC0706468C
:104B400049463846324614F023F9384B38B908EB59
:104B5000060292F8BC2052445278520703D0103417
:104B60009C42E3D306E09C4204D2701CE3683844C4
:104B7000984702E02E4808F029F900232D4800212B
:104B80003022C5F8B83014F0BBF82B480378002B5E
:104B90003FF47EAF294809E07F2811D1013BC4F8DA
:104BA000B83000222344264883F8BC2008F00EF9D0
:104BB000FFF76EB80C288ED07F2804D1FFF768B8B5
:104BC0002F2B3FF665A8A0F12002D2B25E2A3FF655
:104BD0005FA813B920283FF45BA85A1C2B44C5F8E2
:104BE000B82083F8BC0008F0EAF8FFF751B807B026
:104BF000BDE8F08F24DA01080400FA0500ED00E0BA
:104C0000FC2700208C12002018110020D01C00204E
:104C100078260020D41C0020302800205EDA01080D
:104C2000C8E9010804010020BCC001089CC20108B9
:104C300069DA010834270020063F002059DA01080C
:104C400085DA0108EC1200202DE9F04F4D28ABB0B9
:104C5000044600F05C8600F2BD80302800F0E28659
:104C600051D8222800F0BB8423D8032800F02382E7
:104C700014D8012800F01382022840F03F87042056
:104C800008F06AF8432008F031F84C2008F02EF8BC
:104C9000462008F02BF84C2000F05DBE042800F000
:104CA0001382052840F02A871A2008F055F80024BE
:104CB0001CE2282800F0F98515D8242800F0E085AA
:104CC000262840F01B87D14C062008F045F8B4F8A0
:104CD000580108F044F8B4F85A0108F040F8B4F864
:104CE0005C0100F049BE2C2800F0F2852E2800F06F
:104CF00060862A2840F00287012008F02DF8C34B77
:104D0000587900F028BE3D2800F01A831ED83628B6
:104D100000F035860BD8322800F01786342840F092
:104D2000ED86482008F018F8002500F078BC3A28F5
:104D300000F0DB823B2800F04B84382840F0DE8610
:104D4000042008F009F8B14C00F0A0BD452800F09F
:104D5000C28627D8402800F00186422840F0CE863F
:104D6000AA4C102007F0F8FF607907F0BFFFA06899
:104D700007F0FEFF94F8900107F0B8FFB4F858016F
:104D800007F0EDFFB4F85A0107F0E9FFB4F85C0151
:104D900007F0E5FFB4F8800107F0E1FFB4F8820105
:104DA00000F0EABD472800F07386C0F060864B280B
:104DB00040F0A486954C042007F0CEFF94F8D6016D
:104DC00007F094FF94F8D70107F090FFB4F8D801EA
:104DD00000F0D2BD702800F0178300F2F980692836
:104DE00000F0638200F2CB80662800F0BD8100F203
:104DF000BB80642800F09381652840F07F860B20FB
:104E000007F0AAFF824B834C188807F0A8FF208880
:104E100080B207F0A4FF804B1B68C3F3C000C3F34C
:104E20008002800040EA4200C3F340021043C3F313
:104E3000401240EAC20003F01003184307F08FFF4E
:104E4000764BA4781A8812F0010F0CBF00200220C4
:104E500012F0020F0CBF0021042112F0040F0CBF4E
:104E60000023102303936E4B02F0080A1B6812F014
:104E7000400F03F0C00B03F480794BEA0A0A0CBF21
:104E80000026202603F4805812F0100F4AEA090A7F
:104E9000019003F4005C0CBF00204FF400704AEA5C
:104EA000080A12F0200F029103F4804E0CBF00217B
:104EB0004FF480614AEA0C0A12F4807F0496059050
:104EC0000CBF00264FF4006603F4003003F40047E3
:104ED0004AEA0E0A0796089003F480364AEA070A5F
:104EE00006914AEA060A03F48021089E09914AEADB
:104EF000060A099E03F400254AEA060A03F4801014
:104F00004AEA0505284303F000730343454812F4B9
:104F1000007F06780198C6F3800643EA0603029EE6
:104F200043EA0003039843EA0603049E43EA0003AE
:104F3000059843EA0603069E43EA0003079843EAFE
:104F4000060343EA00030CBF00214FF4001112F4E2
:104F5000806F43EA01014FF000000CBF00234FF0C7
:104F6000806319430346EAE0672800F0258168283A
:104F700040F0C485102007F0EFFE00248CE16C287F
:104F800000F0A68116D86A2800F000846B2840F053
:104F9000B585052007F0E0FE234B188807F0DFFEFB
:104FA000224B188807F0DBFE214B187800F0010037
:104FB00000F0D1BC6E2800F09D8100F2FB8106203C
:104FC00007F0CAFE1B4B186807F0D2FE1A4B8AE1A5
:104FD000782800F0FE8033D8742800F03C830AD88B
:104FE000722800F09383732840F08885082007F02A
:104FF000B3FE0124C3E3762800F0E78300F26B835D
:105000002F2007F0A9FE0D4CDAE200BFEC120020C1
:10501000F01C0020382800208C1200209412002060
:1050200090120020033F00207629002078290020DC
:105030000C2800209C1200208C1C002007C50108B1
:10504000A42800F0E88313D87B2800F05F82A02812
:1050500040F054850C2007F07FFEBF4B186807F026
:1050600087FEBE4B186807F083FEBD4B00F006BC00
:10507000F12800F0EA80FE2800F0F483F02840F0E8
:105080003D85B84C042007F067FE2368B3F85A004A
:1050900007F065FE2368B3F8580000F06DBC0320EC
:1050A00007F05AFE002007F021FE204607F01EFE02
:1050B0000D2000F050BC07F04FFE012007F016FE57
:1050C0000A2007F013FEA4E3062007F045FE432064
:1050D00007F00CFE432007F009FE332007F006FE20
:1050E000442007F003FE002000F046BC9E4B185DF4
:1050F000013407F0FBFD0B2CF8D100249B4B185D0D
:10510000013407F0F3FD082CF8D10024984B185D0A
:10511000013407F0EBFD072CF8D100F0EDBC0720BF
:1051200007F01AFEE72007F0E1FD924B587907F0EF
:10513000DDFD002007F0DAFD042000F0DBBCA34217
:105140000CD28D4A9D5C012202FA05F50D4218BF72
:105150009A4003F1010318BF1043F0E707F008FE7F
:10516000844B93F81808F6E3122007F0F5FD834B03
:1051700000241B88B3F5806F94BF01250825804B60
:10518000E05E023490FBF5F080B207F0E8FD062CFB
:10519000F5D17C4C208807F0E2FD608807F0DFFD48
:1051A000A088794C07F0DBFD208807F0D8FD6088E7
:1051B00007F0D5FDA088DFE3102007F0CDFD002427
:1051C000724B185D013407F091FD102CF8D100F0FE
:1051D00093BC702007F0C0FD00260E247443614D7F
:1051E00001362B682344B3F8250107F0B8FD2B687E
:1051F0002344B3F8270107F0B2FD2B682344B3F82A
:10520000290107F0ACFD2B68234493F82B0107F02C
:105210006DFD2B68234493F82C0107F067FD2B6884
:10522000234493F82D0107F061FD2B68234493F884
:105230002E0107F05BFD2B681C44D4F82F0107F00A
:1052400097FD082EC9D100F057BC702007F084FDEF
:10525000484C04F1700594F8D00007F047FD94F82D
:10526000D10007F043FD94F8D20007F03FFD94F819
:10527000D30007F03BFD94F8D40007F037FD94F815
:10528000D50007F033FD073494F8CF0007F02EFD6A
:10529000AC42E0D100F030BC3D4B185D013407F06A
:1052A00025FD102CF8D100F027BC3A4D0024A87F32
:1052B000400000F0FE0007F04FFDAB7F9C4280F005
:1052C0001B84354B33F8140007F049FD0134F4E733
:1052D000324C062007F040FD208807F040FD608832
:1052E00007F03DFD2E4B188846E3042007F034FDFF
:1052F0002C4BC3E2072007F02FFD2B4B1888FF280B
:10530000A8BFFF20C0B207F0F1FC284B186880F35B
:10531000100080B207F023FD1E4B188C07F01FFD14
:10532000144B93F88521224B2AB11B680A2058435D
:1053300080F3100002E0186800F30F0080B21BE356
:105340000C4C022007F008FD94F8E00107F0CEFCB9
:1053500094F8DF01FFE200BFE8F7FF1FECF7FF1F43
:10536000F0F7FF1F501D002004CE010810CE0108E9
:10537000E5CD0108EC1200203B280020120000209F
:10538000E2280020221D0020E01200201E1F002025
:10539000BC1E002038280020A2120020641C00201F
:1053A000D21D00206C1C0020EC280020F8280020D2
:1053B000F4280020B74C0B2007F0CEFC2368002512
:1053C000187807F093FC23682646587807F08EFC7F
:1053D0003368B04C2B441879013507F087FC032D56
:1053E000F6D12368D87907F081FC2368987807F014
:1053F0007DFC2368D87807F079FC2368588907F08A
:10540000AEFC2368187AA6E2A34D1E2007F0A4FC88
:105410002B6800241B78022B65D12B6804F108024D
:1054200053F822009D4910F06BFE13F079FE80F3D3
:105430000800C0B207F05AFC2B68994903EB8403BB
:10544000D86A10F05DFE13F06BFE80F30800C0B266
:1054500007F04CFC2B6804F10E0253F8220091492E
:1054600010F04EFE13F05CFE80F30800C0B2013471
:1054700007F03CFC032CD0D1072C2B6821D1586CB1
:10548000864910F03DFE13F04BFE80F30800C0B2D9
:1054900007F02CFC2B688149986C10F031FE13F05A
:1054A0003FFE80F30800C0B207F020FC2B6893F8A1
:1054B0004C0010F0CDFD13F033FE80F30800C0B2B5
:1054C0000BE02344587807F011FC2B682344D87A6A
:1054D00007F00CFC2B682344587D013407F006FCD0
:1054E0000A2CC9D108E32B682344587807F0FEFB47
:1054F0002B682344D87A07F0F9FB2B682344587DA6
:10550000013407F0F3FB0A2CEDD1F5E23C2007F063
:1055100023FC0024604D04F108022B68614953F814
:10552000220010F0EDFD13F0FBFD80B207F017FC38
:105530002B685C4903EB8403D86A10F0E1FD13F09B
:10554000EFFD80B207F00BFC2B6804F10E0253F85C
:105550002200544910F0D4FD13F0E2FD013480B272
:1055600007F0FDFB032CD5D1072C2B6816D1586C06
:105570004C4910F0C5FD13F0D3FD80B207F0EFFBEE
:105580002B684849986C10F0BBFD13F0C9FD80B240
:1055900007F0E5FB2B6893F84C000BE023445878A8
:1055A00007F0DDFB2B682344D87A07F0D8FB2B6883
:1055B0002344587D013407F0D2FB0A2CD4D19BE25E
:1055C00014F8010F002800F0978207F08FFBF7E72F
:1055D000012007F0C1FB304B1B681878BBE150205D
:1055E00007F0BAFB00242C4B04F120021B680C21AD
:1055F00003EB82035D1D2C4A5B79013401FB03231D
:10560000187A07F073FB687807F070FBA87807F04A
:105610006DFBE87807F06AFB142CE4D16CE20626F7
:105620006E431D4BD0361B6801351E44B07A07F01F
:105630005DFB707907F05AFBB07907F057FBF07902
:1056400007F054FB307A07F051FB707A07F04EFBFD
:105650000C2DE4D150E2002701240025134B9A7849
:10566000954230DA0333E95C00230F4A03EB02086A
:105670009A5C8A4204D00C33B3F5A87FF5D120E0C0
:10568000D8F8040013F07CFB81460CB926460FE0E5
:10569000074416E0E81D0020501D002000002041B6
:1056A0000000C84200007A449CC20108382800204B
:1056B0004E4506DAD8F80430985D07F017FB01363E
:1056C000F6E70135CAE7002C00F01682F8B207F0C1
:1056D00043FB0024C1E7C24D0024A87807F03CFB3F
:1056E000AB789C4280F00882BE4BE05C0023BE4A4F
:1056F00099189A5C824204D00C33B3F5A87FF6D196
:1057000002E0087A07F0F2FA0134E9E7B74C162014
:1057100007F022FBB4F8960107F021FBB4F8400132
:1057200007F01DFBB4F8420107F019FBB4F844017F
:1057300007F015FBB4F8D80107F011FB94F8ED0160
:1057400007F0D4FA002007F0D1FA94F8EE0107F040
:10575000CDFA94F8850107F0C9FA94F8920107F0A0
:10576000C5FA002007F0C2FAA14B1B68B3F9560036
:105770000A2390FBF3F080B207F0F1FA86E0E0B282
:10578000013407F0B3FA092CF9D1B5E1102007F084
:10579000E3FA984B984C187800F0020007F0A6FA4C
:1057A000964B187807F0A2FA206807F0E1FA6068D3
:1057B00007F0DEFA924B188807F0D1FA914B18885F
:1057C00007F0CDFA864B588CD6E007F0DAFA064699
:1057D000122007F0C1FA0EB98B4B02E0102E03D154
:1057E0008A4B1D685C6801E000242546304607F0BE
:1057F0007DFA284607F0BCFA204607F0B9FA844B38
:10580000186807F0B5FA002007F0A9FA002007F0A1
:10581000A6FA00209FE0724D002495F824002E4641
:1058200080000130C0B207F097FA95F8240007F025
:105830005DFA96F824309C4280F05E81754D285DBB
:1058400007F054FA05F11003185D07F04FFA05F15F
:105850002003185D303507F049FA285D07F046FA55
:105860000134E6E7082007F077FA00246A4B185B5A
:10587000023407F074FA082CF8D13DE1186839E1D8
:10588000042007F069FA594B986833E194F87A01DB
:1058900007F02CFA94F87E0107F028FA94F87D01BD
:1058A00007F024FA94F87F0155E0504C072007F0E8
:1058B00053FAB4F8800107F052FAB4F8820107F005
:1058C0004EFA94F8840107F011FAB4F8860153E017
:1058D000464C0C2007F040FA94F8900107F006FAC5
:1058E000B4F89A0107F03BFAB4F8960107F037FADA
:1058F000B4F8980107F033FA94F8910107F0F6F93B
:10590000B4F89C0107F02BFAB4F89E0134E0344E51
:10591000424CB07F002500EB4000C0B207F01CFAFB
:10592000B37F02349D4280F0E78014F8020C07F048
:10593000DDF914F8010C013500EB800000EB80006C
:1059400000F2EE2007F00BFAEAE7012007F004FA74
:10595000264B93F8920107F0C9F9CDE0082007F033
:10596000FBF90024214B234493F88801013407F00C
:10597000BDF9082CF6D1BFE007F0F1F9BCE0184BF7
:105980001A4C93F86E0004F12005C0EBC000C0B2C1
:1059900007F0E2F994F8F4010023214AD25C904226
:1059A00000F0AE800C33302BF7D10834AC42F1D18B
:1059B000A2E0402007F0D0F90C4C04F14005B4F807
:1059C000A40207F0CCF994F8A60207F08FF904348A
:1059D00094F8A30207F08AF9AC42F0D18CE000BF42
:1059E000382800203B2800209CC20108EC1200202F
:1059F000501D0020E612002004290020D01C0020A9
:105A0000FE280020FC280020102800201C28002050
:105A1000981200205D2800209E2800208C14002071
:105A2000A8280020E02007F097F9424C04F18005F7
:105A3000B4F82602043400F03F0007F090F9B4F8FF
:105A40002202C0F3861007F08AF994F820020009B8
:105A500007F04CF994F8200200F00F0007F046F927
:105A600094F8210207F042F9AC42E1D144E0324C13
:105A70000D2007F071F903F0D5FF07F037F9208802
:105A800007F076F9E06807F073F90EF03FFD31E0BA
:105A900007F08CF90446842007F05EF9204607F0F1
:105AA00067F9254BDD6804F18003AB428CBFC4EB82
:105AB000050580250AF070FE20462A460AA903F053
:105AC000E9FF00240546AC4216DA0AA9085D07F092
:105AD0000DF90134F7E7132007F03EF90024174BC6
