:020000040800F2
:1000000000A00020A5130008BD4D0008251D010813
:10001000C94D0008D14D0008D94D0008000000006E
:10002000000000000000000000000000E14D00089A
:10003000ED4D000800000000F94D0008CD870108D3
:1000400019140008191400081914000819140008DC
:1000500019140008191400081914000819140008CC
:1000600019140008191400081914000819140008BC
:10007000191400081D240008493A00081914000842
:10008000191400081914000819140008191400089C
:10009000054E000819140008191400081914000866
:1000A0001914000815410008B1410008FD4000087E
:1000B0003D41000851410008694100081914000839
:1000C000191400081914000819140008191400085C
:1000D00019140008693B0008853B00081914000842
:1000E0006987010819140008114E00081914000846
:1000F00099410008191400088141000819140008EA
:1001000000000000000000000000000019140008BA
:10011000191400081914000819140008191400080B
:1001200019140008191400081914000819140008FB
:100130001914000819140008000000000000000055
:100140001914000819140008191400080000000010
:10015000000000000000000000000000000000009F
:100160000000000000000000191400081914000825
:10017000191400080000000000000000000000004A
:08018000000000001914000842
:1001880081F0004102E000BF83F0004330B54FEA40
:1001980041044FEA430594EA050F08BF90EA020FAD
:1001A8001FBF54EA000C55EA020C7FEA645C7FEA40
:1001B800655C00F0E2804FEA5454D4EB5555B8BF63
:1001C8006D420CDD2C4480EA020281EA030382EAD4
:1001D800000083EA010180EA020281EA0303362D66
:1001E80088BF30BD11F0004F4FEA01314FF4801C39
:1001F8004CEA113102D0404261EB410113F0004F4B
:100208004FEA03334CEA133302D0524263EB430301
:1002180094EA050F00F0A780A4F10104D5F1200E9F
:100228000DDB02FA0EFC22FA05F2801841F10001FA
:1002380003FA0EF2801843FA05F359410EE0A5F1CE
:1002480020050EF1200E012A03FA0EFC28BF4CF0FF
:10025800020C43FA05F3C01851EBE37101F00045B5
:1002680007D54FF0000EDCF1000C7EEB00006EEBC2
:100278000101B1F5801F1BD3B1F5001F0CD349084C
:100288005FEA30004FEA3C0C04F101044FEA4452A3
:1002980012F5800F80F09A80BCF1004F08BF5FEA2A
:1002A800500C50F1000041EB045141EA050130BD0A
:1002B8005FEA4C0C404141EB010111F4801FA4F1AD
:1002C8000104E9D191F0000F04BF01460020B1FA02
:1002D80081F308BF2033A3F10B03B3F120020CDA3A
:1002E8000C3208DD02F1140CC2F10C0201FA0CF018
:1002F80021FA02F10CE002F11402D8BFC2F1200C7D
:1003080001FA02F120FA0CFCDCBF41EA0C01904032
:10031800E41AA2BF01EB0451294330BD6FEA04047B
:100328001F3C1CDA0C340EDC04F11404C4F1200266
:1003380020FA04F001FA02F340EA030021FA04F378
:1003480045EA030130BDC4F10C04C4F1200220FACF
:1003580002F001FA04F340EA0300294630BD21FA0D
:1003680004F0294630BD94F0000F83F4801306BFD3
:1003780081F480110134013D4EE77FEA645C18BFC7
:100388007FEA655C29D094EA050F08BF90EA020F5E
:1003980005D054EA000C04BF1946104630BD91EA56
:1003A800030F1EBF0021002030BD5FEA545C05D159
:1003B8004000494128BF41F0004130BD14F5800498
:1003C8003CBF01F5801130BD01F0004545F0FE410C
:1003D80041F470014FF0000030BD7FEA645C1ABF41
:1003E800194610467FEA655C1CBF0B46024650EA78
:1003F800013406BF52EA033591EA030F41F40021A4
:1004080030BD00BF90F0000F04BF0021704730B529
:100418004FF4806404F132044FF000054FF00001FE
:1004280050E700BF90F0000F04BF0021704730B5BF
:100438004FF4806404F1320410F0004548BF404294
:100448004FF000013EE700BF42004FEAE2014FEAE9
:1004580031014FEA02701FBF12F07F4393F07F4FC4
:1004680081F06051704792F0000F14BF93F07F4FF6
:10047800704730B54FF4607401F0004521F0004139
:1004880020E700BF50EA010208BF704730B54FF0BF
:1004980000050AE050EA010208BF704730B511F0C4
:1004A800004502D5404261EB41014FF4806404F1FC
:1004B80032045FEA915C3FF4DCAE4FF003025FEA7E
:1004C800DC0C18BF03325FEADC0C18BF033202EB06
:1004D800DC02C2F1200300FA03FC20FA02F001FA60
:1004E80003FE40EA0E0021FA02F11444C1E600BFFF
:1004F80070B54FF0FF0C4CF4E06C1CEA11541DBFB2
:100508001CEA135594EA0C0F95EA0C0F00F0DEF87C
:100518002C4481EA030621EA4C5123EA4C5350EA61
:10052800013518BF52EA033541F4801143F48013B2
:1005380038D0A0FB02CE4FF00005E1FB02E506F043
:100548000042E0FB03E54FF00006E1FB03569CF098
:10055800000F18BF4EF0010EA4F1FF04B6F5007F9E
:1005680064F5407404D25FEA4E0E6D4146EB060610
:1005780042EAC62141EA55514FEAC52040EA5E5099
:100588004FEACE2EB4F1FD0C88BFBCF5E06F1ED843
:10059800BEF1004F08BF5FEA500E50F1000041EB7A
:1005A800045170BD06F0004646EA010140EA020027
:1005B80081EA0301B4EB5C04C2BFD4EB0C0541EA49
:1005C800045170BD41F480114FF0000E013C00F35E
:1005D800AB8014F1360FDEBF002001F0004170BD82
:1005E800C4F10004203C35DA0C341BDC04F114049B
:1005F800C4F1200500FA05F320FA04F001FA05F227
:1006080040EA020001F0004221F0004110EBD370F3
:1006180021FA04F642EB06015EEA430E08BF20EA1F
:10062800D37070BDC4F10C04C4F1200500FA04F3C2
:1006380020FA05F001FA04F240EA020001F0004154
:1006480010EBD37041F100015EEA430E08BF20EAC7
:10065800D37070BDC4F1200500FA05F24EEA020E0F
:1006680020FA04F301FA05F243EA020321FA04F03E
:1006780001F0004121FA04F220EA020000EBD370F5
:100688005EEA430E08BF20EAD37070BD94F0000FF5
:100698000FD101F00046400041EB010111F4801F29
:1006A80008BF013CF7D041EA060195F0000F18BFDA
:1006B800704703F00046520043EB030313F4801F16
:1006C80008BF013DF7D043EA0603704794EA0C0FD0
:1006D8000CEA135518BF95EA0C0F0CD050EA4106E6
:1006E80018BF52EA4306D1D181EA030101F0004163
:1006F8004FF0000070BD50EA410606BF104619468B
:1007080052EA430619D094EA0C0F02D150EA013696
:1007180013D195EA0C0F05D152EA03361CBF1046D7
:1007280019460AD181EA030101F0004141F0FE4176
:1007380041F470014FF0000070BD41F0FE4141F4FA
:10074800780170BD70B54FF0FF0C4CF4E06C1CEAFA
:1007580011541DBF1CEA135594EA0C0F95EA0C0FAF
:1007680000F0A7F8A4EB050481EA030E52EA03356A
:100778004FEA013100F088804FEA03334FF080558B
:1007880045EA131343EA12634FEA022245EA1115B8
:1007980045EA10654FEA00260EF000419D4208BF69
:1007A800964244F1FD0404F5407402D25B084FEA16
:1007B8003202B61A65EB03055B084FEA32024FF4C2
:1007C80080104FF4002CB6EB020E75EB030E22BF1F
:1007D800B61A754640EA0C005B084FEA3202B6EBDF
:1007E800020E75EB030E22BFB61A754640EA5C008E
:1007F8005B084FEA3202B6EB020E75EB030E22BF1E
:10080800B61A754640EA9C005B084FEA3202B6EB1E
:10081800020E75EB030E22BFB61A754640EADC00DD
:1008280055EA060E18D04FEA051545EA16754FEA3F
:1008380006164FEAC30343EA52734FEAC2025FEA5D
:100848001C1CC0D111F4801F0BD141EA00014FF0EC
:1008580000004FF0004CB6E711F4801F04BF0143BD
:100868000020B4F1FD0C88BFBCF5E06F3FF6AFAED9
:10087800B5EB030C04BFB6EB020C5FEA500C50F169
:10088800000041EB045170BD0EF0004E4EEA1131EC
:1008980014EB5C04C2BFD4EB0C0541EA045170BDF3
:1008A80041F480114FF0000E013C90E645EA060E37
:1008B8008DE60CEA135594EA0C0F08BF95EA0C0F65
:1008C8003FF43BAF94EA0C0F0AD150EA01347FF4AD
:1008D80034AF95EA0C0F7FF425AF104619462CE784
:1008E80095EA0C0F06D152EA03353FF4FDAE1046E7
:1008F800194622E750EA410618BF52EA43067FF438
:10090800C5AE50EA41047FF40DAF52EA43057FF4C7
:10091800EBAE12E74FF0FF3C06E000BF4FF0010CD2
:1009280002E000BF4FF0010C4DF804CD4FEA410C36
:100938007FEA6C5C4FEA430C18BF7FEA6C5C1BD003
:1009480001B050EA410C0CBF52EA430C91EA030F84
:1009580002BF90EA020F0020704710F1000F91EAE1
:10096800030F58BF994208BF90422CBFD8176FEAAF
:10097800E37040F0010070474FEA410C7FEA6C5C7D
:1009880002D150EA013C07D14FEA430C7FEA6C5C84
:10099800D6D152EA033CD3D05DF8040B704700BFB0
:1009A8008446104662468C461946634600E000BFFE
:1009B80001B5FFF7B7FF002848BF10F1000F01BDD0
:1009C8004DF808EDFFF7F4FF0CBF012000205DF89B
:1009D80008FB00BF4DF808EDFFF7EAFF34BF012020
:1009E80000205DF808FB00BF4DF808EDFFF7E0FFB9
:1009F80094BF012000205DF808FB00BF4DF808ED0A
:100A0800FFF7CEFF94BF012000205DF808FB00BF70
:100A18004DF808EDFFF7C4FF34BF012000205DF852
:100A280008FB00BF4FEA410212F5001215D211D59A
:100A38006FF47873B3EB625212D94FEAC12343F0D3
:100A4800004343EA505311F0004F23FA02F018BF55
:100A5800404270474FF00000704750EA013005D11E
:100A680011F0004008BF6FF0004070474FF00000E1
:100A7800704700BF4FEA4102B2F1E04324BFB3F52B
:100A8800001CDCF1FE5C0DD901F0004C4FEAC002FD
:100A98004CEA5070B2F1004F40EB830008BF20F0E1
:100AA8000100704711F0804F21D113F13872BCBF9B
:100AB80001F00040704741F480114FEA5252C2F1F0
:100AC8001802C2F1200C10FA0CF320FA02F018BF39
:100AD80040F001004FEAC1234FEAD32303FA0CFC8C
:100AE80040EA0C0023FA02F34FEA4303CCE77FEA1B
:100AF800625307D150EA01331EBF4FF0FE4040F465
:100B08004000704701F0004040F0FE4040F4000013
:100B1800704700BF80F0004002E000BF81F0004154
:100B280042001FBF5FEA410392EA030F7FEA226C8B
:100B38007FEA236C6AD04FEA1262D2EB1363C1BF1B
:100B4800D218414048404140B8BF5B42192B88BF8A
:100B5800704710F0004F40F4000020F07F4018BFAD
:100B6800404211F0004F41F4000121F07F4118BFCD
:100B7800494292EA030F3FD0A2F1010241FA03FC75
:100B880010EB0C00C3F1200301FA03F100F000435D
:100B980002D5494260EB4000B0F5000F13D3B0F125
:100BA800807F06D340084FEA310102F10102FE2A94
:100BB80051D2B1F1004F40EBC25008BF20F0010004
:100BC80040EA03007047490040EB000010F4000FB2
:100BD800A2F10102EDD1B0FA80FCACF1080CB2EB45
:100BE8000C0200FA0CF0AABF00EBC25052421843A4
:100BF800BCBFD0401843704792F0000F81F4000149
:100C080006BF80F400000132013BB5E74FEA41031B
:100C18007FEA226C18BF7FEA236C21D092EA030F87
:100C280004D092F0000F08BF0846704790EA010F01
:100C38001CBF0020704712F07F4F04D1400028BF2E
:100C480040F00040704712F100723CBF00F5000010
:100C5800704700F0004343F0FE4040F40000704746
:100C68007FEA226216BF08467FEA236301464202F2
:100C780006BF5FEA412390EA010F40F48000704705
:100C88004FF0000304E000BF10F0004348BF4042AB
:100C98005FEA000C08BF704743F0964301464FF0E7
:100CA80000001CE050EA010208BF70474FF0000343
:100CB8000AE000BF50EA010208BF704711F0004384
:100CC80002D5404261EB41015FEA010C02BF844654
:100CD8000146002043F0B64308BFA3F18053A3F5B3
:100CE8000003BCFA8CF2083AA3EBC25310DB01FAFA
:100CF80002FC634400FA02FCC2F12002BCF1004F7E
:100D080020FA02F243EB020008BF20F0010070470E
:100D180002F1200201FA02FCC2F1200250EA4C0062
:100D280021FA02F243EB020008BF20EADC707047A8
:100D380073B96AB9002908BF0028BCBF00204FF06A
:100D48000041C4BF6FF000414FF0FF3000F076B8AB
:100D580082B0EC462DE9005000F040F8DDF804E0E0
:100D680002B00CBC704700BF07EE900AF5EEC07ADF
:100D7800F1EE10FA08B503D4BDE8084000F00AB84F
:100D8800F1EE677A17EE900A00F004F8404261EB42
:100D9800410108BD70B5FFF757FB00220D4B044613
:100DA8000D46FFF7A5FB00F04BF80646FFF72AFBB8
:100DB8000022094BFFF79CFB02460B4620462946BA
:100DC800FFF7E2F900F03CF8002242EA000420466E
:100DD800314670BD0000F03D0000F0412DE9704340
:100DE800069E14461D468046894600F049F804FBD5
:100DF80001F300FB0533A4FB00451D44B8EB0404D4
:100E080069EB0505C6E90045BDE870832DE9704327
:100E1800069E1446804689461D4600F07DF900FB73
:100E280005F504FB0153A0FB04451D44B8EB04047D
:100E380069EB0505C6E90045BDE87083704700BF4A
:100E48004A0011D212F5001211D20DD56FF4787341
:100E5800B3EB62520ED44FEAC12343F0004343EA96
:100E6800505323FA02F070474FF00000704750EAE1
:100E7800013002D14FF0FF3070474FF0000070474B
:100E880000292DE9F00FC0F29F800024002BC0F24A
:100E98009680154606460F46002B3ED18A4257D902
:100EA800B2FA82F34BB1C3F1200201FA03F720FA38
:100EB80002F29D40174300FA03F6290CB7FBF1F242
:100EC800330C01FB127CA8B243EA0C4700FB02F387
:100ED800BB4209D97F1902F1FF3C80F00181BB4276
:100EE80040F2FE80023A2F44FF1AB7FBF1F3B6B284
:100EF80001FB137146EA014100FB03F0884208D95F
:100F0800491903F1FF3780F0ED80884240F2EA800A
:100F1800023B43EA0242002303E08B420AD9002342
:100F28001A461046194614B1404261EB4101BDE82A
:100F3800F00F7047B3FA83F8B8F1000F40F08480DF
:100F48008B4202D3824200F2DE8000230122E8E7CE
:100F580012B90123B3FBF2F5B5FA85F2002A39D1AB
:100F68007F1B280C1FFA85FC0123B7FBF0F1320C1C
:100F780000FB117742EA07470CFB01F2BA4207D996
:100F88007F1901F1FF3802D2BA4200F2C18041460E
:100F9800BF1AB7FBF0F2B6B200FB127046EA004087
:100FA8000CFB02FC844507D9401902F1FF3702D235
:100FB800844500F2AB803A4642EA0142B1E7E44395
:100FC800524263EB430364E7404261EB41014FF057
:100FD800FF345BE79540C2F1200327FA03F1280CA0
:100FE80026FA03F39740B1FBF0F81F433B0C00FBD4
:100FF80018111FFA85FC43EA01410CFB08F38B42E8
:1010080006FA02F608D9491908F1FF3279D28B425B
:1010180077D9A8F102082944C91AB1FBF0F3BFB285
:1010280000FB131147EA01470CFB03F2BA4207D948
:101038007F1903F1FF3160D2BA425ED9023B2F44D7
:10104800BF1A43EA084390E7C8F1200203FA08FCF4
:1010580025FA02F343EA0C0C4FEA1C4921FA02F381
:1010680001FA08F720FA02F2B3FBF9F1174309FB7A
:1010780011333A0C1FFA8CFB42EA03430BFB01FACB
:101088009A4505FA08F008D913EB0C0301F1FF3271
:1010980035D29A4533D902396344CAEB0303B3FB0B
:1010A800F9F209FB1233BFB247EA03470BFB02F917
:1010B800B94508D917EB0C0702F1FF331BD2B94524
:1010C80019D9023A674442EA0145A5FB0001C9EB78
:1010D80007078F424FF000030AD305D02A4620E7BE
:1010E800624601E73B4614E706FA08F68642F5D25F
:1010F8006A1E002315E71A46E5E70B46A0E71146E6
:10110800CBE7904688E7434642460AE7023A53E768
:1011180002392F443CE700BF2DE9F00F144605467D
:101128000E46002B43D18A4253D9B2FA82F757B1FF
:10113800C7F1200620FA06F601FA07F302FA07F4C7
:101148001E4300FA07F5210CB6FBF1F22B0C01FB4C
:101158001267A0B243EA074600FB02F3B34209D97B
:10116800361902F1FF3780F0F680B34240F2F3807F
:10117800023A2644F61AB6FBF1F3ADB201FB13614D
:1011880045EA014100FB03F0884208D9091903F137
:10119800FF3680F0E280884240F2DF80023B43EA7B
:1011A8000242002310461946BDE8F00F70478B42F3
:1011B8004AD8B3FA83F6002E4DD18B4202D382422D
:1011C80000F2D6800023012210461946BDE8F00F30
:1011D800704712B90124B4FBF2F4B4FA84F2002A7D
:1011E8007CD1091B260CA7B20123B1FBF6F02A0C0F
:1011F80006FB101142EA014107FB00F28A4207D9B7
:10120800091900F1FF3C02D28A4200F2C38060460D
:10121800891AB1FBF6F2ADB206FB121145EA014597
:1012280007FB02F7AF4208D92C1902F1FF3180F011
:101238009680A74240F29380023A42EA0042104662
:101248001946BDE8F00F704700231A4610461946A4
:10125800BDE8F00F7047C6F1200522FA05F4B34047
:101268001C434FEA144821FA05F301FA06F720FA5D
:1012780005F5B3FBF8FC2F4308FB1C333D0C1FFAA4
:1012880084FA45EA03430AFB0CF9994502FA06FB7E
:1012980004D91B190CF1FF326DD39446C9EB030333
:1012A800B3FBF8F508FB1533BFB247EA03470AFB5F
:1012B80005F8B84504D93F1905F1FF3361D31D4638
:1012C80045EA0C4CACFB0B23C8EB07079F424FF0D9
:1012D800000549D345D062462B4663E79440C2F1E6
:1012E800200321FA03FC260C20FA03F301FA02F585
:1012F800BCFBF6F843EA05010B0C06FB18CCA7B2B9
:1013080043EA0C4C07FB08F3634500FA02F509D9D8
:101318001CEB040C08F1FF323AD2634538D9A8F126
:101328000208A444C3EB0C0CBCFBF6F389B206FB21
:1013380013CC41EA0C4107FB03F28A4207D9091989
:1013480003F1FF3022D28A4220D9023B2144891A74
:1013580043EA084349E73A460CE733461FE70A469B
:101368006BE7B0409042B6D20CF1FF32002319E788
:101378003346324616E799458FD9ACF1020C23441F
:101388008CE7B8459BD9023D274499E70346DEE739
:101398009046C7E7023821443AE700BF1448154988
:1013A800026800608A4200F01E80002100F004B844
:1013B800114B5B58435004311048114B42189A4264
:1013C800FFF4F6AF0F4A00F003B8002342F8043BDD
:1013D8000D4B9A42FFF4F9AF0DF058FE10F096FC51
:1013E8007047FFF7FEBF0948D0F800D040680047B3
:1013F800FC9F0020EFBEADDE1CDF020800000020CD
:10140800C4010020C8010020583A002000D8FF1F5E
:10141800FFF7FEBF80B483B000AF0346FB71FB79D2
:10142800074A9B0013445B781A46064B33F8123080
:101438009BB218460C37BD465DF8047B704700BF69
:101448000C1E0020041E002080B59EB000AF7860FE
:10145800002387F87630B1480021102228F012F9CD
:1014680007F12003184622F073FD032387F8243080
:10147800002387F827307B681B78002B19D00123BD
:101488003B6207F12003A648194622F0C9FCA34B8A
:1014980006221A70A14B97F876205A709F4B0722A4
:1014A800DA709E4B01229A7097F87630013387F8EC
:1014B80076307B685B78002B19D004233B6207F1F8
:1014C80020039748194622F0ABFC944B08221A7166
:1014D800924B97F876205A71904B0722DA718F4B0E
:1014E80001229A7197F87630013387F876307B6855
:1014F8009B78002B19D002233B6207F12003884810
:10150800194622F08DFC854B07221A73834B97F8F6
:1015180076205A73814B0722DA73804B01229A7323
:1015280097F87630013387F8763008233B6207F165
:1015380020037B48194622F073FC784B09221A7263
:10154800764B97F876205A72744B0722DA72734BEF
:1015580001229A7297F87630013387F876304FF483
:10156800D87022F0F9FF6F48012123F05DF86E482A
:1015780024F07AFE07F12803184624F071FF6B4B1C
:10158800BB626B4BFB6200233B6397F876309BB2E0
:10159800BB860023BB6397F87630012B01D98023E3
:1015A80000E00023FB634FF480733B644FF48063D7
:1015B8007B642023BB644FF40053FB6400233B652A
:1015C80007F128035848194624F00AFF5648012114
:1015D80024F070FF4FF0A040012123F04DFB0A20BA
:1015E80017F06CF94FF0A040002123F019FB4FF0E1
:1015F800A04023F005FB00BF4FF0A04023F026FBDE
:101608000346002BF8D14FF0A040002123F034FB13
:1016180007F10C03184623F0BFFA0023FB604FF4D0
:1016280040333B614FF400437B610223BB610023DD
:101638003B7707F10C034FF0A040194623F05EFA00
:1016480007F15403184623F037FA4FF400537B652B
:101658000023BB650023FB6500233B6600237B66F4
:101668000023BB660023FB6697F8763087F8703056
:1016780007F154034FF0A040194623F0DDF9012388
:1016880087F87530002387F8773024E097F87730AB
:10169800224A9B0013449B7883F00103DBB2002BA2
:1016A80000D013E097F877201C4B13F8221097F816
:1016B8007520531C87F8753097F8773017489B00CA
:1016C8000344DB784FF0A04023F0F8FA97F877301E
:1016D800013387F8773097F87730032BD6D94FF056
:1016E800A040012123F070FA00BF4FF0A040012173
:1016F80023F018FC0346002BF7D04FF0A04002213E
:1017080023F0FAFB4FF0A040012123F0D9FB4FF062
:10171800A04023F0C5FB7837BD4680BD0C1E0020D5
:101728000008004801000010080002404000005076
:10173800041E002080B483B000AF7860064B1B887D
:101748009BB201339AB2044B1A80002318460C3717
:10175800BD465DF8047B7047381D002090B58DB0FC
:1017680000AF0346FB71FB79674A2C2101FB03F3A9
:1017780013441B68FB62FB79634A2C2101FB03F3CA
:10178800134408335A68FB795F492C2000FB03F3A4
:101798000B4418335B6813431846012122F044FFB9
:1017A800FB79594A2C2101FB03F3134420335B686E
:1017B8001846012122F074FFFB79534A2C2101FBC2
:1017C80003F3134428331B68184622F0EBFEFB7919
:1017D8004D4A2C2101FB03F313445968FB794A4A0B
:1017E8002C2000FB03F3134410331A88FB79464876
:1017F8002C2404FB03F3034410339B78084611465A
:101808001A4622F0DBFBFB793F4A2C2101FB03F34C
:10181800134410335968FB793B4A2C2000FB03F32F
:10182800134420331A88FB7937482C2404FB03F32C
:10183800034420339B78084611461A4622F0BEFB23
:1018480007F12403184622F083FB07F10803184622
:1018580024F058FC022387F82830032387F829301E
:10186800002387F82A30002387F82B30FB79264A93
:101878002C2101FB03F3134408331B887B62FB799B
:10188800214A2C2101FB03F313445A6807F124036E
:101898001046194622F0C4FAFB791B4A2C2101FB99
:1018A80003F3134418331B887B62FB79164A2C21F7
:1018B80001FB03F3134410335A6807F1240310465D
:1018C800194622F0ADFA07F10803184624F01AFC6D
:1018D80000237B610023FB6000233B610023BB6185
:1018E8000023FB6100233B62084BBB6007F1080340
:1018F800F86A194624F0A2FBF86A012124F022FCB8
:101908003437BD4690BD00BF40B902087A25E000D3
:1019180080B582B000AF0346FB71FB791846FFF72C
:101928001DFF0837BD4680BD80B400AF034B1B8840
:101938009BB21846BD465DF8047B7047381D0020F1
:1019480080B586B002AFF871B9717A713B713B7995
:10195800624A2C2101FB03F313441B68FB60FB79EB
:101968005B00FB715E4B4FF420421A6010E05C4B49
:101978001B68591E5A4A1160002B09D1F868FFF7F5
:10198800D9FE0346002B0CBF00230123DBB2A1E0E4
:10199800F8684FF4004124F039FC0346002BE6D1E7
:1019A800FB799BB24FF400520092F8681946012265
:1019B8004FF0807324F0E2FB494B4FF420421A6049
:1019C80010E0474B1B68591E454A1160002B09D18E
:1019D800F868FFF7AFFE0346002B0CBF0023012376
:1019E800DBB277E0F868022124F010FC0346002BF4
:1019F800E7D0BB79F868194624F0ECFB384B4FF474
:101A080020421A6010E0364B1B68591E344A116098
:101A1800002B09D1F868FFF78DFE0346002B0CBF99
:101A280000230123DBB255E0F868802124F0EEFBA7
:101A38000346002BE7D0FB799BB200220092F8689E
:101A4800194601224FF0007324F098FB244B4FF401
:101A580020421A6010E0224B1B68591E204A116070
:101A6800002B09D1F868FFF765FE0346002B0CBF71
:101A780000230123DBB22DE0F868022124F0C6FB25
:101A88000346002BE7D07B79F868194624F0A2FBBF
:101A9800134B4FF420421A6010E0114B1B68591E7B
:101AA8000F4A1160002B09D1F868FFF743FE03467F
:101AB800002B0CBF00230123DBB20BE0F8682021C8
:101AC80024F0A4FB0346002BE7D0F868202124F07B
:101AD800BDFB012318461037BD4680BD40B902083A
:101AE8009806002080B586B002AF3B600346FB71C4
:101AF8000B46BB7113467B713B7E694A2C2101FB67
:101B080003F313441B68FB60FB795B00FB71654BB7
:101B18004FF420421A6010E0624B1B68591E614A5C
:101B28001160002B09D1F868FFF704FE0346002B6B
:101B38000CBF00230123DBB2AEE0F8684FF400418C
:101B480024F064FB0346002BE6D1FB799BB24FF4EB
:101B580000520092F86819460122002324F00EFB77
:101B6800504B4FF420421A6010E04E4B1B68591E30
:101B78004C4A1160002B09D1F868FFF7DBFD0346DA
:101B8800002B0CBF00230123DBB285E0F86802219B
:101B980024F03CFB0346002BE7D0BB79F8681946D4
:101BA80024F018FB3F4B4FF420421A6010E03D4BE5
:101BB8001B68591E3B4A1160002B09D1F868FFF7D2
:101BC800B9FD0346002B0CBF00230123DBB263E001
:101BD800F868402124F01AFB0346002BE7D0FB7974
:101BE8009AB27B794FF410510091F86811461A4661
:101BF8004FF0007324F0C2FA29E02A4B4FF4204238
:101C08001A6010E0274B1B68591E264A1160002BEA
:101C180009D1F868FFF78EFD0346002B0CBF00239F
:101C28000123DBB238E0F868042124F0EFFA034618
:101C3800002BE7D0F86824F0DBFA03461A463B6825
:101C48001A703B6801333B607B79013B7B717B7980
:101C5800002BD2D1134B4FF420421A6010E0114BE5
:101C68001B68591E0F4A1160002B09D1F868FFF74D
:101C780061FD0346002B0CBF00230123DBB20BE000
:101C8800F868202124F0C2FA0346002BE7D0F86850
:101C9800202124F0DBFA012318461037BD4680BD09
:101CA80040B902089806002080B588B000AF4FF40C
:101CB8008050012122F0D6FC4FF48050012122F0FF
:101CC8002BFD4FF40030012122F0AEFC4FF0904084
:101CD8000521052222F072F94FF0904006210522D5
:101CE80022F06CF94FF090400721052222F066F9A6
:101CF8004FF090400421052222F060F9E0237B6038
:101D080002233B7203237B720023BB720023FB7206
:101D18003B1D4FF09040194622F082F810237B605B
:101D280001233B7203237B720023BB720023FB72E7
:101D38003B1D4FF09040194622F072F8144822F0EB
:101D480035FD4FF48273FB810023BB814FF4E063C0
:101D58003B824FF40073FB8200237B830723BB8302
:101D680002237B820123BB8210233B8308484FF464
:101D7800805122F0FFFD07F10C030548194622F0B7
:101D88004FFD0348012122F0D5FD2037BD4680BD17
:101D98000030014080B582B000AF78607A68064BA9
:101DA8009A4203D1FFF780FF012300E00023184681
:101DB8000837BD4680BD00BF0030014080B483B005
:101DC80000AF78607A68154B9A4207D1144B1B888C
:101DD8009BB201339AB2124B1A8016E07A68114B03
:101DE8009A4207D1104B1B889BB201339AB20E4B13
:101DF8001A800AE00D4B1B889BB201339AB20B4B39
:101E08001A800A4B1B889BB201E04FF0FF3318463B
:101E18000C37BD465DF8047B704700BF00300140B9
:101E28003A1D0020003800403C1D00203E1D0020C7
:101E380080B584B000AF78600B46FB704FF47A73BE
:101E4800FB810AE0FB895A1EFA81002B05D17868CC
:101E5800FFF7B4FF0346DBB225E07868022122F0E1
:101E6800CFFD0346002BEDD0FB787868194622F0A9
:101E78009DFD4FF47A73FB810AE0FB895A1EFA81B3
:101E8800002B05D17868FFF799FF0346DBB20AE01B
:101E98007868012122F0B4FD0346002BEDD0786864
:101EA80022F09AFD034618461037BD4680BD00BF94
:101EB80080B584B000AF78600B467B8078680021DD
:101EC80022F038FD7B681B88FB817B88102B2CD087
:101ED800102B06DC042B16D0082B1DD0022B0DD09E
:101EE80050E0402B33D0402B02DC202B26D049E099
:101EF800802B35D0B3F5807F3BD043E0FB8923F0BE
:101F08003803FB813EE0FB8923F03803FB81FB8922
:101F180043F00803FB8135E0FB8923F03803FB819C
:101F2800FB8943F01003FB812CE0FB8923F0380385
:101F3800FB81FB8943F01803FB8123E0FB8923F035
:101F48003803FB81FB8943F02003FB811AE0FB89FE
:101F580023F03803FB81FB8943F02803FB8111E060
:101F6800FB8923F03803FB81FB8943F03003FB81B5
:101F780008E0FB8923F03803FB81FB8943F0380331
:101F8800FB8100BF7B68FA891A807868012122F0FA
:101F9800D1FC1037BD4680BD80B588B000AF7860F1
:101FA80039600023FB613FE0FB69012202FA03F379
:101FB8007B613B681B881A467B691340002B30D035
:101FC8007B69FB603B689B7803F00303DBB23B74DF
:101FD8000123FB763B68DB78022B06D0032B07D066
:101FE800012B08D10123FB7605E00223FB7602E0F2
:101FF8000323FB7600BFFB7E7B743B689B7803F072
:1020080030031B11DBB2BB743B689B7803F00C03F5
:102018009B10DBB2FB7407F10C037868194621F0BA
:10202800FFFEFB690133FB61FB690F2BBCD920372D
:10203800BD4680BD80B483B000AF78600B467B801E
:102048007B687A881A850C37BD465DF8047B704733
:1020580090B587B000AF1C4B3C460FCB84E80F000F
:102068000223FB744FF40010012122F0DDFA4FF433
:102078000010012122F0D8FA14484FF48851FFF7D4
:10208800D9FF12484FF48841FFF7D4FF00237B6142
:1020980012E07B69DB0007F11802134453F8182C8F
:1020A80039467B69DB000B44043310461946FFF7B9
:1020B80073FF7B6901337B61FA7C7B699A42E8D8BC
:1020C8001C37BD4690BD00BFA49A02080010004806
:1020D80080B483B000AF03463960FB80FB880549B4
:1020E8003A689B000B44106818600C37BD465DF8D1
:1020F800047B70479C06002080B483B000AF034681
:102108003960FB80FB883A6804499B000B441868D7
:1021180010600C37BD465DF8047B70479C060020B4
:1021280080B584B000AF78600023FB8107E0FB89AD
:1021380018467968FFF7CCFFFB890133FB81FB89DF
:102148001F2BF4D91037BD4680BD00BF80B500AF46
:102158000548002140F22A3227F094FA00F096F858
:1021680000F050F880BD00BF1C1E002080B400AFF6
:10217800064B1B78DBB2002B14BF00230123DBB214
:102188001846BD465DF8047B704700BF8A1D0020D5
:1021980080B485B000AF78607B685B781A047B6890
:1021A8001B781B021A437B689B781343BB60172379
:1021B800FB7319E0114B1B885A1C91B20F4A11800E
:1021C800194697F90F30012202FA03F31A46BB6841
:1021D8001340002B01D0432300E02123084A42F892
:1021E8002130FB7B013BFB7397F90F30002BE1DAC1
:1021F8001437BD465DF8047B704700BF401D0020C2
:102208001C1E002080B500AF04E01A4B1B685A1C46
:10221800184B1A60184B1B78DBB2002BF5D1174B03
:1022280000221A80164B00221A8017E0144B1B88D4
:102238001BB29A00134B1344184605F011FF0246CF
:10224800114B1A60104B1B681846FFF7A1FF0C4B87
:102258001B889BB201339AB2094B1A80084B1B8822
:102268001BB21F2BE2DD044B01221A7000F0ECF8C0
:1022780080BD00BF1C0700208A1D0020401D0020D3
:10228800421D00209C0600202007002080B598B041
:1022980000AF4FF48020012122F0C6F955480821EB
:1022A800012221F08BFE07F13403184621F050FE7D
:1022B8004FF480737B63022387F83830002387F854
:1022C8003A30012387F83B30032387F8393007F188
:1022D80034034848194621F0A3FD4FF4003001218A
:1022E80022F0C0F9444B1A68444BA3FB02135B0D60
:1022F8009BB2013BA7F85E3007F15003184622F065
:10230800A1FE1D237B65B7F85E30A7F85030002387
:10231800A7F858300023A7F8523007F1500338487F
:10232800194622F019FE07F13C03184623F0BCF8C1
:102338006023FB630123A7F8403000237B6400235C
:10234800A7F8483007F13C032D48194622F0C2FE91
:102358002B48082123F0CAF82948012123F004FA60
:102368000120012122F060F9264823F07DFF07F1C2
:102378000803184624F074F8234BBB60234BFB601A
:1023880010233B6140F22A33BB820023BB618023C8
:10239800FB614FF480733B6200237B620023BB62C6
:1023A8004FF40053FB6200233B6307F10803154811
:1023B800194624F015F812484FF40071012223F051
:1023C8000FFA10480221012224F0ACF80D233B71CA
:1023D80001237B710023BB710123FB713B1D184650
:1023E80023F034FB0A48FFF79BFEFFF70BFF60372B
:1023F800BD4680BD000400480C010020819F5E1688
:102408000044014030000240344401401C1E0020BA
:1024180054BE020880B500AF4FF4007024F0A0F855
:102428000346002B0AD0064B00221A7005480021EB
:1024380024F040F84FF4007024F0BCF880BD00BFD1
:102448008A1D00203000024080B500AF084840F2E5
:102458002A3124F04BF80748002122F00DFE0548E8
:10246800012122F017FE0248012124F023F880BD43
:10247800300002400044014080B588B000AF786069
:102488000023FB610023BB618C480021022227F056
:10249800F9F87B681B7C002B01D00223FB617B6869
:1024A8005B78002B03D17B689B78002B02D0FB69FB
:1024B8000133FB61824BFA6953F822303B610023F8
:1024C800FB61E8E0FB695B003A6913441B88FB7316
:1024D800FB695B003A6913441B881B0A9BB2FB75B6
:1024E800FB7B1A01774B1344BB607B685B7A002B3C
:1024F80005D0BB681A68744B9A4200D1C8E07B6863
:102508009B79002B09D0BB685A68704B9A4204D15A
:10251800BB681B89012B00D1BAE07B68DB78002BF4
:1025280009D0BB685A68694B9A4204D1BB681B89B9
:10253800042B00D1ACE07B681B79002B09D0BB6869
:102548005A68624B9A4204D1BB681B89022B00D19E
:102558009EE0FB7D022B07D17B681B7883F001038B
:10256800DBB2002B00D093E0FB7D012B07D17B6809
:102578005B7883F00103DBB2002B00D088E07B6836
:102588009B7A002B1BD07B681B7C83F00103DBB29A
:10259800002B14D07B681B7A002B08D0FB7B042B04
:1025A80002D0FB7B052B0AD10423FB7507E0FB7BDC
:1025B800082B02D0FB7B092B01D10423FB757B6818
:1025C800DB7A002B0ED07B681B7C83F00103DBB227
:1025D800002B07D0FB7B032B04D9FB7B072B01D8EF
:1025E8000423FB75FB7D012B03D1B86800F06CFD5B
:1025F8004EE0FB7D022B09D1BB69DBB2B8681946F6
:1026080000F00CFDBB690133BB6141E0FB7D032B8E
:102618002CD17B68DB79002B06D0284B5B78B86817
:10262800194600F07BFA1AE07B685B8A184600F0CE
:1026380013FA0346002B09D0204B59787B685A8A35
:102648007B689B8AB86800F019FA08E01B4B597838
:102658007B685A8A7B689B8AB86800F037FA174B00
:102668005B780133DAB2154B5A7011E0FB7D042B0D
:102678000ED1124B19787B689A897B68DB89B86818
:1026880000F06CFA0D4B1B780133DAB20B4B1A7061
:10269800FB690133FB61FB690D2B09DCFB695B00FE
:1026A8003A6913441A884FF6FF739A427FF40AAFC7
:1026B800024B18462037BD4680BD00BF24070020C6
:1026C80008BA020838BA0208004401400008004865
:1026D80080B588B000AF786013460A46FA703B8030
:1026E80007F10C03184622F0DFFE7023FB6001237C
:1026F8003B8200237B823B887B6102233B834FF430
:102708008073BB83FB780C2B48D801A252F823F0C6
:102718004D270008A5270008A5270008A5270008B9
:1027280063270008A5270008A5270008A527000893
:1027380079270008A5270008A5270008A52700086D
:102748008F27000807F10C037868194622F0C2FCAD
:102758007868082122F0CAFE20E007F10C037868A7
:10276800194622F043FD7868082122F0DBFE15E0C7
:1027780007F10C037868194622F0B8FD786808213B
:1027880022F0ECFE0AE007F10C037868194622F003
:102798002BFE7868082122F0FDFE00BF2037BD46D9
:1027A80080BD00BF80B586B000AFF860B960134641
:1027B800FB71BB689BB2BB82FB79BB750223FB75BF
:1027C80007F11403F8681946FFF7E6FB1837BD460A
:1027D80080BD00BF80B586B000AFF860F9723A815D
:1027E800FB803F4B1B785A1CD1B23D4A11701A012D
:1027F8003C4B13447B61FB6819683A89FB7A0846AD
:1028080011461A4601F0C6FAFB685A68FB681B892C
:10281800104619460222FFF7C5FFFB681968FB68D6
:102828009A7AFB88084611461A46FFF751FFFB685B
:102838001B7B002B05D0FB681B681846012122F082
:1028480093FFFB681B681846012122F023FCFB68F4
:102858009B7A0C2B38D801A252F823F0992800084B
:10286800D1280008D1280008D1280008A728000886
:10287800D1280008D1280008D1280008B528000868
:10288800D1280008D1280008D1280008C32800084A
:10289800FB681B6803F134027B691A6014E0FB686B
:1028A8001B6803F138027B691A600DE0FB681B683E
:1028B80003F13C027B691A6006E0FB681B6803F1C0
:1028C80040027B691A6000BF7B693A891A81FB68FC
:1028D8001A687B695A607B6918461837BD4680BDFF
:1028E8008B1D00202807002080B483B000AF02466B
:1028F8000B46FA71BB80FA790C4B53F822301A68F0
:10290800BB88A3F57A73F879084951F8201009892A
:1029180001FB03F3064981FB03018911DB17CB1A7D
:1029280013600C37BD465DF8047B704768080020CB
:10293800D34D621080B483B000AF02460B46FA71E3
:10294800BB80FA79054B53F822301B68BA881A60A5
:102958000C37BD465DF8047B704700BF680800204F
:1029680080B582B000AF02460B46FA71BB80FA7997
:102978000A4B53F82230002B0CD0FB790B2B09D8CB
:10298800FA79064B53F82230DB68F979BA88084699
:10299800114698470837BD4680BD00BF680800202B
:1029A80080B485B000AF0346FB710023FB7309E0D8
:1029B800FA7B094B53F822301B6800221A60FB7B14
:1029C8000133FB73FA7BFB799A42F1D31437BD4686
:1029D8005DF8047B704700BF6808002080B584B0AC
:1029E80000AF0346FB710023BB600023FB7318E0B4
:1029F800FA7B184B53F822305A68BB689A420DD0BC
:102A0800FA7B144B53F822305B68BB60FA7B114B9E
:102A180053F822305B68184601F030FCFB7B013329
:102A2800FB73FA7BFB799A42E2D30023FB7309E03C
:102A3800FA7B084B53F822301B6800221A60FB7B94
:102A48000133FB73FA7BFB799A42F1D31037BD4609
:102A580080BD00BF6808002080B483B000AF034683
:102A6800FB80FB88B3F5FA7F94BF00230123DBB218
:102A780018460C37BD465DF8047B704790B587B0A3
:102A880000AFF860F9723A81FB800D4B7B61FC7AEC
:102A98003B897A69B2FBF3F39AB2FB88F86808219C
:102AA800FFF798FE0246074B43F82420FA7A054BB5
:102AB80053F82230044ADA601C37BD4690BD00BF87
:102AC80000127A0068080020F128000890B587B045
:102AD80000AFF860F9723A81FB800D4B7B61FC7A9C
:102AE8003B897A69B2FBF3F39AB2FB88F868012153
:102AF800FFF770FE0246074B43F82420FA7A054B8D
:102B080053F82230044ADA601C37BD4690BD00BF36
:102B180040420F00680800203D29000890B583B0A6
:102B280000AF78600B46FB70FC78786808214FF698
:102B3800FF720023FFF74EFE0246064B43F824209F
:102B4800FA78044B53F82230034ADA600C37BD4652
:102B580090BD00BF680800203D29000890B585B0E9
:102B680000AFF860F9723A81FB80FC7A3B89084A29
:102B780092FBF3F39AB2FB88F8680121FFF72AFE6B
:102B88000246044B43F824201437BD4690BD00BFCD
:102B980040420F009808002080B483B000AF02467E
:102BA8000B46FA71BB80FA79094B53F82230002B97
:102BB80009D0FB79072B06D8FA79054B53F8223050
:102BC8001B68BA881A600C37BD465DF8047B7047ED
:102BD8009808002080B400AF064B1A78064B1B7883
:102BE8009A420CBF00230123DBB21846BD465DF8AC
:102BF800047B70478D1D00208E1D002080B400AF1F
:102C0800034B1A78034B1A70BD465DF8047B704776
:102C18008D1D00208E1D002080B483B000AF0346B8
:102C2800FB71044BFA791A700C37BD465DF8047BCA
:102C3800704700BF8C1D002080B400AF114B0022EC
:102C48001A70104B00225A600E4B00229A600D4BEE
:102C58000022DA600B4B00221A640A4BFF2283F829
:102C68004420084BFF2283F84520064B002283F8B6
:102C78004620044B002283F84720BD465DF8047BBC
:102C8800704700BFC42A002080B483B000AF7860CA
:102C98000B467B80054B1A6C7B8813445A1C034BEC
:102CA8001A640C37BD465DF8047B7047C42A0020BF
:102CB80080B485B000AF78600B467B806B4B9A6818
:102CC8006A4B5A607A88694B9A60684B9A68674B76
:102CD8001B6C1A44654B9A60644B9A68644B1B786A
:102CE800DA40624B9A60614B9A68604B5B68D21A13
:102CF8005E4BDA605D4B9A685C4B5A605B4BDA68F6
:102D080040F68C239A4273D9584B1B781A46574B76
:102D180093F845305BB29A421CD1544B1B78032B75
:102D280018D9524B1B780C2B14D8504B93F84630BB
:102D3800182B08D84D4B93F846300133DAB24B4B79
:102D480083F846200AE0494B1B78DAB2474B83F8F0
:102D5800442003E0454B002283F84620434B1B7870
:102D68001A46424B93F844305BB29A4232D13F4BF9
:102D780093F84730002B2DD00023FB600CE03B4B31
:102D8800FA68043253F8223099B23A4BFA6823F8B9
:102D98001210FB680133FB60344B93F844305AB28D
:102DA800FB689A42EBDC314B93F844305BB2FB6032
:102DB80007E0304BFA68002123F81210FB68013352
:102DC800FB60FB680B2BF4DD2B4B1B780133DAB26D
:102DD800294B1A70254B012283F84720234B1B7877
:102DE800DAB2224B83F84520204B00221A7037E0D4
:102DF8001E4B93F84730002B32D01C4BDA6840F258
:102E0800EE239A4219D9194BDA6840F6C9039A4257
:102E180013D8164B1B780B2B0FD8144B1B781A465C
:102E2800124BD968114B043243F822100F4B1B7810
:102E38000133DAB20D4B1A7012E00C4B002283F802
:102E480047200023FB6008E0084BFA6804320021A1
:102E580043F82210FB680133FB60FB680B2BF3DDA2
:102E68001437BD465DF8047B704700BFC42A0020B4
:102E78008F1D0020980900208D1D002080B483B08C
:102E880000AF00237B600AE00A4B7A6833F81230FF
:102E9800002B01D0012306E07B6801337B607B684F
:102EA8000B2BF1DD002318460C37BD465DF8047B7B
:102EB800704700BF9809002080B485B000AF7860E3
:102EC8000B467B807B68FB60FB68143BBB60BB6880
:102ED8009B7A0133DAB2BB689A72BB689B7A0A2B79
:102EE80009D9BB685B781A46054B002123F81210F4
:102EF800BB6800229A721437BD465DF8047B7047A0
:102F08009809002080B586B000AF78600B467B80BA
:102F18007B687B617B69103B3B613B69DB68FB60DD
:102F28003B699B78002B0FD13B697A889A803B6973
:102F380001229A70FB681A68FB689B7A104619464A
:102F4800022200F041F821E03B697A88DA803B6987
:102F5800DA883B699B88D31A9AB23B691A813B6924
:102F68005B781A463B6919890A4B23F812103B69AA
:102F780000229A70FB681A68FB689B7A104619460B
:102F8800002200F021F83B6900229A721837BD46EA
:102F980080BD00BF9809002080B586B000AFF860FA
:102FA800B9601346FB71BB689BB2BB82FB79BB75EA
:102FB8000223FB7507F11403F8681946FEF7ECFFC6
:102FC8001837BD4680BD00BF80B586B000AF7860B9
:102FD80013460A46FA703B8007F10C03184622F0A4
:102FE80049FBFB789BB2BB813B88FB8101233B8279
:102FF80000237B82084B1B78012B02D10323BB8261
:1030080001E00023BB8207F10C037868194622F01F
:10301800DDFA1837BD4680BD8C1D002080B584B010
:1030280000AF78600B46FB70FA781346DB009B1AFA
:103038009B00224A1344FB60FB6800229A70FB68DD
:1030480000229A72FB68FA785A70FB6801221A709B
:10305800FB687A68DA607B6859687B681B891A465E
:103068007B685B7B084611461A46FFF795FF7B682D
:103078001A687B689B7A104619460022FFF7A4FF5E
:1030880078680021012200F0B3FEFB68103318466F
:103098000B4900F0D5FEFB6814331846094900F0C7
:1030A800DDFEFB6803F11002FB68143378681146F3
:1030B8001A4600F031FF1037BD4680BDB808002021
:1030C8000D2F0008C12E000880B584B000AF7860CD
:1030D800FFF7B2FD1D4BFB60FB6800221A70FB680E
:1030E8007A68DA607B6859687B681B891A467B684E
:1030F8005B7B084611461A46FFF74EFF7B681A6845
:103108007B689B7A104619460022FFF75DFF7868B6
:103118000021012200F06CFEFB68103318460C49B0
:1031280000F08EFEFB68143318460A4900F096FE3C
:10313800FB6803F11002FB681433786811461A46DD
:1031480000F0EAFE1037BD4680BD00BFB808002079
:10315800B92C0008912C000880B483B000AF034656
:10316800FB71FA79044B33F8123018460C37BD4618
:103178005DF8047B704700BF9809002080B483B0D5
:1031880000AF0346FB71FA79044B33F81230184646
:103198000C37BD465DF8047B704700BF98090020D6
:1031A80080B584B000AF78607B689B7903F0010339
:1031B800002B0CBF00230123FB720023FB607B68FC
:1031C8005B7903F00203002B03D0FB6843F4003360
:1031D800FB607B685B7903F00103002B03D0FB687D
:1031E80043F48033FB607B681A6DFB7A1046F968FC
:1031F8001A4622F061FD1037BD4680BD80B588B003
:1032080000AF78607B681B6D1846002122F038FDFE
:103218007B689B68BB600023FB607B689B7903F03D
:103228000203002B02D04FF4005300E000233B615F
:103238007B689B7903F00403002B02D04FF4806372
:1032480000E000237B610023FB610023BB617B68F6
:103258005B7903F00103002B03D0BB6943F004033F
:10326800BB617B685B7903F00203002B03D0BB6969
:1032780043F00803BB617B681A6D07F10803104629
:10328800194622F043FC7868FFF78AFF7B689B7930
:1032980003F00803002B06D07B681B6D184601213C
:1032A80022F03AFD05E07B681B6D1846002122F0EC
:1032B80033FD7B681B6D1846012122F0E1FC2037A5
:1032C800BD4680BD80B590B000AFF860B9607A6047
:1032D800FB700023FB63FA687B4B9A4209D1FA78AA
:1032E80097F84830786811461A4600F031FAF863C2
:1032F8000FE0FA68754B9A4209D1FA7897F8483086
:10330800786811461A4600F0E3FAF86301E0FB6BAF
:10331800D5E0FB6B012283F84420FB6B00221A6284
:10332800FB6B1A6AFB6BDA61FB6B00229A62FB6B20
:103338009A6AFB6B5A62FB6BBA68DA62FB6BFA78C3
:103348005A71FB6B7A689A60FB6B97F848209A7100
:10335800F86BFFF753FFFB7803F00103002B54D001
:10336800FB6B1B6B002B43D007F11003184623F0AF
:1033780077F8FB6BDB6C3B614FF480537B63002376
:10338800BB6300233B620023BB6280237B62002374
:10339800FB62FB6BDB689BB2BB830023BB61202312
:1033A8003B63FB6B5B697B61FB6B1B6B184622F015
:1033B8005BFFFB6B1A6B07F110031046194623F0ED
:1033C8000FF8FB6B1B6B1846012123F073F8FB6B9E
:1033D8001B6D18464021012222F0BAFCFB6B1B6BC7
:1033E800184623F091F803461A46FB6B1A640CE062
:1033F800FB6B1B6D1846364922F00AFDFB6B1B6DF3
:1034080018463349012222F0C1FCFB7803F002037D
:10341800002B4DD0FB6B5B6B002B42D007F11003E8
:10342800184623F01DF8FB6B9B6C3B614FF48053EF
:103438007B630023BB6300233B620023BB628023C2
:103448007B620023FB62FB6B1B699BB2BB8310236F
:10345800BB6100233B63FB6B5B6B184622F004FFE8
:10346800FB6B5A6B07F110031046194622F0B8FFA0
:10347800FB6B5B6B18460221012223F053F8FB6BB0
:103488005B6B1846002123F031F8FB6B5B6B002265
:103498005A60FB6B1B6D18468021012222F058FCF4
:1034A80006E0FB6B1B6D18460A49012222F06EFCF0
:1034B800FB6B1B6D1846012122F0E2FBFB6B1846E3
:1034C8004037BD4680BD00BF003801400044004081
:1034D800050105000701070080B584B000AF7860DA
:1034E80039607B68FB60FB683A689A60F868FFF7A8
:1034F80085FE1037BD4680BD80B584B000AF7860CA
:103508000B46FB707B68FB60FB68FA785A71F868B9
:10351800FFF774FE1037BD4680BD00BF80B582B08E
:1035280000AF78607B685B6B7A6891697A68926AA9
:103538000A44DA607B685A6A7B689B6A9A420CD9AB
:103548007B685B6B7A68516A7A68926A8A1A5A60F1
:103558007B685A6A7B689A620AE07B685B6B7A6868
:1035680011697A68926A8A1A5A607B6800229A629C
:103578007B68002283F844207B685B6B1846012136
:1035880022F098FF0837BD4680BD00BF80B485B0E3
:1035980000AF78607B68FB60FB681B6B002B1DD05D
:1035A800FB681B6B5B68BB60FB681A6CBB689A4264
:1035B80007D8BB68DAB2FB681B6CDBB2D31ADBB284
:1035C80028E0FB68DB68DAB2BB68DBB21344DAB226
:1035D800FB681B6CDBB2D31ADBB21BE0FB68DA6951
:1035E800FB681B6A9A4208D3FB68DB69DAB2FB689E
:1035F8001B6ADBB2D31ADBB20CE0FB68DB68DAB219
:10360800FB68DB69DBB21344DAB2FB681B6ADBB226
:10361800D31ADBB218461437BD465DF8047B7047F1
:1036280080B485B000AF78607B68FB60FB685B6B3B
:10363800002B03D0FB6893F8443008E0FB689A6AD3
:10364800FB685B6A9A4214BF00230123DBB2184669
:103658001437BD465DF8047B704700BF80B485B061
:1036680000AF78607B68BB60BB681B6B002B17D012
:10367800BB685A69BB68D968BB681B6CCB1A134412
:103688001B78FB73BB681B6C5A1EBB681A64BB684B
:103698001B6C002B1BD1BB68DA68BB681A6416E088
:1036A800BB685A69BB681B6A13441B78FB73BB6809
:1036B8001B6A5A1CBB68DB689A4203D3BB680022AA
:1036C8001A6204E0BB681B6A5A1CBB681A62FB7B5F
:1036D80018461437BD465DF8047B704780B584B042
:1036E80000AF78600B46FB707B68FB60FB689A69EB
:1036F800FB685B6A1344FA781A70FB685B6A5A1CA9
:10370800FB681B699A4203D3FB6800225A6204E0F3
:10371800FB685B6A5A1CFB685A62FB685B6B002B90
:103728000AD0FB685B6B1B6803F00103002B0AD10E
:10373800F868FFF7F3FE06E0FB681B6D18460349BF
:10374800012222F023FB1037BD4680BD0701070088
:1037580080B586B000AF786013460A46FA70BB7031
:10376800544B7B617B69544A1A607B697A689A601A
:103778007B69524A5A617B69514A9A617B694FF465
:103788008072DA607B694FF480721A617B694D4AF6
:103798001A637B694C4A5A637B694C4A1A657B6990
:1037A8001B6D24331A467B69DA647B691B6D2833E9
:1037B8001A467B699A644FF48040012120F052FF39
:1037C8000120012120F030FF02233B7303237B7388
:1037D8000023BB73BB7803F00103002B01D0022345
:1037E80000E00123FB73BB7803F00803002B24D00F
:1037F8004FF40073BB60BB7803F00103002B14BFC8
:1038080000230123DBB2BB734FF09040092107224C
:1038180020F0D4FB07F108034FF09040194620F040
:10382800FFFABB7803F00103002B30D14FF0904032
:103838004FF4007120F0A6FB29E0FB7803F00203A7
:10384800002B0FD04FF40073BB604FF0904009215C
:10385800072220F0B3FB07F108034FF09040194608
:1038680020F0DEFAFB7803F00103002B0FD04FF4B1
:103878008063BB604FF090400A21072220F09EFB36
:1038880007F108034FF09040194620F0C9FA0E23BB
:103898003B7401237B740023BB740123FB7407F181
:1038A8001003184622F0D2F87B6918461837BD462F
:1038B80080BD00BFB009002018BA0208580A0020CD
:1038C800580B0020580002404400024000380140D4
:1038D80080B586B000AF786013460A46FA70BB70B0
:1038E800434B7B617B69434A1A607B697A689A60BB
:1038F8007B694FF48072DA607B694FF480721A61D9
:103908007B693D4A5A617B693C4A9A617B693C4ABA
:103918001A654FF40030012120F0C2FE02233B73E8
:1039280003237B730023BB73BB7803F00103002BD5
:1039380001D0022300E00123FB73BB7803F00803E6
:10394800002B1FD02023BB60BB7803F00103002BA2
:1039580014BF00230123DBB2BB732A4805210722C9
:1039680020F02CFB07F108032648194620F058FAE6
:10397800BB7803F00103002B28D12248202120F036
:1039880001FB23E0FB7803F00203002B0CD020237B
:10399800BB601C480521072220F010FB07F1080333
:1039A8001848194620F03CFAFB7803F00103002B75
:1039B8000CD04023BB6013480621072220F0FEFAF2
:1039C80007F108030F48194620F02AFA26233B740A
:1039D80001237B740023BB740123FB7407F11003DC
:1039E800184622F033F87B6918461837BD4680BD63
:1039F800040A002018BA0208580C0020580D0020AC
:103A080000440040000C004880B582B000AF7860E8
:103A18007B685B6B1846002122F04CFD7B685A6A74
:103A28007B689B6A9A4203D07868FFF777FD03E0CA
:103A38007B68012283F844200837BD4680BD00BF5B
:103A480080B582B000AF084B7B604FF4005022F085
:103A5800CBFD0648002122F02DFD7868FFF7D4FF42
:103A68000837BD4680BD00BFB009002044000240B1
:103A780090B585B000AF78607B681B6DDB69FB6033
:103A88007B681B6B002B28D1FB6803F02003002BFD
:103A980023D07B68DB6A002B08D07B68DB6A7A68F6
:103AA800126D928C92B21046984716E07B685A695C
:103AB8007B68DB69581C7968C86113447A68126DA1
:103AC800928C92B2D2B21A707B68DA697B68DB6832
:103AD8009A4202D37B680022DA617B685B6B002B19
:103AE8002BD1FB6803F08003002B26D07B689A6AF1
:103AF8007B685B6A9A4219D07B681A6D7B68996902
:103B08007B689B6A5C1C786884620B441B78DBB218
:103B18001046194622F0EEF87B689A6A7B681B69A2
:103B28009A420AD37B6800229A6206E07B681B6D82
:103B380018460949002222F029F9FB6803F0080316
:103B4800002B05D07B681B6D1846044922F060F9EC
:103B58001437BD4690BD00BF0701070000030300EE
:103B680080B582B000AF044B7B607868FFF780FFB8
:103B78000837BD4680BD00BFB009002080B582B0BF
:103B880000AF044B7B607868FFF772FF0837BD46CB
:103B980080BD00BF040A002080B584B000AF786003
:103BA8007B689B88BB817B681B7BBB730223FB7391
:103BB8007B681B681846012120F036FD7B689A68EF
:103BC80007F10C0310461946FEF7E6F91037BD4613
:103BD80080BD00BF80B400AF034B044ADA60BD4625
:103BE8005DF8047B704700BF00ED00E00400FA05B3
:103BF80080B500AF024B034A1A60FFF7EBFF80BDA8
:103C0800FC9F0020EFBEADDE80B582B000AF4FF460
:103C1800FC00012120F008FD0323BB7141F6FF736E
:103C2800BB803B1D4FF090401946FEF7B5F94FF6A3
:103C3800FF73BB803B1D0D481946FEF7ADF93B1DD0
:103C48000B481946FEF7A8F93B1D0A481946FEF726
:103C5800A3F93B1D08481946FEF79EF93B1D074886
:103C68001946FEF799F90837BD4680BD000400489B
:103C780000080048000C00480010004800140048E4
:103C880080B485B000AF78607B681B78FB60FB6808
:103C980083F311881437BD465DF8047B704700BF75
:103CA80080B485B000AF0346FB71FB79FB60FB680D
:103CB80083F31288012318461437BD465DF8047B48
:103CC800704700BF80B483B000AF78607B689B0A00
:103CD800174A934216D0164A934209D8154A934276
:103CE80014D0154A934213D0B3F5801F0CD017E0B7
:103CF800124A934210D0124A93420FD0114A93426B
:103D080008D00DE000230CE001230AE0022308E0BC
:103D1800032306E0042304E0052302E0062300E071
:103D2800FE2318460C37BD465DF8047B704700BF7C
:103D38004B0010000100100002001000510010009C
:103D4800520010004D00100080B483B000AF03464D
:103D5800FB80FB889B089BB2DBB218460C37BD463C
:103D68005DF8047B704700BF80B584B000AF0346A0
:103D7800FB71FB793B7301237B730023BB73012326
:103D8800FB7307F10C03184621F060FE1037BD469F
:103D980080BD00BF80B586B000AF786013460A4684
:103DA8007A807B7007F10C03184621F04BF97B8869
:103DB800013B9BB23B610C4B1A687B780B4901FBBA
:103DC80003F3B2FBF3F39BB2013B9BB2BB8100232D
:103DD800BB820023FB8107F10C037868194621F0A8
:103DE800BBF81837BD4680BD0C01002040420F00CB
:103DF80080B582B000AF786013460A467A807B703F
:103E08007B6819687A887B78084611461A46FFF756
:103E1800C1FF7B681B681846012121F03BF97B68CC
:103E2800DB7A1846FFF7A0FF7B68DB7A1B2B03D1F0
:103E38001920FFF799FF00BF0837BD4680BD00BFB6
:103E480080B483B000AF786039607B683A681A60E4
:103E58000C37BD465DF8047B704700BF80B483B063
:103E680000AF786039607B683A681A607B68002226
:103E78005A600C37BD465DF8047B704780B588B042
:103E880000AF786039607B682033FB61EFF3128301
:103E98003B613B69DBB2FB735020FFF701FF034630
:103EA800FB7622E000237B6117E07B687A690432A5
:103EB80053F82230002B0DD07B687A69043253F80E
:103EC8002220FB691A607B687A69043253F8223031
:103ED8000433FB617B6901337B617B69032BE4DD80
:103EE800FB6900221A600023FB76FB7E002BD9D1E8
:103EF80007F10F031846FFF7C3FE7B681B6A002B08
:103F08000CBF00230123DBB2386801211A4621F0D7
:103F180047FC2037BD4680BD80B586B000AFF8604D
:103F2800B9607A60FB681B681846FFF7CBFE03464A
:103F3800FB75FB7D062B00D94EE0FB689B7A184683
:103F4800FFF702FF0346BB75BB68002B0ED1FB6869
:103F58001A68FB689B7A9B08DBB2022101FA03F31B
:103F68009BB210461946002221F01AFCFA7DB87D52
:103F78001B4913469B0013445B000344BA6841F88D
:103F88002320FA7DB87D164913469B0013445B0035
:103F9800034404337A6841F82320BB68002B0ED011
:103FA800FB681A68FB689B7A9B08DBB2022101FA5E
:103FB80003F39BB210461946012221F0F1FBFA7D6A
:103FC80013469B001344DB00054A1A44FB681B6830
:103FD80010461946FFF752FF1837BD4680BD00BF8F
:103FE800242B002080B588B000AF786039607B68EA
:103FF8001A697B68DB681340BB6174E0BB69B3FA7C
:1040080083F33B613B694FF0004222FA03F3DB4341
:10401800FB607B68FA681A61BA69FB681340BB6188
:104028003B691B3B042B5ED801A252F823F000BF6A
:10403800D7400008BF400008A74000088F4000088C
:104048004D4000083B685B6A002B08D03B685B6A00
:104058009BB2013BFB833B6800225A6202E07B680B
:10406800DB6AFB833B681B6A7B6108E07B691B6832
:10407800FA8B7869114698477B695B687B617B6935
:10408800002BF3D12FE03B681B681B683A68116866
:104098007A68526B92B208461146984723E03B680B
:1040A8005B681B683A6851687A68926B92B20846F6
:1040B8001146984717E03B689B681B683A68916807
:1040C8007A68D26B92B20846114698470BE03B6873
:1040D800DB681B683A68D1687A68126C92B2084645
:1040E8001146984700BFBB69002B87D12037BD46D2
:1040F80080BD00BF80B500AF02480349FFF772FFDB
:1041080080BD00BF002C0140242B002080B500AFEB
:1041180004480549FFF766FF04480549FFF762FFB1
:1041280080BD00BF002C0140242B0020004401402A
:10413800EC2B002080B500AF4FF080400149FFF71D
:1041480051FF80BD4C2B002080B500AF02480349C9
:10415800FFF748FF80BD00BF00040040742B00201B
:1041680080B500AF02480349FFF73CFF80BD00BFA0
:10417800000800409C2B002080B500AF024803498E
:10418800FFF730FF80BD00BF00340140C42B002082
:1041980080B500AF02480349FFF724FF80BD00BF88
:1041A80000340140C42B002080B500AF0248034909
:1041B800FFF718FF80BD00BF00480140142C002005
:1041C80080B584B000AF264800214FF48C7225F0EA
:1041D80059FA0720012120F063FA4FF4C520012184
:1041E80020F040FA4FF4F010012120F01DFA0023CE
:1041F800FB7313E0FB7B1A011A4B13443B603B68CB
:1042080059683B689B7B1A463B68DB7B084611462E
:104218001A461FF0D3FEFB7B0133FB73FB7B0D2B90
:10422800E8D90023BB6007E00F4ABB6813440022AB
:104238001A70BB680133BB60BB680D2BF4DD00232B
:104248007B6007E0094A7B681344FF221A707B6889
:1042580001337B607B68062BF4DD1037BD4680BDDB
:10426800242B002038BA02080C2B00201C2B00201D
:1042780080B400AFBD465DF8047B704780B586B05A
:1042880000AF78607868FFF71DFD0346BB75EFF354
:1042980012833B613B69DBB2FB735020FFF700FDE3
:1042A8000346FB7513E0BA7D7B685B6A591C0D48B1
:1042B80013469B001344DB000344203359607B689A
:1042C8005B6943F001027B685A610023FB75FB7D43
:1042D800002BE8D107F10F031846FFF7D1FC183778
:1042E800BD4680BD242B002080B584B000AF786027
:1042F8004FF40010012120F097F90823BB60012337
:104308003B7303237B730023BB730023FB7307F109
:104318000803074819461FF083FD054808211FF0C8
:1043280031FE04480421FDF7C3FD1037BD4680BDAA
:10433800001000480030014080B500AF1E48FFF76C
:10434800D3FF1E4808211FF02BFE1B482421FDF730
:104358006FFD19488021FDF76BFD184808211FF0F3
:1043680011FE642014F096FA144808211FF018FE74
:1043780011482021FDF75CFD0F48AF21FDF758FDDE
:104388000E4808211FF0FEFD012014F083FA0B48A7
:1043980008211FF005FE08482321FDF749FD0648BE
:1043A8006021FDF745FD054808211FF0EBFD64205D
:1043B80014F084FA80BD00BF0030014000100048AE
:1043C80090B585B000AF78601F4808211FF0E8FD60
:1043D8001E48E821FDF72CFD0023FB730EE0FC7B53
:1043E8001A480021FDF724FD03461A4607F1100379
:1043F800234403F8082CFB7B0133FB73FB7B052B61
:10440800EDD9114808211FF0BDFD3B7A1B029AB275
:104418007B7A13439AB27B681A807B680233BA7A34
:10442800120291B2FA7A0A4392B21A807B68043374
:104438003A7B120291B27A7B0A4392B21A80012324
:1044480018461437BD4690BD0010004800300140A2
:1044580080B483B000AF78600B467B807B68074AE6
:104468001A607B68064A5A607B68064A1A6101230B
:1044780018460C37BD465DF8047B70474143000879
:10448800C9430008295C8F3D80B500AF192024215D
:1044980080220023FDF754FA642014F00FFA192043
:1044A800202197220023FDF74BFA0A2014F006FA80
:1044B8001920232110220023FDF742FA642014F06A
:1044C800FDF9024B4FF480521A8080BD2001002074
:1044D80080B586B002AF786007F108030022009229
:1044E8001920A8210622FDF7FDFA0346FB73FB7B82
:1044F80083F00103DBB2002B01D0002329E07B7A93
:104508001B029AB23B7A13439BB21BB2DA0F1344D5
:104518005B109AB27B681A807B689A1CFB7A1B0234
:1045280099B2BB7A0B439BB21BB2D90F0B445B10F9
:104538009BB213807B681A1D7B7B1B0299B23B7B65
:104548000B439BB21BB2D90F0B445B109BB2138079
:10455800012318461037BD4680BD00BF80B586B020
:1045680002AF786007F10E0300220092192027217C
:104578000122FDF7B7FA0346FB73FB7B83F00103C7
:10458800DBB2002B01D0002306E07B68044A1A60E6
:104598007B68044A5A60012318461037BD4680BD1F
:1045A80091440008D944000880B483B000AF786013
:1045B8000B467B807B689B8A9AB27B8853409AB271
:1045C8007B689A820C37BD465DF8047B704700BF54
:1045D80080B400AFBD465DF8047B704780B586B0F7
:1045E80002AF786039600023FB730023BB73124B62
:1045F8003A681A6007F10E03002200921E200A2171
:104608000122FDF76FFA0346FB73FB7B83F001037E
:10461800DBB2002B02D1BB7B482B01D0002306E084
:104628007B68064A1A607B68054A5A600123184667
:104638001037BD4680BD00BF580E00204D4600080B
:10464800A148000880B588B000AF0023BB600023F4
:10465800FB6000233B610123FB768A4B1B68002B20
:104668001BD0884B1B681B68002B06D0854B1B682A
:104678001B68184601211FF0D7FF824B1B681B8956
:10468800BB800223FB710023BB717E4B1B68DA6879
:104698003B1D10461946FDF77FFC322014F00EF939
:1046A8001E20002111220023FDF74AF91E200121B6
:1046B80060220023FDF744F9642014F0FFF807F1A5
:1046C8001403184600F0E8F80023FB613AE01E20C6
:1046D800022101220023FDF733F9322014F0EEF80D
:1046E80007F11403184600F0D7F8BA68BB8A1BB262
:1046F8001344BB60FA68FB8A1BB21344FB603A6937
:104708003B8B1BB213443B613A8BFB8A12B21BB240
:104718009A42B8BF13469AB2BB8A12B21BB29A42E7
:10472800B8BF13469BB21BB213F5805F02DC0023AF
:10473800FB760AE054484FF48841FFF735FFFB69E0
:104748000133FB61FB69092BC1DD1E200021122208
:104758000023FDF7F5F80023FB613AE01E20022153
:1047680001220023FDF7ECF8322014F0A7F807F136
:104778001403184600F090F8BA68BB8A1BB2D31A23
:10478800BB60FA68FB8A1BB2D31AFB603A693B8BA1
:104798001BB2D31A3B613A8BFB8A12B21BB29A4204
:1047A800B8BF13469AB2BB8A12B21BB29A42B8BFBC
:1047B80013469BB21BB213F5805F02DC0023FB7625
:1047C8000AE031484FF48841FFF7EEFEFB690133F8
:1047D800FB61FB69092BC1DDBB6807EE103AF8EEF7
:1047E800C77A9FED2A7AC7EE277AF0EEE77A284B48
:1047F800C3ED007AFB6807EE103AF8EEC77A9FED32
:10480800237AC7EE277AF0EEE77A214BC3ED017AD7
:104818003B6907EE103AF8EEC77A9FED1E7AC7EEAD
:10482800277AF0EEE77A1A4BC3ED027A1E200021B0
:1048380070220023FDF784F81E2001212022002386
:10484800FDF77EF81E20022100220023FDF778F8EC
:10485800642014F033F8FB7E83F00103DBB2002BF5
:104868000BD00B4B4FF07E521A60094B4FF07E5223
:104878005A60074B4FF07E529A60FFF7A9FE203727
:10488800BD4680BD580E00200010004800406F460D
:104898000000002001C05E4680B586B002AF786097
:1048A80007F10803002200921E2003210622FDF7CB
:1048B80019F90346FB73FB7B83F00103DBB2002B82
:1048C80001D0002347E03B7A1B029AB27B7A13435C
:1048D8009BB21BB207EE903AB8EEE77A204BD3EDC5
:1048E800007A67EE277AFDEEE77A17EE903A9AB2E9
:1048F8007B681A807B680433BA7A120291B2FA7A1A
:104908000A4392B212B207EE902AB8EEE77A144A36
:10491800D2ED027A67EE277AFDEEE77A17EE902A53
:1049280092B21A807B6802333A7B120291B27A7B88
:104938000A4392B212B207EE902AB8EEE77A084A12
:10494800D2ED017A67EE277AFDEEE77A17EE902A24
:1049580092B21A80012318461037BD4680BD00BFA9
:104968000000002080B584B000AF012001211FF0B5
:1049780079FE4FF4003001211FF056FE4FF48053AA
:104988007B6003237B7201233B720123BB720023EC
:10499800FB723B1D4FF0904019461FF041FA4FF053
:1049A80090404FF480511FF0FBFAC82013F086FFA7
:1049B8004FF090404FF480511FF0E4FA4FF400306C
:1049C80001211FF031FE4FF4C0537B6003237B723B
:1049D80002233B720023BB720023FB723B1D4FF086
:1049E800904019461FF01CFA4FF090400B210E2200
:1049F8001FF0E4FA4FF090400C210E221FF0DEFA6F
:104A0800122021F005FF184B12221A60164B0822BB
:104A18005A71154B01229A71134821F0FFFD134B6F
:104A2800134A1A60134B124A1A60134B134A1A603E
:104A3800134B124A1A600023FB600BE00F49FA6817
:104A480013461B0113449B000B4400221A60FB68A9
:104A58000133FB60FB68042BF0DD0A4B01221A705E
:104A68001037BD4680BD00BFA82E0020A42D002011
:104A7800A82D00209C2D0020982D0020402C0020DF
:104A8800A02D0020901D002080B500AF00201FF051
:104A9800BDFD4FF4000001211FF002FE80BD00BFE4
:104AA80080B582B000AF4FF4A06020F0BDFF1423A2
:104AB8003B7102237B710023BB710123FB713B1DFA
:104AC800184620F0C3FF2A233B7101237B71002382
:104AD800BB713B1D184620F0B9FF0837BD4680BDA5
:104AE80080B483B000AF0346FB710C37BD465DF858
:104AF800047B704780B584B000AF0E4B1B68FB6029
:104B08000D4B1B68BB600D4B1B687B60FA687B68AC
:104B18001344FB60FB68002B09D0F8680849082299
:104B280000F012F8B8680749042200F00DF81037B1
:104B3800BD4680BDACF7FF1FB0F7FF1FB4F7FF1FDE
:104B48000E0000201E00002080B487B000AFF8607F
:104B5800B9601346FB710023FB750023FB7525E044
:104B6800FB681B0F092B0AD8FB7D5B00BA6813444E
:104B7800FA68120FD2B23032D2B21A7009E0FB7D55
:104B88005B00BA681344FA68120FD2B23732D2B255
:104B98001A70FB681B01FB60FB7D5B000133BA6880
:104BA800134400221A70FB7D0133FB75FA7DFB79F3
:104BB8009A42D5D31C37BD465DF8047B704700BFC9
:104BC80080B485B000AF78601D4B1B78002B02D1F4
:104BD8004FF0FF332DE01B4B1B681B68402B13D194
:104BE800184B1B684433FB60FA68174B9A4201D193
:104BF800164BFB60FB681B68002B02D06FF00103AB
:104C080017E0104BFA681A60114B01221A700D4B0D
:104C180019680C4B1B681B687A68D2B20B441A716E
:104C2800084B1B681A6801321A60094B00221A7077
:104C3800002318461437BD465DF8047B704700BF53
:104C4800901D0020A02D0020942D0020402C002035
:104C5800921D002080B584B000AF78600B46FB70D1
:104C6800114B1B78002B01D0002319E00023FB60B7
:104C78000EE0FB687A6813441B781846FFF7A0FF1C
:104C88000346002B01D0FB680AE0FB680133FB6098
:104C9800FA78FB689A42ECDC142013F0FBFDFB78F1
:104CA80018461037BD4680BD911D002080B483B0E2
:104CB80000AF124B1A68124B1B689A4203D0114B73
:104CC8001B78002B02D14FF0FF3311E00B4B1B6810
:104CD8001B78FB71094B1B685A1C084B1A60074B61
:104CE8001A68094B9A4202D1044B084A1A60FB79A8
:104CF80018460C37BD465DF8047B7047A42D00208C
:104D08009C2D0020901D0020A82E0020A82D0020FA
:104D180080B584B000AF78603960154B1B683A687D
:104D28009A4202D9124B1B683B600023FB6016E0D5
:104D3800FFF7BCFFB860BB68B3F1FF3F01D1FB6868
:104D480012E00B4B1B685A1E094B1A607A68FB6805
:104D58001344BA68D2B21A70FB680133FB60FA6870
:104D68003B689A42E4D33B6818461037BD4680BD7D
:104D7800B02E002080B400AF054B1B68052B14BF74
:104D880000230123DBB21846BD465DF8047B70475B
:104D9800640E002080B400AF054B1B68002B0CBFCD
:104DA80000230123DBB21846BD465DF8047B70473B
:104DB800640E002080B400AFBD465DF8047B7047E8
:104DC80080B400AFFEE700BF80B400AFFEE700BFCD
:104DD80080B400AFFEE700BF80B400AFBD465DF809
:104DE800047B704780B400AFBD465DF8047B704714
:104DF80080B400AFBD465DF8047B704780B500AF56
:104E080000F0DCF880BD00BF80B500AF122021F0B3
:104E1800FFFC80BD80B400AF034B00221A70BD4672
:104E28005DF8047B704700BF911D002080B5C4B0B9
:104E380000AF3B1DC7F80831032022F0D1F8034624
:104E4800A7F80E31B7F80E21204B1B681A441F4BE8
:104E58001A603A1DB7F80E3110464FF488711A4699
:104E680023F01EF927E01A4B1B680133C7F80431F9
:104E7800D7F80421174B9A4202D1174BC7F80431CF
:104E8800164B1B68D7F804219A4200D117E0104B43
:104E98001B68D7F8082112781A700D4BD7F804212F
:104EA8001A60B7F80E31013BA7F80E31D7F8083170
:104EB8000133C7F80831B7F80E31002BD3D10320DE
:104EC80021F00CFF07F58877BD4680BDB02E002085
:104ED8009C2D0020A82E0020A82D0020A42D002005
:104EE80080B582B000AF2D4B00221A602C4B1B6896
:104EF8001B68002B03D02B4B1B78002B00D049E0FC
:104F0800294B1B78002B09D0284B1B685A1C274BB0
:104F18001A60264B1B68FA2B00DC3BE0244B1B680D
:104F2800002B05DD224B1B685A1E214B1A6031E00D
:104F38001D4B01221A701D4B00221A60184B1B686A
:104F48001A1D174B1B681B689BB21046C0211A46D6
:104F580023F06CF8124B1B681B689BB201201946A2
:104F680021F0E0FF012021F091FE0D4B1B6800228B
:104F78001A600B4B1B6844337B607A680D4B9A426E
:104F880001D10D4B7B607B681B68002B02D0044B62
:104F98007A681A600837BD4680BD00BF5C0E0020E5
:104FA800982D0020921D0020911D0020600E0020E9
:104FB80028000020942D0020402C002080B500AF50
:104FC8001C4B1B689AB21C4B1A801B4B1B889BB24C
:104FD80003F40072194B1B881340002B0CD0154B9F
:104FE8004FF6FF521A60164B1B78DBB20133DAB268
:104FF800134B1A70FFF774FF0F4B1B889BB203F417
:1050080000420E4B1B881340002B01D021F018FCE6
:10501800094B1B889BB203F48062084B1B88134022
:10502800002B06D0034B4FF6FF321A60054B5B6826
:10503800984780BD445C0040B42E0020503A0020C0
:10504800931D00207000002080B500AFFFF752FDCF
:10505800054B1B6800229A7200F0AAF922F0ACFFF7
:10506800024B00221A6080BD4C3A0020640E0020DA
:1050780080B500AF364B1B6800229A72344B1B6810
:10508800344AD2795A72324B1B680022DA720020F5
:1050980021F05AFD00204FF4007121F067FD002037
:1050A800102121F087FD0020402121F0E3FE00209F
:1050B800802121F0BFFE002021F038FE264B93F816
:1050C8002C300020194621F049FF002021F006FE6F
:1050D8000120002121F04AFD0120C02121F0AAFE73
:1050E8000120202121F066FD0120002121F098FDFA
:1050F80002204FF4C06121F039FD02204FF4807185
:1051080021F098FE0220002121F08AFD02202021B2
:1051180021F050FD0320002121F028FD03204FF449
:10512800887121F0A7FE0320402121F017FF0320FA
:105138004FF4405121F074FD0320002121F03AFD85
:10514800002022F0F5FE054B01221A6080BD00BF49
:105158004C3A00202CBB020870000020640E00208E
:1051680080B483B000AF074B7B607B689B7A002BD1
:1051780002D0054B05221A600C37BD465DF8047B4A
:10518800704700BF2C3A0020640E002080B400AFA6
:10519800034B04221A60BD465DF8047B704700BFCC
:1051A800640E002080B400AF054B1B78202B02D181
:1051B800034B00221A70BD465DF8047B704700BFA0
:1051C800941D002080B400AFBD465DF8047B704795
:1051D80080B584B000AF0346FB710023FB60FB7908
:1051E800212B09D1164B1B681B7803F07F03212B59
:1051F80011D1144BFB600EE0FB79202B0BD1104B27
:105208001B681B7803F07F03212B01D10E4BFB6039
:105218000E4B20221A70FB68002B01D102230BE0F1
:10522800074B1B68FA689A61054B1B6800225A8273
:10523800FB6800209847002318461037BD4680BDFC
:105248004C3A00205153000885530008941D002053
:1052580080B483B000AF0346FB710C4B1B681B780E
:1052680003F07F03212B09D1FB79022B01D1002305
:1052780005E0FB79222B01D1002300E00223184628
:105288000C37BD465DF8047B704700BF4C3A0020E0
:1052980080B582B000AF0346FB80FB8818460449FE
:1052A80022F0A8F9034618460837BD4680BD00BF5E
:1052B800C400002080B582B000AF0346FB80FB88A5
:1052C8001846044922F096F9034618460837BD46A1
:1052D80080BD00BFCC00002080B584B000AF03467D
:1052E800FB800B4B1B68DB78FB73FB7B042B01D922
:1052F800002309E0FB7BDA00064B1344FA881046CA
:10530800194622F077F9034618461037BD4680BD86
:105318004C3A0020D400002080B483B000AF02468D
:105328000B46FA71BB71BB79002B01D0022305E053
:10533800FB79012B01D9022300E0002318460C3722
:10534800BD465DF8047B704780B483B000AF034668
:10535800FB80FB88002B05D1064B1B6808221A82AC
:10536800002300E0044B18460C37BD465DF8047B6B
:10537800704700BF4C3A00206400002080B483B01E
:1053880000AF0346FB80FB88002B05D1064B1B684A
:1053980008221A82002300E0044B18460C37BD4649
:1053A8005DF8047B704700BF4C3A00206400002081
:1053B80080B582B000AF0120FFF792FB0123FB808C
:1053C8000C4BFA881A600C4B00221A80094B0A4AC7
:1053D80012881A60094B00221A60074B4FF4E052FA
:1053E8001A80044B044A12881A60002318460837AA
:1053F800BD4680BD405C0040503A0020445C0040FF
:1054080080B483B000AF786039600C37BD465DF872
:10541800047B704780B483B000AF78600B46FB70A4
:105428000C37BD465DF8047B704700BF80B483B07D
:1054380000AF7860012318460C37BD465DF8047B41
:10544800704700BF80B483B000AF7860074B1B681B
:10545800FF2B01D9FF2302E0044B1B68DBB218467F
:105468000C37BD465DF8047B704700BFB02E0020A6
:1054780080B584B000AF78600023FB600EE007F1D0
:105488000802FB681A44FB68C3F101031046194679
:10549800FFF73EFC0346FA681344FB60FB68002BE9
:1054A800EDD03B7A18461037BD4680BD80B586B032
:1054B80000AF78607B6893F84430FB757B68002206
:1054C80083F84420FB7D002B01D1012329E0FFF75D
:1054D80061FC0346002B04D0FFF74CFC0346002B6D
:1054E80001D100231DE013F0A1F938617B6803F1B5
:1054F8003002FB7D10461946FFF7ACFBF860FA7DD9
:10550800FB689A4206D013F091F902463B69D31A18
:10551800312BEBD9FA7DFB689A4214BF0023012393
:10552800DBB218461837BD4680BD00BF80B584B0D1
:1055380000AF78600B46FB707B68FB60FB68BB6064
:10554800BB6893F844305A1CD1B2BA6882F8441048
:10555800BA681344FA7883F83020BB6893F845306A
:1055680083F00103DBB2002B04D1BB6893F844300D
:10557800132B02D9B868FFF799FF1037BD4680BDD5
:1055880080B485B000AF78607B68FB60FB68BB6067
:10559800BB68012283F845201437BD465DF8047BBB
:1055A800704700BF80B584B000AF78607B68FB604F
:1055B800FB68BB60BB68002283F84520B868FFF72A
:1055C80075FF1037BD4680BD80B582B000AFFFF7CC
:1055D800C9F9FFF759FAFFF763FA22F007FD054BFF
:1055E8007B607B68044A1A607B6818460837BD46AA
:1055F80080BD00BF680E0020D0BB020880B400AF99
:10560800054B1B78002B14BF00230123DBB218467F
:10561800BD465DF8047B70479A1D002080B582B0B6
:1056280000AF4FF400200AF007FE0346002B30D0ED
:10563800194B1B783B70194B1B787B70184B93EDFB
:10564800007AF2EE047A67EE277AFCEEE77A17EE34
:10565800903ADBB2BB70124B93ED017ADFED117A11
:1056680067EE277AFCEEE77A17EE903ADBB2FB702A
:105678000B4BD3ED027AFCEEE77A17EE903ADBB2E9
:105688003B71094B1B787B713B460A20194608F091
:1056980067FD0837BD4680BD9A1D0020981D002073
:1056A8001C0F002000007A44971D002080B584B0AC
:1056B80000AF87ED010A4FF400200AF0BDFD034654
:1056C800002B4FD0294BD3ED007AFDEEE77A17EE89
:1056D800903ADBB2BB72264BD3ED007AFDEEE77A47
:1056E80017EE903ADBB2FB7297ED017AF2EE047A8C
:1056F80067EE277AB0EE670A22F04AFDF0EE407AAC
:10570800FCEEE77A17EE903A9BB23B81194B93ED8A
:10571800007AF2EE047A67EE277AB0EE670A22F092
:1057280037FDF0EE407AFCEEE77A17EE903A9BB23E
:10573800BB81114B93ED007AF2EE047A67EE277A7B
:10574800B0EE670A22F024FDF0EE407AFCEEE77A2C
:1057580017EE903A9BB2FB8107F108030C2019461B
:1057680008F0FEFC1037BD4680BD00BF0C0F0020BE
:10577800100F0020140F0020180F002080B500AF74
:105788000C4B1B78002B0CBF00230123DBB283F0EA
:105798000103DBB203F00103DAB2064B1A70064BC1
:1057A8004FF000021A60044B1A68044B1A60FFF7A6
:1057B80035FF80BD971D0020180F0020140F002012
:1057C80080B400AF044B1B78044AD25C044B1A70B7
:1057D800BD465DF8047B7047991D0020F0BB0208A8
:1057E800961D002080B400AF074B1B78002B03D018
:1057F800064B074A1A6002E0044B064A1A60BD4687
:105808005DF8047B704700BF971D00200C0F002037
:105818000000A0410000A0C180B58CB000AF0346D5
:10582800B96087ED010AFB73B24B1B78012B03D0DB
:10583800B04B1B78022B04D1AF4B1B78FA7B9A42F2
:1058480002D0D7ED017A02E2AC4B1B78022B02D1D1
:10585800D7ED017AFBE1FFF7B3FFA94B1B78002BCB
:105868000FD0FA7BBB6833F812301BB207EE903AC0
:10587800B8EEE77AF2EE047AC7EE277AC7ED0B7A2C
:1058880017E0A04BD3ED007AF1EE677A9D4BC3ED9C
:10589800007AFA7BBB6833F812301BB25B4207EE22
:1058A800903AB8EEE77AF2EE047AC7EE277AC7EDB7
:1058B8000B7A97ED0B0AFFF7F9FE934BD3ED007ABD
:1058C800F5EE407AF1EE10FA40F09D808F4BD3ED63
:1058D800007A97ED0B7AB4EEE77AF1EE10FA07DD6D
:1058E8008A4BFA6A1A60874B1A68894B1A609AE1E0
:1058F800864BD3ED007AF5EEC07AF1EE10FA00DCB3
:1059080091E1844B1B78002B06D0002BC0F28B81D1
:10591800022B00F388816AE07A4BD3ED007A97ED89
:105928000B7A37EE677AF7EE007AB4EEE77AF1EEA3
:1059380010FAB4BF0023012387F82B3097F82B30D7
:10594800002B18D0744B93ED017ADFED747A67EE73
:10595800277A714BC3ED017A6F4B93ED017ADFED36
:10596800707AB4EEE77AF1EE10FA00D40DE06A4BE3
:105978006C4A5A6009E0684B93ED017ADFED6A7A68
:1059880067EE277A644BC3ED017A4FF400200AF0E2
:1059980053FC0346002B1DD097F82B303B75634B07
:1059A8001A68634B1B7813445B787B755F4B1A68E6
:1059B8005F4B1B781344DB7ABB755C4B1A685C4BF6
:1059C8001B7813445B7DFB7507F114030B20194604
:1059D80008F0C6FB4F4B01221A70544B1A68544BFF
:1059E8001B7813440022DA72FFF7C8FE0AE0464B20
:1059F800FA6A1A6012F01AFF034603F1FA024D4BD5
:105A08001A6000BF0FE1404BD3ED007A97ED0B7A97
:105A1800B4EEE77AF1EE10FA02D53B4BFA6A1A6057
:105A28003A4B93ED007A384BD3ED007A77EE677AEC
:105A3800C7ED097A12F0FAFE38623E4B1B683A6AE3
:105A4800D31AFB61FB69DB43DB0FFB76FB7E002B84
:105A580014D197ED097AF7EE007AB4EEE77AF1EE11
:105A680010FA40F3E080284BD3ED007A97ED0B7ADB
:105A7800B4EEE77AF1EE10FA40F3D580234B93EDBC
:105A8800007A234BD3ED007AB4EEE77AF1EE10FA00
:105A9800D4BF0023012387F82B3097F82B30002B35
:105AA80014D01D4B93ED007ADFED1C7A67EE277A50
:105AB800194BC3ED007A184B93ED027ADFED1A7A91
:105AC80067EE277A144BC3ED027A3FE097ED097A27
