:020000040800F2
:10000000005000201D640108C9640108A14D0108C9
:10001000C9640108C9640108C9640108000000003E
:10002000000000000000000000000000C96401089A
:10003000C964010800000000C9640108794D010885
:10004000C9640108C9640108C9640108C9640108D8
:10005000C9640108C9640108E14C0108DD4C0108CC
:10006000C9640108C9640108C9640108C9640108B8
:10007000C9640108C96401089D4C0108C9640108EC
:10008000E54C0108C9640108C9640108C964010894
:10009000C9640108C9640108C9640108D94C010890
:1000A000C9640108594C0108C9640108694C010878
:1000B000494C0108394C0108294C0108274D010819
:1000C0001B4D0108214D0108154D0108C9640108A7
:1000D000C9640108914C0108854C0108794C01085C
:1000E000894D0108C9640108C964010800000000C5
:1000F0000000000000000000000000000000000000
:0C01000000000000000000005FF808F1A3
:100110002DE9F04F754B764FA1B03B6000237B601B
:1001200008F033FE18B90BF02FFD08F051FE0FF068
:10013000D3FA704B704C1A78704E42F001021A706C
:100140000023089309930A934FF4E0130B93236859
:10015000317B43F480332360A36943F01003A36130
:10016000236803F400330993089B01330893099B28
:100170001BB9089BB3F5A06FF2D122685E4B12F455
:10018000003201D0022315E0186840F00100186029
:100190000892236803F002030993089B0133089334
:1001A000099B1BB9089BB3F5A06FF2D123689D078B
:1001B00039D501230A93524B52481A6842F0100273
:1001C0001A601A6822F003021A601A6842F00202EA
:1001D0001A606368636063686360636843F48063A4
:1001E0006360494B1A68043B22F070425A60474AE8
:1001F0001060606820F47C106060586840F0004037
:100200005860D86820F40040D8609B68180449BF43
:100210003F4B4FF4E01313604FF480130B930A9B92
:10022000012B01D117E0FEE7022B18D169B10B9B1E
:10023000B3F5801F02D14FF4A01305E00B9BB3F57B
:10024000E01F02D14FF400130B9361680B9B0B432B
:1002500043F4803302E0636843F46013636023680F
:1002600043F0807323602168234B8901FBD55968D3
:1002700021F003015960596841F002015960636837
:100280001D4903F00C03082BF9D14868214B00F0FD
:100290000C00042803D0082804D01A4900E0116893
:1002A000196011E048684D68C0F38340ED0300F128
:1002B000020001D4184905E0496811F4003F1168B3
:1002C00018BF49084843186060681449C0F3031018
:1002D000084490F81880186820FA08F8C3F80080DD
:1002E0001368084A93421BD101221DE0EB710008FC
:1002F000C8000020F83F002000100240D411002068
:100300000020024000127A0004100140000000208A
:10031000001BB7004400002000093D00F89E0108C2
:10032000A04A934202D102229F4B1A70DFF8DCA24E
:100330009E4B20ADCAF80C30A369DFF898B243F0A9
:100340000103A361636A4FF00009BB60636A9848C8
:1003500043F080736362A36943F01C03A3614FF60B
:10036000FF7325F82C3D29468DF8569011F061FF5A
:100370005846294611F05DFF29468E4811F059FF75
:100380008D4B28465A6842F000725A6013F03EFACC
:100390008A4A159B4946B3FBF2F389480C22FB605D
:1003A00018F0F2F84FF47A72864BB8FBF2F808F1C5
:1003B000FF325A60F0228AF823200722C3F80890FF
:1003C0001A60B368DFF81482DFF844A2C8F800307E
:1003D0007D4B0FCB85E80F00A369159843F0080308
:1003E000A361A36916A943F00803A3610823CBF80E
:1003F00010301023CBF8103011F01BFF179818A9FC
:1004000011F017FFD8F80030180744D59AF890314A
:10041000012B40D86D4B9AF891219B6813F0805ABC
:1004200000F0C2854B46B3B3694ADFF8A8B1106843
:10043000DFF87C914FF01008CBF814802946159016
:10044000484611F0F6FE0822C9F810203C2006F0BC
:1004500066FECBF810804FF0000896F89121904589
:1004600015DA5C4A4FF0080BC2F810B07820C9F8D2
:1004700014B0039206F048FE039A7820C2F814B034
:10048000C9F810B006F040FE08F10108E5E7BAF13E
:10049000000F00F09285642006F041FEA0224E4835
:1004A000002118F071F8E369002243F00703E361CB
:1004B000A36943F4006343F00C03A361434B4FF083
:1004C000000A03F1100102F801A001320E2AF5D151
:1004D000FF229A77DA7783F8202083F821203F4A99
:1004E0003F4B14683F4A51461A603F483C2218F07F
:1004F0004BF804F04009052351460C203B4A484381
:1005000011F802E0384A00F802E0B9F1000F0AD110
:10051000AEF11E0EBEF1010F05D84FF0FF0E013BEC
:1005200000F802E0DBB201310529E6D1304A96F845
:1005300005A013702F4A304B7A62C032BA622F4A3C
:1005400083F800A002EBCA02204B5278A10648BFF4
:100550000122DA6200232A4A40F2DC519952023326
:10056000102BF8D10EA800211C2218F00DF814F45D
:10057000007804F4006B4DD0A3040ED4BBF1000F3F
:1005800008D0204A96F88401A2F10C01012818BF76
:100590000A4603E01C4B059301E01A4A05921495A4
:1005A0003AE000BF001BB700264000200005FA0516
:1005B00000080140001001400000014040420F00CF
:1005C000EC3F002010E000E0209F0108C800002060
:1005D000309F0108000C01404C3E0020101000200C
:1005E000F0260020C61300209827002023C401080D
:1005F00096270020E4110020F41D002008C5010802
:100600000E1E0020049F0108F89E010800ED00E086
:10061000D4110020CDF81480BAF10E0F04D00AF0E6
:10062000EF0ABAF1080F02D101228DF84A20012009
:1006300006F010FC18B14088003018BF0120C4F348
:10064000400219F100098DF83E20C4F3403200F059
:10065000010018BF4FF001098DF83820C4F3C032F3
:100660008DF83D008DF840908DF83B20BBF1000FD8
:1006700007D096F884B1BBF1010EDEF1000B5BEB05
:100680000E0B18F1000318BF01238DF84230FB6AEE
:10069000B6F84401003318BF01238DF84330C4F38A
:1006A00000538DF84430B6F84631C4F30042ADF83B
:1006B0004830B6F852318DF84120ADF84630C4F3D9
:1006C00080438DF83F30B6F8503104F00101C4F397
:1006D000C002ADF84E00E0048DF83CB08DF8391042
:1006E0008DF83A20ADF84C3004D5AF48B0F84C0145
:1006F000ADF84E00B3F5FA7F84BF0023ADF84E305D
:1007000096F8D431A94887F83030002387F8313083
:1007100043709DF84A30002B14BF0223002301B917
:1007200002B10133A24A4FF0000802EB8303DB6BF6
:10073000CDF810800693069B33F808204FF6FF7320
:100740009A4200F08881D3B29A4F9DF83D101E0165
:10075000BC1919B1991E012940F277819DF840100A
:1007600021B1B9599448814200F06F819DF841E070
:10077000BEF1000F04D0B9598F48814200F0658165
:100780009DF83E1039B161688C48814203D12189BE
:10079000102900F05A819DF83B1039B161688748F3
:1007A000814203D12189022900F04F819DF83C103C
:1007B00039B161688248814203D12189022900F060
:1007C0004481DDF850C0BCF1000F0FD06068DCF848
:1007D000001088420AD12189BCF80400884200F048
:1007E0003481BCF80600884200F02F814FEA1229BC
:1007F000B9F1020F02D19DF8382004E0B9F1010FE0
:1008000004D19DF83920002A00F01F819DF8432073
:1008100062B19DF84A204AB9A3F10802012A05D81D
:10082000B959684A914208BF4FF004099DF8442025
:1008300062B19DF84A204AB9BEF1000F02D00C3BCC
:10084000012B01E0043B032B40F2E780B9F1010FDB
:1008500042D15D4BFF2283F8782083F879202189EB
:10086000627B4FF0000A83F87CA0C3F88840606880
:10087000ADF854108DF856202946022283F834A092
:10088000C3F838A0C3F83CA0C3F840A0C3F874A0D4
:1008900083F87AA083F87BA08DF85720039311F09A
:1008A000C8FCB859A17A524605F078FF2046514657
:1008B0004A460BF04DFC039B444AC3F894A0C3F88E
:1008C0008C20434A2046C3F8902003F18C0103F1A9
:1008D000900209F083FAB8E0B9F1020F3ED1049A10
:1008E0003C49D3B21C225A43049B01EB020A4FF04D
:1008F000000B8AF8013001238AF802B08AF80AB0A6
:100900008B542189627B6068CAF80C40ADF85410A2
:1009100015A903938DF856208DF8579011F089FC96
:10092000B859A17A5A4605F039FF039B20461A466A
:1009300059460BF00DFC284B0AF11402CAF810308E
:10094000264BCAF818B0CAF8143020460AF1100134
:1009500009F044FA049A0132049276E0B9F1030FE7
:1009600058D19DF83F30184E3BB196F83270204672
:1009700008214FF6FF7200233EE0BDF84C3096F898
:100980003270B3F5FA7F2FD9154A2046B2FBF3F245
:100990000821BDF84E3092B20BF0B3FC06EB87078E
:1009A000C7F85C010F4B2EE0D4110020F9000020A5
:1009B000F89E010828C40108000400400008014016
:1009C000000C0140002C0140C80000201B18010849
:1009D0001D19010844010020D9670008F518010815
:1009E00000127A003D190108B94A2046B2FBF3F221
:1009F000BDF84E30012192B20BF083FC06EB870765
:100A0000B44BC7F85C01C36096F83230013386F806
:100A100032301AE0B9F1040F17D1BDF84630AC4AB4
:100A2000AD4E92FBF3F22046BDF84830012192B260
:100A300096F831700BF065FC96F8313006EB8707BD
:100A40000133C7F88C0186F8313008F10208B8F19B
:100A50001C0F7FF470AEA04CA04F94F831304FF0D3
:100A6000000E84F8AC319E4B87F800E01E78A6F1AA
:100A70001703022B1CD8F146636A002153F80900C2
:100A800003EB090A15F014F910B1E36A7BBB29E006
:100A9000944B09EB030E9AE80F008EE80F003B78A9
:100AA00009F110090133B9F1C00F3B70E4D1ECE753
:100AB0008D4B13F8369003EBC603D3F804A087F8E8
:100AC0000090BAF1000FE0D0CE45DEDA854A4FEA59
:100AD0000E1303EB020C53440FCB0EF1010E8CE806
:100AE0000F00F1E7814A1368D90429D422E0804A33
:100AF00002EBC60393F84C007E4AD3F850E0107026
:100B0000BEF1000FEED000238342EBDAC3EBC3014A
:100B10000EEB0102D2F800A0DFF80C92013341F88D
:100B200009A001EB090C9188ACF8041092798CF8BB
:100B30000620E9E706F0EF03082B6F4B27D128E0EA
:100B400097F800A0BAF1010FF4D96C4F4FF00009EB
:100B5000D14507F11007EDDA57F8100C4FF07C5132
:100B600014F012FF4FF07C5147F8100C57F8140C9A
:100B700014F00AFF4FF07C5147F8140C57F80C0C96
:100B800014F002FF09F1010947F80C0CE0E70E2E02
:100B900008D11A78182E42F010021A7008D106F007
:100BA000EEFB05E01A78192E22F010021A70F5E714
:100BB00008F018FA4D4A13685A0302D4504B012228
:100BC0001A70504B504E1A78504F42F004021A706F
:100BD00033784FF48052012B8CBF102314238DF8EF
:100BE00056304FF002038DF85730BB69ADF85420F2
:100BF00043F00403BB618CBF4FF001094FF00009C3
:100C00004348294611F015FB424BB9F1000F01D0C2
:100C1000414A00E0414A00201A6006F0B3FA404B16
:100C2000DFF8089193E80300BB6985E8030043F00F
:100C3000080316A9BB61159811F0FBFA0DF07EFEB2
:100C40009F238DF83430322000234FF4805A8DF8E2
:100C500035308DF836308DF8373006F060FA0422E2
:100C6000C9F814A028460DA908F094FAC9F810A0F4
:100C70009DF856209DF85530120242EA03429DF835
:100C800057301A43274B9A4214D0322006F047FAC5
:100C9000C9F814A0F5200FF0B3FEFF200FF0B0FE4E
:100CA0007028C9F810A005D13378022B02D1164B59
:100CB00003221A703378032B0CBF1F20022006F08A
:100CC00080F83378032B33D001200FF0DFFC39E0BC
:100CD00040420F002D190108C8000020DC1C002034
:100CE000F41D0020EC1C002008C501081010002095
:100CF000F89E0108241E0020CE110020F41C0020C4
:100D000000230020F83F0020264000200010024071
:100D100000080140FC3F0020E16E0008F56E00086D
:100D200014A0010815202000251E0020000C014001
:100D3000022006F08FF818B14088003018BF01205B
:100D4000C307C1D5AE4B96F800A01D68AD4E4FF05D
:100D5000100B05F400635A4630460021049317F047
:100D600013FC4FF6FF73ADF8343002234FF0000848
:100D700015EA030205F400498DF836308DF8378006
:100D800035460ED0A0480DA9ADF834B005F0B2FD3F
:100D90000422327086F8018007230126AE70EB70C2
:100DA00000E01646BAF1010F0FD9202396480DA98D
:100DB000ADF8343005F09EFD052301222B72AA7296
:100DC000731C07226E72EA72DEB2B9F1000F0ED008
:100DD00002238D480DA9ADF8343005F08BFD0123B9
:100DE000F2182B71AB7107236E71EB71D6B2049BB5
:100DF0007BB1022385480DA9ADF8343005F07AFDAA
:100E0000092301222B73AA73731C07226E73EA73E2
:100E1000DEB27B687E4843F440437B607B69DFF849
:100E2000F08143F001037B61BB6943F40073BB6154
:100E300012F074FC774B00271593774B022E169314
:100E400034BF3B4680231A934FF480731B934FF4B7
:100E500080631C93202315A91D9340464FF4005333
:100E600018961E93179719971F9712F039FCD8F808
:100E70000030012E43F00103C8F80030674B98BFE3
:100E800000215A6888BF012122F4702222F4807266
:100E900042EA01225A609968614A013E0A4042F4DE
:100EA000602242F002029A60DA6AF6B222F470021C
:100EB00042EA0656DE623846012329188A78002A5B
:100EC0005AD02A5C5E1C092A91F803E0F6B2534915
:100ED00011D9A2F10A0707EB47074FF0070C0CFAEC
:100EE00007FC0EFA07FED1F80C8028EA0C0C4CEA3D
:100EF0000E07CF600EE002EB42074FF0070C0CFA32
:100F000007FC0EFA07FED1F8108028EA0C0C4CEA18
:100F10000E070F61062B41490ED8013B03EB8303FB
:100F20004FF01F0E0EFA03FE9A404F6B27EA0E0792
:100F300047EA02034B6320E00C2B0ED8073B03EB80
:100F400083034FF01F0E0EFA03FE9A400F6B27EA41
:100F50000E0747EA02030B630FE00D3B03EB83032D
:100F60004FF01F0E0EFA03FE9A40CF6A27EA0E07D3
:100F700047EA0203CB6200E01E460430102801D08D
:100F800033469AE7254B9A6842F480729A609A68D1
:100F900042F001029A609A6842F008029A609968E9
:100FA0001E4A0F0710D5FAE702F1FF39B9F1090F10
:100FB0008CBF00230123FFF736BA1A4B83F891A1A7
:100FC0000EF042FDFFF767BA936843F004039360A5
:100FD000124A936813F00403FAD1916841F4A00116
:100FE0009160104AB2F85801F8B9B2F95A31DBB938
:100FF000B2F95C31D3F1010338BF002315E000BF23
:1010000010100020C025002000080140000C014005
:10101000080002404C240140D0250020002401405B
:10102000FDF7F1FFD4110020034613F0010340F057
:101030008A80BB4A00B2137114F052FCB94914F013
:10104000A3FCB94F0646B7F95A0114F049FCB5495B
:1010500014F09AFC0546B7F95C0114F041FCB14963
:1010600014F092FC8146304606F010FD07463046EB
:1010700006F09AFC8046284606F008FD06462846FB
:1010800006F092FC0546484606F000FD82464846BA
:1010900006F08AFC39468146504614F075FC394604
:1010A0008346484614F070FC51460490404614F0C4
:1010B0006BFC49460690404614F066FC31460790AA
:1010C000504614F061FC4946C4F8B00106F10040F6
:1010D00014F05AFC2946C4F8B401C4F8B851069873
:1010E00014F052FC0146049814F046FB2946C4F85B
:1010F000BC01079814F048FC0146584614F03AFB2E
:101100003146C4F8C00108F1004014F03DFC294606
:10111000C4F8C401584614F037FC0146079814F08F
:1011200029FB2946C4F8C801049814F02DFC014697
:10113000069814F021FB3946C4F8CC01304614F06F
:1011400023FCC4F8D001794D2B689E0320D5C8201C
:1011500005F0E5FFAE2013F0EFFC08B113F07DF8C9
:1011600084F8D401C82005F0DAFF714B00210C226D
:101170007048C4F8D83117F007FA022384F8DF3139
:1011800013F0DAF805F0A4FF6B4B0344C4F8E43124
:101190006A4F654E3B6896F85F0196F8691196F8BC
:1011A0006A21B3F956300BF0DBFA10B901200FF0C9
:1011B00059FB634B4FF00A081A7842F002021A708A
:1011C000604B10225A6108221A615E4F1920FB6899
:1011D00008F1FF3883F01003FB60FB6883F008031D
:1011E000FB6005F09CFF012005F0CCFF192005F005
:1011F00096FF002005F0C6FF18F0FF08E5D1082390
:101200003B614FF01008504BC7F810801B6818075F
:1012100009D54E4BC7F814801B6898474C4B0122E8
:10122000C7F810801A70D4F8E8714FF00008387BC6
:1012300014F056FB3B4914F0A7FB06F027FC454B86
:10124000C4F8EC01188814F04BFB01464FF07E50B7
:1012500014F04EFC404BC4F8F0013249186914F008
:1012600093FBC4F8F401387814F03AFB01464FF0D0
:101270007E5014F03DFC0146C4F8F8014FF07E505A
:1012800014F078FA4FF07E53C4F8FC014046C4F8DD
:101290000832C4F81432C4F80082C4F80482C4F8D6
:1012A0000C82C4F8108206F0F1FB0746404606F0B7
:1012B0007BFB39468046384614F066FB4146824641
:1012C000404614F061FB39468146504614F05CFB01
:1012D00041468346484614F057FB0146584614F0F1
:1012E0004BFA3946C4F81802404614F04DFB394613
:1012F000039014F049FB039B83464146184614F0C3
:1013000043FB034619465846039314F033FA039BF4
:10131000C4F81C021946584614F02EFA1EE000BF0D
:101320000000002035FA8E3CD4110020101000205F
:101330005C130020A4020020404B4C00401C002005
:10134000F83F0020000C014074110020C011002063
:101350002C1A002012000020C41B00204146C4F8B3
:101360002002504614F010FB39468046484614F0DF
:101370000BFB0146404614F0FDF90027C4F8240297
:1013800084F82872B44CFF211B22204617F0FCF889
:101390002770B24FB24B3A68012112F0020F197058
:1013A000204604D06170032119700221A1705107F9
:1013B00004D519784C1C1C700324445412F00A0FF5
:1013C0000CD01A7804218154511CC9B2052444540C
:1013D000D11C02321970D2B2062181542A689406B7
:1013E00004D519784C1C1C7007244454110608D5E8
:1013F0001978092444548C1C01311C70C9B20A2488
:1014000044547179082901D00E2908D11C7804F1BF
:10141000010E83F800E04FF00B0E00F804E01C789A
:101420004FF00C0C04F1010E5FFA8EFE12F4803FB7
:1014300083F800E000F804C009D004F1020C884CE5
:1014400084F800C0844C4FF00E0C04F80EC0540712
:1014500008D51C7804F1010E83F800E04FF0100E5F
:1014600000F804E01C784FF0120C04F1010E5FFA52
:101470008EFE12F4806F83F800E000F804C00ED0F6
:1014800096F81CC2BCF1000F09D004F1020C744C98
:1014900084F800C0704C4FF0130C04F80EC01C7898
:1014A0004FF0140C04F1010E5FFA8EFE12F4007F6F
:1014B00083F800E000F804C009D004F1020C684C85
:1014C00084F800C0644C4FF0150C04F80EC01829C5
:1014D00013D11C784FF0160E00F804E004F1010E51
:1014E0005FFA8EFE4FF0170C00F80EC004F1030EE9
:1014F0000234E4B283F800E00155110304D51978F1
:101500004C1C1C7019244454D40504D51A78511C61
:1015100019701A23835400219822524817F034F886
:10152000514C11F05BFAB6F84E315049A4F8303204
:1015300000234F4A0B808B70B6F896014D49C4F8D2
:101540002C220A6081B24C4A99520233242BFAD1E0
:101550002B68D9045CBFB6F89C1111801B0740F1C1
:10156000EE8096F89031062B00F2E380DFE803F07E
:1015700004070E3955A0A00045F2F05201E042F6F2
:10158000F8223E4B1A8011F0B3FAD1E03B4B42F601
:10159000F8221A8014F0A4F9394914F0F5F9394900
:1015A00014F0E8F814F0DCFB0023374A98500433B9
:1015B000482BFAD1354A364B40209A60354B1222DF
:1015C0001A7005F085FC002800F0B38001234FF06D
:1015D000070990F9000040218DE808022E4A2F4BA0
:1015E000A1E0264B42F6F8221A802D4A284B4020D3
:1015F0009A60284B10221A7005F06AFC002800F04F
:10160000988001234FF0000890F9000040218DE8F8
:101610000801244A4FF4E13385E0184B42F6F822E2
:101620001A80214A1A4B40209A601A4B08221A70DD
:1016300005F04EFC00287CD001234FF0000C90F9FF
:10164000000040218DE80810184A4FF4E1330DF0F6
:101650002BF9C4F8340268E02B2700207411002015
:101660002A27002054260020C8000020C41D002086
:101670005C130020141000208A110020181C002088
:10168000CDCCCC3F0000B044681000209962000827
:10169000000000204627002001650008A086010008
:1016A000896200085164000875620008056400083A
:1016B0004A4A42F6F821118049490C22062B494832
:1016C0000A7010D00023037084F8383284F839325D
:1016D0001B2384F83A32052384F83B2284F83C32F9
:1016E0004FF4E1380EE00021017084F8381284F8DC
:1016F0003912DFF81881212184F83A1284F83B224C
:1017000084F83C32384A394B40209A6005F0E0FBBF
:1017100078B101234FF0000E354A90F900004021C6
:101720008DE8084043460DF0BFF8003018BF012097
:1017300028B9082006F04AFB2E4A2C4B9A602B68E9
:10174000274A13F4804F04D0082111702A482749F2
:10175000886042F20101194089B1204944F62060B5
:101760000880980404D50821117024481F49886016
:10177000D90704D50C21117021481C4988601178C3
:101780001B06A1F1040151707FD5DFF884804FF072
:101790000009DFF880A0494615221A48DFF878B022
:1017A000C4F840A288F80190C8F80490C8F80890DE
:1017B00016F0EAFEAAF105034846CBF8003008F01F
:1017C000F1F9114B02201B68C8F80C3005F080FBC2
:1017D000434618BB802006F0F9FA4EE0181C0020A2
:1017E000462700204C110020356200080000002030
:1017F000ED620008E9620008C5620008D1620008D5
:10180000DD6200080C030020E83F002090D00300B8
:10181000981B0020C6130020B81B002090F805E09C
:101820005A78CA494FF00C0C0CFB021C9CF801C002
:10183000F44504D00132D2B2042AF2D900225A70FF
:10184000DBF800205B7812784FF00C0E0EFB0311D2
:1018500012F0FD0F0CBF0122032290F9000000924C
:1018600000224B78019202210DF01EF8B84B18604F
:101870000028AFD0012008F095F9B64B186800F5A4
:10188000CC73C4F85C3210F079FB2B68980559D5FD
:10189000DFF81483059AB04BC8F800209A694FF01E
:1018A000100942F001029A61059AAC4813880CA90C
:1018B000ADF8303002238DF832908DF8333010F0CF
:1018C000B8FCD8F80030A5485B880CA9ADF83030DA
:1018D00004238DF8323010F0ACFCD8F80030012031
:1018E000197A10F091FCD8F800309D4A5B684FF0EF
:1018F000000A536115A88DF859904FF0010915930E
:101900008DF858A08DF85A9004F0C6FFD8F8003032
:101910000DA85B7A8DF836A08DF8343003238DF84E
:1019200035308DF8379008F035FB8E4B1A688E4BAA
:101930003C3A1A603B684FF0FF3243F010033B60C3
:101940008A4B1A608A4B8B4FC4F860328033C4F8DC
:1019500064322B684FF00008D90387F8008040F10B
:10196000BA8010F08FFADFF844C2DFF8EC9140F251
:101970002A3B4FF0010A60465A46414687F800A0CC
:10198000CDF80CC016F000FED9F818307A4843F0B4
:101990000403C9F818304023ADF8303018238DF80F
:1019A00033300CA903238DF8323004F0A3FFD9F8AB
:1019B0001C30724F43F00203C9F81C30704BA9F67B
:1019C00094791A686F4BB2FBF3F23B88013A23F427
:1019D0005C731B041B0C3B8092B21D23BB853A85B4
:1019E000A7F814A03B8C23F001031B041B0C3B84C1
:1019F0003B8CB9883A8B23F0020322F07302120465
:101A00001B04120C1B0C89B242F0600243EA0A0369
:101A1000B9803A83A7F834803B843B8B23F00803DA
:101A20001B041B0C43F008033B83B7F844306FEAF8
:101A300043436FEA53439BB2A7F84430D9F8A83F19
:101A400043EA0A03C9F8A83F484611F067FE4E4B27
:101A50008022DDF80CC01A924FF4807215931B920D
:101A600010234FF40052484615A917931E92039372
:101A7000CDF86480CDF87080CDF87480CDF87C808E
:101A8000CDF858C0CDF860B011F02AFEBA89039B9A
:101A900092B242F40072BA81D9F800200DA842F047
:101AA0000202C9F800208DF834308DF835A08DF889
:101AB00036808DF837A008F06DFA344B1A68344B35
:101AC00048F8032008F10408B8F1800FF5D108F0B8
:101AD000AEF808F0ACF82B685A0540F18A80D4F8CB
:101AE000108F2C4B0420C3F8008005F0F1F904217D
:101AF000C4F8140F05F0C2F9274B84F8180F08201A
:101B0000C3F8008005F0E4F9244B0821186005F0C3
:101B1000B5F9234F84F8190F002138462C2216F00E
:101B200033FD8E237B704FF07C0AE0234FF07D095C
:101B3000FB7087F800A087F82B901A4F2C22002109
:101B4000384616F021FD8A2332E000BF2CA601089A
:101B5000941B0020401C002000100240000C01409B
:101B600000040140E83F00208C1B00205C1B00208B
:101B7000001400201D230020000801400004004044
:101B80004400002000366E013404004078AB0108A8
:101B90001E230020EC270020402800208C28002055
:101BA0001028002045280020901B00203003002032
:101BB0007B701020A023FB7087F800A087F82B9083
:101BC000C4F81C8F05F084F91021C4F8200F05F02B
:101BD00055F984F8240F2020C4F8288F05F078F9EF
:101BE0002021C4F82C0F05F049F984F8300F11F0CA
:101BF00083F9764B764F1B78022B6CD1754B4FF0E7
:101C000000081A88322022F040021204120C1A80B6
:101C10001A884FF4805922F038021204120C1A80EC
:101C20001A8892B242F040021A809F238DF8343015
:101C30008DF835808DF836808DF8378005F06FFA95
:101C40008DF85580DFF8E0810422C8F8149015A8BB
:101C50000DA907F09FFAC8F810909DF856309DF82E
:101C600055201B0243EA02439DF8572013435A4A6A
:101C700093421DD00AD8A2F51A42033A934210D0DB
:101C800002F51A42023293420DD01FE0534A9342AA
:101C900009D0013293420BD0514A934216D14023CE
:101CA00002E0202300E080233B804FF4807302E0B9
:101CB0004FF480733B807B80BB883A881B02BB60FB
:101CC0005343FB60012384F8313F04E000233B8051
:101CD0007B80BB60FB60FB6823B34FEAD328C1461F
:101CE0004FF0000AC2450BDA0AEB08077F100DF12E
:101CF000540BF8025946102207F04CFB0F2806DC63
:101D000009F0AAF84FEAC923C4F8343F0AE00023D7
:101D10005BF80320013255D10433102BF8D1B846BB
:101D2000B946DFE72B6813F400222E4B18BF0122BF
:101D30001A7005F0CDF92C4B18607379052B03D17F
:101D40002A4B4FF4C8721A80294B4FF47A721A80CA
:101D5000284BC8221A80284B28491A7842F00802DA
:101D60001A70274B1A7822F002021A700A6840F69D
:101D7000020313406BB12348234B1860234B03200D
:101D80001870234B0120187022480023038022483A
:101D90000380930308D5042384F8E03194F8DF31FD
:101DA00043F0010384F8DF311C4B01229B680B6078
:101DB0001B4B1A701B4B1A7862F07F021A7021B00D
:101DC000BDE8F08F07F1010A4F46A9E72640002041
:101DD000180000200038004018BA20001740EF001B
:101DE0001620C20001230020DC1B00201426002046
:101DF0002040002018400020CE11002010100020AC
:101E0000224000204E130020E42700204428002018
:101E100050000020B2250020B4250020D41100205D
:101E200000230020F83F0020000C0140964A2DE9D5
:101E3000F04F1468954904F59C4320330B60944B94
:101E400089B01968934E11F4804F05D107F078F8E6
:101E500010B933780133337077788E4BBFB15A683D
:101E6000944240F2E880013F5F70E4E0D8F800302F
:101E7000072C98BF195D884B88BF21461B6887488F
:101E80009847032C0BD906EB440420810137834B80
:101E9000FCB21D78DFF82C82A542E7D81FE0D8F805
:101EA000003004F10E0203EB82029388D2880028EE
:101EB000E9D0C01A4FF47A714843D31A90FBF3F07B
:101EC000084440F6C903984205DC40F2EE239842EC
:101ED000B8BF184601E040F6CA0080B2D3E70F232E
:101EE00086F82C306E4B36781B784FF0030A03933C
:101EF000B6FBFAFA6B4B0AEB4A0A1B78CAEB060AE6
:101F000069005FFA8AFA4FF0000BD8F80080664F3C
:101F1000049305914FEA4A0AD94605998B4556D054
:101F20006249039A3BF8014042B907F009F820B131
:101F3000049B002B08BF002400E0039CB8F8141099
:101F4000A14206D8B8F81610A14234BF00210121E1
:101F500000E0002131B95FFA89F0029106F0FCFF40
:101F6000029904465FFA89F003280BD851B94FF063
:101F7000010E0EFA09FE474991F82C0020EA0E00E6
:101F800081F82C0006F0DCFFC0B9424927F80A406E
:101F900091F8760020B9022E10D9012081F8760040
:101FA00079883C880C44B9880C444149A4B22BF888
:101FB000014024B2032194FBF1F4A4B23D4909F19C
:101FC00001092BF8014006370BF1020BA5E7314B55
:101FD000394993F82C20B2F10F077A427A4183F8FD
:101FE0009020364B6AB1364A1268560109D40A6805
:101FF000D9689A60521AC82A1DD9012283F8212073
:1020000019E027480022096802709868D9605B6867
:10201000091A994288BF294B4FF0000488BF83F802
:102020002120AC4207DAE0B206F096FF214B23F8FC
:1020300014000134F5E7164A1368DD0405D5204B7A
:102040001B68DC0701D410F01DFD0F4B1D681D4BF4
:1020500019688B7A002B39D0164A013B32F81300ED
:102060000B7B1BB1C0F53B60083080B200B2A0F51D
:102070007A70B0F57A7FA8BF4FF47A7020EAE070EA
:1020800013F02EFC104957E00010002068110020CA
:1020900010100020B0230020080000204627002058
:1020A000041000200C100020DE230020B8230020A4
:1020B000282400208A110020E83F0020C41D0020B1
:1020C000781100201410002000007A448C48026827
:1020D00010043AD58B4AD2F89400281A002834DB31
:1020E00005F59C402030C2F894008748C97A4479AD
:1020F000864830F8140080B290FBF1F092F8981006
:10210000013101F00F0182F898100A4482F8990019
:1021100018467F4A9A5C01331044102B80B2F8D1E4
:1021200000B290FBF3F000B26428A8BF642020EA5C
:10213000E07013F0D5FB774913F0DAFC764913F021
:1021400023FC13F00DFE754B18806D49744C0B6821
:1021500013F4807F00F0FF80724B9D42724D03D9D3
:10216000AB780BB90123AB70AB78002B00F0F38098
:102170006D4B277893F821606C4B711E4E424E4197
:102180001A68002EC7F38007C2F3806899460CBF17
:102190004FF0030A4FF0000A95F82030052B00F2AB
:1021A000D480DFE803F0034D5274819A002F3AD0B7
:1021B0005F4B18685F4B198806F0F6FE012809D1BD
:1021C0005D4B64211A684F4BD3F8AC30DB8801FBC0
:1021D00003232B61B8F1000F0DD04A4BD3F8AC307C
:1021E0001B7943B107F0ECFC032385F820304FF452
:1021F0007A73EB61D0E7002E40F0A7804E4BDFF8FA
:1022000028B11A682B699A4209D907F0D9FC03232F
:102210008BF8203040F6B833CBF81C30BCE70123F4
:102220008BF82030B8E74FF48060B8F1000F02D08F
:1022300004F0F4FC01E004F001FD00232B6184E0D4
:10224000002E42D107F0BCFCA6E726B1052385F895
:102250002030012100E031466FB1354B4FF0020ACA
:102260001B68DA89354B1A805A809A80254AD2F841
:10227000AC205288DA80304B1A686B699A4201D8D8
:10228000002F5FD147F23053EB6103231EE0237828
:1022900043F00203237010F0F5FB274B1A68EB693B
:1022A0001344AB61042311E0234B1A688EB1AB6970
:1022B0009A424AD9224B1B781BB9D9F80030DA0769
:1022C00043D4237823F002032370052385F82030BC
:1022D00062E7EB691344AB6137E0174B64211A687E
:1022E000084B4FF48060D3F8AC30DB8801FB03234C
:1022F0002B61002385F82030EB7004F09FFC4BE746
:1023000010100020B0230020C0250020D025002080
:10231000492400200000C84200C07F444827002014
:1023200022400020404B4C00C41D002078110020AA
:10233000F4020020F8020020E83F00208A1100206B
:102340001100002000297FF427AFBAF1000F02D05E
:10235000504604F029FC964E06F5C470B6F84E11AE
:1023600006F022FE804678B905F0EAF8914B00228B
:10237000C3F8B080C3F8B480C3F8B880C3F8BC20F9
:10238000C3F8C020C3F8C42023785B0741D58A482E
:102390000368DF063DD5894B1B78DD0639D4884BB1
:1023A000844D1F788FB196F8E031B8F1000F16D147
:1023B00073B1844B1A68D5F8C8309B1A002B07DA22
:1023C00010F060FB85F8CC8023E0B8F1000F19D144
:1023D000102004F0E9FB012385F8CC3019E03BB173
:1023E000784A4FF47A71126801FB0323C5F8C830AC
:1023F00095F8CC306BB104F0BBFB6E4B002283F838
:10240000CC2006E095F8CC301BB104F0B1FB85F888
:10241000CC70002296F8DE9196F8DF11B6F898712C
:10242000B6F89AE11346684D9B08505F0232B842F5
:10243000C4BF63F07F03DBB27045B8BF43F0400315
:10244000082AF0D15B4D95F8CD209A4205D195F838
:10245000CE20F92A04D8013200E0002285F8CE20EF
:1024600085F8CD30564B594F1A789A46DAB93B6801
:10247000D80708D5B8F1000F15D12378D90712D5A0
:1024800010F080FB0FE023785A070CD5504B1B78D7
:102490004BB1504BDB7833B911B110F0F3FA02E0D5
:1024A000B8F1000FF9D095F8CE20DFF808B1142A62
:1024B000DFF8348140F0AA809AF8002019F1000971
:1024C00018BF4FF001094AB39BF8CD205F2A0FD106
:1024D000227802F0040202F0FF0112B110F0D2FAE9
:1024E00006E00B20029104F05FFB02998BF8CE10FE
:1024F000B9F1000F12D095F8CD307D2B0ED1237895
:1025000003F0040303F0FF0B13B110F0BBFA05E076
:102510000B2004F049FB274B83F8CEB0237803F05F
:10252000040303F0FF00002B70D195F8CD30214A51
:10253000572B16D1284B20494FF47A721A800B681A
:102540001B0601D505F016FC244B1B68580702D565
:10255000234A0A21118013F0080357D1214A13801E
:1025600054E015490968490717D55A2B15D192F837
:10257000CF302BB1012382F8CF0082F8D03045E074
:1025800092F8D13083F0010382F8D1300BB10C20E6
:1025900000E00D2004F008FB38E05D2B00F06185C1
:1025A0005B2B00F060855E2B20D1032000F05CBD2A
:1025B000D4110020B023002010100020CE110020E4
:1025C00011000020E83F00208A110020781100202F
:1025D00004100020C41D00202040002074110020A1
:1025E00018400020C21C0020401C0020562B01D1A6
:1025F0000DF02AFA9AF80030002B00F04A8595F881
:10260000CD306F2B40F03F8510F0BCFAA94A13681B
:102610005B0736D595F8D130A74A93B12378580790
:102620000FD5A64BB3F90610B6F89831994208DDDC
:102630003B6813F0010304D13221A2F8D21082F8D2
:10264000D1303B6813F4803F9B4B0CD095F8D420DD
:102650002AB993F8CF2012B93222A3F8D22001234D
:1026600085F8D4300DE095F8CF2052B1227802F0F1
:10267000040202F0FF0122B9012283F8CF1083F88F
:10268000D020D8F80090002309F1850A3B6009F1B9
:10269000870598460AF1020303EB080113F80820A6
:1026A0004B7815F8010C9A420AD2294604F0EDFC49
:1026B00030B115F8023C01229A403B6813433B605D
:1026C00008F10408B8F1500F05F10405E2D17C4B84
:1026D0001F7847B17B4E7C4F33687C4D13F0020F5F
:1026E00040F03B8332E309F1D50809F1D60508F142
:1026F0000103D919DA5D4B7815F8010C9A4229D2F9
:10270000294604F0C2FC28B395F802E02879704B02
:102710000EF1FF3E4FF00C0C0EEB4E0E0CFB00FCCE
:102720009E44654B95F803A003F1D80909EB0C0210
:10273000516871450ED0002109F80CA0C2F804E0E0
:102740009160012202FA00F093F8082122EA0000C9
:1027500083F808010637482F05F10605C7D15D4B00
:10276000DFF884A11F685C4B4FF000091B680393DE
:102770005A4B1B780493DAF80030002B00F0DD820E
:1027800093F80080B8F1000F00F0D782DAF8042047
:102790000398821A002A0DDB012101FA09F100F5E4
:1027A000FA72CAF80420444A92F8080120EA0101AA
:1027B00082F80811049A002A00F0BF821AF8041C5B
:1027C00058780431C9B23C4A002840F076823B4830
:1027D00030F911104248B0F8960100F1C805A9423D
:1027E00001DD9D7814E0C838814202DA9D786D429F
:1027F0000EE0012303FA09F392F8081121EA03031A
:1028000082F80831039A02F5FA73CAF8043094E2A8
:1028100092F8083143FA09F3D90700F18E82002DAE
:10282000CCBF0220012004F0E1F908F1FF33132BA3
:1028300000F27A82DFE813F0140021002E005A0023
:1028400073007A00E0004601AC01E001100278025A
:102850005A0069007A00E0004601B20018017E01CA
:102860003B7838461D44FA2DA8BFFA2525EAE575C0
:102870003D7004F0BDFB01201AE07B7838461D4412
:10288000642DA8BF642525EAE5757D7004F0B0FBD2
:1028900002200DE0FB7838461D44642DA8BF642556
:1028A000104B25EAE575FD70196804F05DFB032007
:1028B0002946CEE110100020B02300208A1100200C
:1028C0002540002078110020741100207C11002088
:1028D00008B90108D81C0020E83F0020041000209F
:1028E000D4110020F42600208C24002079790D20BA
:1028F00029446429A8BF642121EAE171797107F0B4
:102900004FFCB8F10D0F00F00F8239790E202944E9
:102910006429A8BF642121EAE171397199E1B9798B
:102920000520294481F30801B97192E1AF4BD3F836
:1029300000B09BF80020022A1FD1284612F0D0FFD9
:10294000AB4913F0D5F8DBF8241012F015FF002185
:10295000029013F0B7F9029A38B91046A44913F05F
:10296000CFF9029A10B1A24A00E00022CBF824204D
:102970000F20114607F028FC0CE09BF802100F20F6
:102980002944C829A8BFC82121EAE1718BF80210A7
:1029900007F006FCB8F10F0F00F0C681934BD3F897
:1029A000008098F80030022B1AD1284612F098FFC8
:1029B0008F4913F09DF8D8F8201012F0DDFE0021A9
:1029C000054613F07FF930B92846894913F098F984
:1029D00010B1874D00E00025C8F8205012205CE1BE
:1029E00098F8011012202944C829A8BFC82121EA5B
:1029F000E17188F801102CE17C4BD3F800B09BF812
:102A00000020022A1FD1284612F06AFF784913F0ED
:102A10006FF8DBF8301012F0AFFE0021029013F0D7
:102A200051F9029A38B91046714913F069F9029ABE
:102A300010B16F4A00E00022CBF830201020114680
:102A400007F0C2FB0CE09BF80C1010202944C829A9
:102A5000A8BFC82121EAE1718BF80C1007F0A0FB98
:102A6000B8F1100F00F06081604BD3F8008098F847
:102A70000030022B1AD1284612F032FF5C4913F0C5
:102A800037F8D8F82C1012F077FE0021054613F025
:102A900019F930B92846564913F032F910B1544D9E
:102AA00000E00025C8F82C501320F6E098F80B1031
:102AB00013202944C829A8BFC82121EAE17188F858
:102AC0000B10C6E0494BD3F800B09BF80020022A57
:102AD0001FD1284612F004FF464913F009F8DBF82D
:102AE0003C1012F049FE0021029013F0EBF8029A1C
:102AF00038B910463E4913F003F9029A10B13C4A26
:102B000000E00022CBF83C201120114607F05CFBCE
:102B10000CE09BF8161011202944C829A8BFC82131
:102B200021EAE1718BF8161007F03AFBB8F1110FAA
:102B300000F0FA802D4BD3F8008098F80030022B7B
:102B40001AD1284612F0CCFE2A4912F0D1FFD8F84B
:102B5000381012F011FE0021054613F0B3F830B919
:102B60002846234913F0CCF810B1214D00E0002590
:102B7000C8F83850142090E098F815101420294413
:102B8000C829A8BFC82121EAE17188F8151060E0C2
:102B9000164BD3F8008098F80030022B1AD1284643
:102BA00012F09EFE124912F0A3FFD8F8281012F07E
:102BB000E3FD0021054613F085F830B928460C499D
:102BC00013F09EF810B10A4D00E00025C8F8285017
:102BD000092062E098F8031009202944C829A8BFF9
:102BE000C82121EAE17188F8031032E0F8260020BC
:102BF0000000C84200007A44AC4BD3F8008098F83B
:102C00000030022B1AD1284612F06AFEA84912F0B1
:102C10006FFFD8F8341012F0AFFD0021054613F015
:102C200051F830B92846A24913F06AF810B1A04D06
:102C300000E00025C8F834500A202EE098F80D1066
:102C40000A202944C829A8BFC82121EAE17188F8CF
:102C50000D1007F0A5FA67E0944BD3F8008098F8C0
:102C60000030022B1DD1284612F03AFE914912F095
:102C70003FFFD8F8401012F07FFD0021054613F009
:102C800021F830B928468A4913F03AF810B1884D36
:102C900000E00025C8F840500B20294607F094FAC0
:102CA00042E098F817100B202944C829A8BFC82172
:102CB00021EAE17188F81710CBE7012834D1987820
:102CC0007D4B33F91110B1F5617F05DB40F633031D
:102CD0009942B8BF0B4601E04FF46173B8F10C0F95
:102CE00022D14FF49665A3F5617395FBF0F593FB44
:102CF000F5F592F80931EDB2AB4215D0032D94BF32
:102D00002B46022382F8093108FB03636B4A03F662
:102D10002203136004F086F94046294607F040FA82
:102D2000681CC0B203F062FF012202FA09F2644B90
:102D300093F808110A4383F8082109F10109B9F150
:102D4000040F0AF10C0A7FF416ADC3E45D490B6869
:102D5000DA050FD55C4BDB7863B13B689B0709D57F
:102D60002B8813F001080AD104F0EAFB012003F0DC
:102D700055FF04E0012003F061FF012300E0002380
:102D8000326850070CD55BB1012003F057FF2B8848
:102D9000990708D404F0D4FB022003F03FFF02E0BF
:102DA000022003F04BFF2B88484A13F0030F4FF02B
:102DB000100114BF516111613A6812F00A0F23D05B
:102DC0003268D20609D558070AD4042003F026FF3A
:102DD0003F4B1A883F4B1A8002E0042003F02EFF7D
:102DE0003368990606D52B885A0606D4402003F08E
:102DF00015FF02E0402003F021FF33685B0603D596
:102E0000334B1A88344B1A803B689F0608D43368CA
:102E1000180540F1F7804FF4807003F0FFFEF5E0F5
:102E20002E4F3B78990740F195802D4B1B78042B52
:102E300040F29080336813F400790ED02B88DA06C4
:102E40007BD4102003F0EAFE202003F0F7FE254893
:102E5000011D09F038F902226AE0B5F8008008F097
:102E600010081FFA88F343B1102003F0E7FE1E4B51
:102E70004FF0010883F8009000E0984633685B0546
:102E80004FD51A4B1B685A89194BB3F9001000290A
:102E9000B8BF494291422DDAB3F90230002BB8BFD6
:102EA0005B429342ACBF0023012324E0F8260020BC
:102EB0000000C84200007A448A110020D81C00207B
:102EC000B023002010100020C41D0020000C014081
:102ED000C21C0020C41C0020A8250020CE11002008
:102EE000C01B0020002700201827002024030020FA
:102EF000BA1C00200023A3B12B889D061FD42020DC
:102F000003F08CFE8D4B8E481A685B68011D436090
:102F1000026009F0D8F88B4B4FF0010883F800806D
:102F20000DE02B8898060AD5202003F087FE0022AA
:102F3000844B4FF001081A7001E04FF00008824DF9
:102F400095F80A31B3B90E2003F02EFE012385F85F
:102F50000A310FE02B8803F03003002B3FF457AF0A
:102F6000102003F06BFE202003F068FE754B00225A
:102F70001A7003E0B8F1000F3FF449AF00210D468D
:102F8000724A0023AB52704A02F586702B5202F54A
:102F900088702B5202F58A7E002041F80E008E4484
:102FA000CEF80430CEF8080002F59E7E41F80E00FF
:102FB0008E44CEF80430CEF80800023502F5B27E19
:102FC00041F80E00042D8E44CEF80430CEF80800EF
:102FD00001F11401D4D13978C9067FF518AFC2F8D0
:102FE0008C01C2F89001A2F89431A2F89631A2F8AF
:102FF0009831574900225A520C315A5202330A2B47
:10300000F7D104E74FF4807003F018FE514A53796A
:103010001546082B01D00E2B02D1402003F00EFEE6
:103020004D4A13685B0540F1868095F81C321BB948
:10303000237813F0040F02E0336813F4002F0BD051
:10304000414B002283F8B2213C2010F019FB0028EC
:1030500071D003F0DFFEF7E70FF04EFF0FF0BEFC7C
:1030600069E0012000E002205FFA80F909F1FF33F6
:1030700086F8203805F0ACFE0CF02EFB484603F035
:10308000B5FDFFF7C3BAB9F1000F02D07E2B3FF4B4
:10309000BBAA95F8CD30972B05D1304B4FF4C872B1
:1030A0001A80FFF7B3BAA72B06D12D4B1A7842F03E
:1030B00004021A70FFF7AABA0022BB2B079201D1B3
:1030C000022303E0B72B04D14FF6FE73ADF81E3098
:1030D00009E0BE2B01D1022303E0BD2B1AD14FF62C
:1030E000FE73ADF81C30D8F80030BDF81C10B3F8F2
:1030F00058200A44A3F85820BDF81E10B3F85A20EF
:103100000A44A3F85A200CF09FFC002385F8CE3027
:10311000FFF77CBA792B04D1124BDA7822F0010246
:1031200006E07A2B7FF472AA0E4BDA7842F00102A5
:10313000DA70FFF76BBA09B0BDE8F08F0028002005
:103140000C27002018270020B02300201A40002060
:103150004A250020D4110020101000201426002041
:10316000CE110020A4020020C44A2DE9F04FC44B28
:10317000D2F800E0B3F90600BEF80A3087B09842F2
:103180000FDBB0F5FA6F9EF8077007DAC21A5743E3
:10319000A3F5FA6397FBF3F7643703E0C7F164071D
:1031A00000E06427B74B0021B3F8962193F95E3114
:1031B0000292B54A9BB2D2F800C0039364460A4615
:1031C000AF4B029D31F903B0C5EB0B0303F2F316CD
:1031D00040F2E635AE4203D8002BB8BF5B4201E0B7
:1031E0004FF4FA73022A4FF06406A84D2ED09CF8D3
:1031F0001D81B8F1000F04D04345CCBFC8EB0303D9
:10320000002393FBF6F86FF0630A35F818900AFB79
:10321000083A08F1010835F918800FFA89F5C5EB6D
:10322000080505FB0AF595FBF6F5A944984D21F82C
:1032300005900EEB02052D796B43964D93FBF5F34C
:1032400064339BB27B4393FBF6F630E09CF81E811F
:10325000B8F1000F04D04345CCBFC8EB03030023F3
:1032600093FBF6F66FF0630905EB460809FB063A97
:1032700005EB4606B8F90E80B6F91050844EC8EB3F
:10328000050505FB0AFA039D9AFBF9FAC8EB0A0843
:1032900008FB05F8A6F804809EF8065083EAE3765A
:1032A000A6EBE3766E437B4D96FBF5F664360CEBAE
:1032B000020898F80190754B06FB09F94FF0640875
:1032C00003F11C0599FBF8F902F8059094F80B90AE
:1032D00003F11F0506FB09F999FBF8F902F80590BF
:1032E00094F8159003F1220506FB09F6022A96FBD5
:1032F000F8F656551D4616BF253383F82780D75458
:10330000029B634E9B4502DA735A5B427352023151
:10331000062902F1010204F101047FF451AF594C76
:10332000B4F89831984205DBB0F5FA6FA8BF4FF4B6
:10333000FA6000E01846C01A4FF47A725043C3F5A1
:10334000FA63B0FBF3F34FF0640E93FBFEF205EB70
:1033500042016FF0630000FB0233098D05EB42026E
:10336000B2F92A000AB2821A534393FBFEFE4A4B7B
:1033700071441B88F1805906454F3ED5474B18884C
:10338000424BB3F84030C01A00B212F0A9FA4449D7
:1033900012F0FAFA804604F079FB8146404604F0C8
:1033A00003FB8046B7F9020012F09AFA8246B7F999
:1033B000000012F095FA4946834612F0E5FA4146BC
:1033C00003465046009312F0DFFA009B0146184670
:1033D00012F0D0F912F09EFC49463880504612F0A7
:1033E000D3FA41468146584612F0CEFA0146484685
:1033F00012F0C2F912F08EFC78802A4B1A689A46B5
:1034000012F0020F00F09780274B6A6C1B6845F2A0
:1034100007219A1A8A421D4F40F38D807B6406F083
:1034200031FD224BDFF890801A789946032AB8F8CC
:10343000003043D10A2B4DD90023282089F80030D1
:1034400003F06DFE06F01EFDB7F8480003F056FBD2
:10345000174B18491B68DA7890FBF2F0421C082AD7
:1034600028BF08220A7059791B7992B251435A43F6
:10347000A7F84A10A7F84C202CE000BFD81C002069
:103480008A110020D4110020401C00206825002053
:10349000BA1C00200CFEFFFF7C110020C21C002083
:1034A00035FA8E3C10100020001000204428002027
:1034B000E427002050000020E82700200A2B09D82C
:1034C0000323B54A89F8003000231370A7F84A3067
:1034D000A7F84C3099F80020B04B012A0DD002D348
:1034E000022A1ED027E0B5F84A20B8F800309A42E8
:1034F00021DD012389F8003011E0B8F80020B5F88B
:103500004C10914202DD02221A7011E0A449B1F878
:103510004A1001318A4202DD00221A700BE00820B5
:1035200007E0B5F84C30B8F8002001339A42E0DCEF
:10353000072003F039FBDAF800703A057BD5994B88
:10354000296D1A68964BC1EB020B45F207218B459A
:1035500071DD9548B6F90690D0F800801A6598F8A4
:103560000A004FF47A7201289BFBF2FBB4F84E116B
:10357000A9F57A798D4E03D046D3022823D045E0B1
:1035800093F86510586D03EB4101B1F868E008212C
:1035900090FBF1FC1FFA8EFECCEB0000704490FB18
:1035A000F1F1586589B240F6E4404143A3F870E078
:1035B000B8F80830C3EB11314A43B8F9063092FB32
:1035C000F3F2326022E07A4BB8F808A01B78C6F814
:1035D00000A05B071AD5774805F0E6FC20B917F084
:1035E000100F18BF4FF0000909FB09F2322392FBBC
:1035F000F3F39944B8F906304FF47A7203FB09F3F8
:1036000093FBF2F3534400E0002333603368D5E9C1
:103610001E0103FB0BFB4FF47A739BFBF3FB10EBD8
:103620000B0041EBEB710023C5E91E01624A12F069
:10363000B7FB624B1860624B1A68984612F4805FC1
:1036400026D03F0621D55F4B1B789E071DD55E4BCC
:103650001978042919D900235C4E05229A55981C23
:103660001E440A27122BC2B2777004D0B1EB520F5E
:103670000346F1D800E014222A44322382F87F3036
:10368000FF2382F880300F2000E00A2003F08CFA3C
:10369000D5F89820424E002A4ED04D4BD6F89C10BB
:1036A00018689946814247D896F8A010B6F8A2301B
:1036B0005268C9B9012786F8A070D35C03B33846B5
:1036C00003F060FD86F8A47003F02EFAB6F8A2307D
:1036D000B3B9D6F898301B78053BBB4210D803F03D
:1036E000F7FCC6F8A8000BE0002786F8A070D35CB2
:1036F00033B1384603F046FD86F8A47003F014FA9F
:10370000D5F89820B5F8A2105268254B525CFE2AD5
:1037100003D10022A3F8A2200EE0FF2A02D103F079
:1037200027FA09E0D9F800000A2606FB0202013157
:10373000C3F89C20A3F8A2101D4E3278500703D581
:10374000244B08225A6166E0D8F80030D9075CBFE4
:1037500042F0010232701B4A1278120703D4327809
:1037600022F001023270DB0203D5337823F001032B
:103770003370194B1B685F0702D5184A12889ABB31
:10378000B5F8AC200AB198072CD4154B1B88003330
:1037900018BF012327E000BF50000020442800206C
:1037A0006825002000100020E4270020F0270020DA
:1037B000224000205C130020407E0500F4270020FA
:1037C00078110020CE110020C01B0020E825002029
:1037D000E83F0020000C0140741100201840002038
:1037E0002040002001233BB1022385F8A430337828
:1037F00023F00103337005E03278D10758BF02236C
:1038000085F8A43003F064FCD5F8B030C01A002865
:1038100001DB03F089F90FF06FFBC04B1A78002A27
:1038200078D0D5F8B430002B00F00087D5F8B4007C
:10383000BB4C03F0C3FC002800F0F886D4F8B400B9
:1038400003F0B7FC092801D03F2855D14FF00008FC
:10385000D5F8B860B34F44462EB1B3483968324604
:1038600014F0DAFE10B9B84604B93C46AF4B103735
:103870009F42F1D304B3D4F800E0D8F800C0D5F8E3
:10388000B830A7481EF803701CF80310B94213D1D2
:103890005A1C59B92D2B09D8C0F8B8200344202749
:1038A000024483F8BC7082F8BC1005E02B4483F816
:1038B000BC70C5F8B820E2E7D5F8B8300BB1444584
:1038C00010D09B4803F03AFA444507D854F8100B3F
:1038D00003F034FA092003F02AFAF5E7954803F0DB
:1038E0002DFA0026D5F8B8309E429FD28E4B985DB7
:1038F00003F01DFA0136F5E7D4F8B830002B40F09C
:10390000BB86042840F0298704F1BC0005F026FCA2
:1039100000F08CBE884F97F84A30012B40F081862A
:10392000DFF83482854B3A68C8F800701A60C246E6
:103930009B46DBF80000DFF8049203F03FFC002810
:1039400000F05D86D9F8000003F033FCDAF80030AF
:10395000024693F8481019B924283DD1012238E0D5
:10396000012904D14D280CBF0222002231E0022996
:1039700004D13C280CBF032200222AE003290CD1E9
:1039800040284FF0000102D983F848104EE05871EA
:103990001971D971987104221BE0042907D1997912
:1039A00083F8490080EA01029A71052211E0052995
:1039B0003CD1587919798842987906D95040987144
:1039C000481C18710B441A7230E090420CBF06225A
:1039D000002283F8482029E03178594B490725D443
:1039E000232AD9F8001016D14C484FF0010E80F868
:1039F00000E05448C5F8B410C5F884110192009352
:103A000003F09CF94B4803F099F9009B197841F0B9
:103A100002011970019AD5F888311B78934205D1BB
:103A2000494A4A4B1A604A4A4A4BDA60DAF800308F
:103A3000DFF8249193F84820062A7FF47AAF93F8B0
:103A4000490000F0D7FE8246002840F0D185D9F821
:103A5000002092F849304C2B00F09B8400F28080CB
:103A6000332B00F0D18421D8292B00F05E8409D8B3
:103A7000252B00F02084272B00F02484232B40F0FA
:103A8000F885E6E02D2B00F0618407D82B2B40F061
:103A9000F08503F02EF9607100F0A7BD2F2B00F028
:103AA0002085312B00F0328500F0E3BD3E2B00F085
:103AB000FB801DD8372B00F0DB8404D8352B00F0B9
:103AC0001E8200F0D6BD392B00F01E843C2B40F046
:103AD000D085DFF88890D9F800A003F00AF98AF8B9
:103AE0000000D9F80030187803F0F4FC00F07DBD38
:103AF000432B00F09A8407D8412B08BF4FF00009F0
:103B000000F0878400F0B5BD442B00F03385482BCE
:103B100040F0AF850BF0A8FD00F067BD2540002008
:103B20006825002044B901082426002024BB010890
:103B300080D2010885D2010854260020A028002048
:103B400022400020B5D20108EFBEADDEF04F0020CC
:103B50000400FA0500ED00E09C280020401C002035
:103B6000D12B00F06B8320D8CC2B00F009820FD82A
:103B7000C82B64D004D84E2B00F0188400F079BD17
:103B8000C92B00F03383CA2B00F0988000F071BD80
:103B9000CE2B00F01D83C0F01283CF2B00F04482A7
:103BA000D02B00F0018300F064BDD82B00F01A8107
:103BB0000DD8D32B3DD029D3D42B00F07A82D62B2D
:103BC00008BF4FF0000900F0698200F052BDF22BEF
:103BD00000F0BF8212D8EF2B40F04B85DFF88893BE
:103BE000D9F800A003F090F8AAF85A00D9F800908C
:103BF00003F08AF8A9F8580000F0F7BCF32B00F0A6
:103C0000BD84FA2B00F0EE8200F033BD337803F070
:103C1000040303F0FF09002B40F0E78403F069F888
:103C2000022884F8200840F2C582CA4B83F8209805
:103C3000C0E203F069F8C84B188000F0D6BC92F8D7
:103C400005A04FEA5A0ABAF1120F1CD84FF000092A
:103C50001DE003F04EF8132815D8DFF80CA300F18F
:103C6000200BDAF8003003EB8B0B03F042F8BB4B70
:103C70000BF1050903F5A872197A814200F0208141
:103C80000C339342F8D10FF0F7FC00F0AEBCD145F5
:103C900007D203F039F8B24B23F8190009F10109F2
:103CA000F5E70122AF4B9BE203F023F884F8E00133
:103CB00003F01FF884F8DF0100F097BCAA4B1A68E4
:103CC00099461278022A6FD14FF00009DFF898A2C6
:103CD00009F1080BDAF80030009303F00AF811F04C
:103CE000FBFDA24911F004FF009B43F82B00DAF81A
:103CF00000B002F0FEFF09F10A030BEB830B11F099
:103D0000EBFD9B4911F0F4FEDAF80030CBF804002B
:103D1000009302F0EEFF11F0DFFD964911F0E8FE8E
:103D200009F10E0B009B09F10109B9F1030F43F8EA
:103D30002B00CBD1B9F1070FDAF800B01AD102F09D
:103D4000D8FF11F0C9FD894911F0D2FECBF844002B
:103D5000DAF800B002F0CDFF11F0BEFD834911F09A
:103D6000C7FECBF84800DAF800B002F0C2FF8BF8CB
:103D70004C0012E002F0BDFF0BEB09035870DAF8BB
:103D800000B002F0B6FF0BEB0903D872DAF800B00E
:103D900002F0AFFF0BEB0903587509F10109B9F106
:103DA0000A0FC7D100F021BC4FF0000AD9F800B0CB
:103DB00002F09FFF0BEB0A035870D9F800B002F035
:103DC00098FF0BEB0A03D872D9F800B002F091FF0C
:103DD0000BEB0A030AF1010ABAF10A0F5875E5D193
:103DE00000F003BC8146DFF880A109F1080BDAF886
:103DF0000030009302F088FF11F06EFD5D4911F074
:103E000077FE009B43F82B00DAF800B002F07CFF4D
:103E100009F10A030BEB830B11F05EFD554911F01C
:103E200067FEDAF80030CBF80400009302F06CFF74
:103E300011F052FD4F4911F05BFE09F10E0B009B92
:103E400009F10109B9F1030F43F82B00CBD1B9F106
:103E5000070FDAF800B01AD102F056FF11F03CFD5E
:103E6000444911F045FECBF84400DAF800B002F006
:103E70004BFF11F031FD3F4911F03AFECBF84800FD
:103E8000DAF800B002F040FF8BF84C0012E002F0CC
:103E90003BFF0BEB09035870DAF800B002F034FF77
:103EA0000BEB0903D872DAF800B002F02DFF0BEB30
:103EB0000903587509F10109B9F10A0FC7D194E353
:103EC0001B788BF8053002F014FF89F8010002F02E
:103ED00010FF89F8020002F00CFF89F80300DAF8FD
:103EE0000000254BC5F8900100218530C5F88C31C4
:103EF00003F0BAF8214B80F00100187075E302F06E
:103F0000F8FE0B283FF6BFAE4FF0060A0AFB00F0A2
:103F1000154BD0301B6803EB000A02F0EAFE0328C1
:103F20003FF6B1AE8AF80A0002F0E3FE8AF8050017
:103F300002F0DFFE8AF8060002F0DBFE8AF80700D6
:103F400002F0D7FE8AF8080002F0D3FE8AF80900D2
:103F50004BE300BFD4110020C41C002024BB010887
:103F60008A1100204D110020401C0020000020413B
:103F70000000C84200007A44141300201100002001
:103F80005379092B7FF67FAED54AD2F800A002F014
:103F9000B0FED34B8AF80000D3F800A002F0A9FECF
:103FA0008AF8010002F0A5FECD4A6428A8BF64206B
:103FB0001368187102F09DFEC94A6428A8BF6420E6
:103FC0001368587102F095FEC54AFF28A8BFFF206C
:103FD0001368987102F08DFEC14B642828BF6420DD
:103FE000D3F800A08AF8070002F083FE8AF80200E6
:103FF000BB48D0F800A002F07CFEB94A8AF8030062
:10400000D2F800A002F080FED9F80030AAF80A0029
:104010005B790A2B40F2E982B14BD3F8009002F0B1
:1040200068FE89F80800E0E202F06EFE6FF4AF6E01
:1040300000EB0E039BB2C62B98BFA4F8960102F0CA
:1040400063FEA4F8400102F05FFEA4F8420102F012
:104050005BFEA4F8440102F057FEA4F8D80102F078
:1040600048FE84F8ED0102F044FE02F042FE84F8BE
:10407000EE0102F03EFE84F8850102F03AFE84F87B
:10408000920102F036FE974BD3F8009002F03CFE0E
:1040900000EB80004000A9F8560035E102F034FE44
:1040A000914B23F8090009F10209B9F1100FF5D17C
:1040B0009BE253790F2B7FF4E6AD02F01AFE07283E
:1040C00081463FF6E0ADDFF81CA2DAF800B002F05E
:1040D0001BFE0E2303FB09F90BEB0903A3F82501D3
:1040E000DAF800B002F010FE0BEB0903A3F8270189
:1040F000DAF800B002F008FE0BEB0903A3F829017F
:10410000DAF800B002F0F5FD0BEB090383F82B01A0
:10411000DAF800B002F0EDFD0BEB090383F82C0197
:10412000DAF800B002F0E5FD0BEB090383F82D018E
:10413000DAF800B002F0DDFD0BEB090383F82E0185
:10414000DAF800A002F0EAFD0AEB0903C3F82F0138
:104150004BE202F0CEFD0F2881463FF694AD02F00F
:10416000C8FDC9EBC90904EB090383F8D00003F1CA
:10417000D00902F0BEFD89F8010002F0BAFD89F80D
:10418000020002F0B6FD89F8030002F0B2FD89F8E2
:10419000040002F0AEFD89F8050002F0AAFD89F8DE
:1041A000060003F0ECF820E23378580700F11D8296
:1041B00007F0EAFC04F00CFE0BF08EFA15E23378FF
:1041C000590700F112824FF4C873A5F8AC300CE225
:1041D00033785A0700F10982444B1A7842F00402FE
:1041E0001A7002E233785B07E4D542E202F081FD07
:1041F0003E4B1A7810B142F0020201E022F00202B6
:104200001A7002F076FD3A4BDFF8F890187002F061
:1042100085FDC9F8000002F081FDC9F8040002F034
:1042200073FD344B188002F06FFD334B188095F806
:10423000943143F0020385F89431D6E102F059FD40
:10424000009002F06BFD834602F068FD824602F0AA
:1042500065FD814602F058FD02F056FD02F049FD71
:10426000009B9BB91020C5F898B1C5F89CA102F03D
:10427000E5FC1E4B1A7842F001021A70B9F1000FEA
:1042800000F0B3811D4BC3F80090AEE1102B40F05D
:10429000AC81C5F8A4B1C5F8A8A1B9F1000F02D04E
:1042A000164BC3F8009016480223011D85F8B03163
:1042B00007F009FF99E1A06002F030FDA368184300
:1042C000A06092E102F020FDA4F8580102F01CFD6C
:1042D000A4F85A0102F018FDA4F85C0185E100BFC2
:1042E000D81C0020401C0020F61D0020CE1100200C
:1042F000C01B0020FA270020F82700208011002092
:104300000C2700200028002002F0F3FC84F87A013A
:1043100002F0EFFC84F87E0102F0EBFC84F87D01F2
:1043200002F0E7FC84F87F015FE102F0EDFCA4F805
:10433000800102F0E9FCA4F8820102F0DAFC84F8C2
:10434000840102F0E1FCA4F886014EE102F0D1FC08
:1043500084F8900102F0D8FCA4F89A0102F0D4FC91
:10436000A4F8960102F0D0FCA4F8980102F0C1FC78
:10437000D9F8003084F891015B79082B40F235813F
:1043800002F0C2FCA4F89C0102F0BEFCA4F89E015D
:104390002BE102F0AEFC84F8D60102F0AAFC84F80E
:1043A000D70102F0B1FCA4F8D8011EE192F805B0E3
:1043B0000323BBFBF3FBBBF1120F3FF664ACDFF84A
:1043C00030944FF0000ADA4580F00F8102F091FC42
:1043D00089F8A00102F098FC40F2ED23984205DD37
:1043E00040F6CA039842A8BF184601E040F2EE200A
:1043F000A0F2EE20192390FBF3F089F8A1010AF155
:10440000010A09F10209DEE702F073FC84F8920167
:10441000EBE002F06EFC04EB090309F10109B9F1CC
:10442000080F83F88801F4D1DFE002F062FCC4F8E1
:1044300008A0607102F072FCA3681843A06002F04B
:1044400058FC84F8900102F05FFCA4F8580102F0D7
:104450005BFCA4F85A0102F057FCA4F85C0102F0DE
:1044600053FCA4F8800102F04FFCA4F88201BCE0E8
:1044700053794FF0070AB3FBFAF2C2EBC2029A1A61
:1044800012F0FF0F7FF4FFABB3FBFAFABAF1000FA3
:1044900000F0AB8002F02DFC5FFA80FB4FFA8BF04E
:1044A00002F0D8FC0AF1FF3A5FFA8AFA8146002846
:1044B0003FF4E9AB80F800B002F026FCA9F8020056
:1044C00002F017FC89F8040002F013FC89F80500DB
:1044D00002F00FFC89F8070002F00BFC89F80600D7
:1044E000D4E7DFF80C9309F1400A02F00DFCA9F8BB
:1044F000AC0202F0FEFB89F8AE0202F0FAFB09F111
:10450000040989F8AB02D145EFD16EE002F0F1FB6E
:104510001F283FF6B8ABD8F800305B79082B7FF442
:10452000B2AB00F18A0A02F0EFFB04EB8A0A00F05A
:104530003F00AAF8060002F0E7FBBAF80620800167
:1045400000F4FE531343AAF8063002F0D2FB000138
:104550008AF8040002F0CDFB9AF8043000F00F0056
:1045600018438AF8040002F0C4FB8AF805000DF035
:1045700089FC3AE0012385F8B13136E002F0B9FB5D
:10458000FF2881461CD100238DF817309DF8173085
:10459000052B2AD89DF81720804B9DF81710012075
:1045A00003EBC101496800FA01F153F8320089B206
:1045B000482202F0EDFB9DF817300133DBB2E3E750
:1045C00005283FF660AB002002F07EFB02F058FBAE
:1045D000DBF8000002F0E3FD18B9322002F09FFD85
:1045E000F6E74FFA89F00CF08BFA002002F06CFB32
:1045F00002F046FBD8F80030002283F8482095F8F6
:10460000B13173B1386802F0CAFD18B9322002F036
:1046100086FDF7E704F058FD02F08BFD604A614B20
:10462000DA60614B4C379F427FF475A95F4B1B6882
:10463000980616D55E4BD5F8B4211B689A1A002A45
:104640000FDB5C4A1278042A0BD95B4A03F512335C
:1046500003F5F873C2F8B431584BDA6882F01002EF
:10466000DA60574B9B68002B00F0948055489847C0
:1046700090E00FF001F8BBE70C2803D1524802F09C
:104680005DFB5AE00A2801D00D2858D14A4C4F480A
:1046900004F1BC0602F052FB3046232113F0A7FFC1
:1046A00010B1801BC4F8B800D5F8B830002B38D052
:1046B000591E705C404A202801D10B46F6E7C2F82B
:1046C000B8301344002283F8BC20414B414CD3F84E
:1046D00000A0D4F80090DFF8E080484613F094FF83
:1046E00008F1BC07064649463846324613F094FFA7
:1046F000394B38B908EB060292F8BC205244527884
:10470000520703D010349C42E3D306E09C4204D20B
:10471000701CE3683844984702E0304802F00EFB12
:1047200000232F4800213022C5F8B83013F02CFFA9
:104730002C480378002B3FF479AF2B4809E07F2801
:1047400011D1013BC4F8B83000222344274883F834
:10475000BC2002F0F3FAFFF769B80C288ED07F284E
:1047600004D1FFF763B82F2B3FF660A8A0F1200219
:10477000D2B25E2A3FF65AA813B920283FF456A8B1
:104780005A1C2B44C5F8B82083F8BC0002F0CFFABD
:10479000FFF74CB807B0BDE8F08F00BF50D201085A
:1047A0000400FA0500ED00E0EC2600207411002062
:1047B00000100020C01B002068250020000C0140D4
:1047C000C41B0020202700208AD2010895D90108A7
:1047D0005800002044B9010824BB010895D2010803
:1047E000242600202540002085D20108B1D20108EE
:1047F000D41100202DE9F04F4D28ABB0044600F055
:104800005E8600F2BD80302800F0E48651D8222870
:1048100000F0BD8423D8032800F0238214D8012897
:1048200000F01382022840F04187042002F04CFA85
:10483000432002F013FA4C2002F010FA462002F056
:104840000DFA4C2000F05FBE042800F0138205280A
:1048500040F02C871A2002F037FA00241DE22828A5
:1048600000F0FB8515D8242800F0E285262840F0CA
:104870001D87D14C062002F027FAB4F8580102F047
:1048800026FAB4F85A0102F022FAB4F85C0100F0FA
:104890004BBE2C2800F0F4852E2800F062862A28D2
:1048A00040F00487012002F00FFAC34B587900F062
:1048B0002ABE3D2800F01B831ED8362800F037861C
:1048C0000BD8322800F01986342840F0EF864820B3
:1048D00002F0FAF9002500F07ABC3A2800F0DC82F8
:1048E0003B2800F04D84382840F0E086042002F098
:1048F000EBF9B14C00F0A2BD452800F0C48627D8E2
:10490000402800F00386422840F0D086AA4C1020B0
:1049100002F0DAF9607902F0A1F9A06802F0E0F99A
:1049200094F8900102F09AF9B4F8580102F0CFF926
:10493000B4F85A0102F0CBF9B4F85C0102F0C7F9FF
:10494000B4F8800102F0C3F9B4F8820100F0ECBDC4
:10495000472800F07586C0F062864B2840F0A68696
:10496000954C042002F0B0F994F8D60102F076F9E3
:1049700094F8D70102F072F9B4F8D80100F0D4BD70
:10498000702800F0198300F2F980692800F0648231
:1049900000F2CB80662800F0BE8100F2BB80642864
:1049A00000F09481652840F081860B2002F08CF99C
:1049B000824B834C188802F08AF9208880B202F07A
:1049C00086F9804B1B68C3F3C000C3F380028000EC
:1049D00040EA4200C3F340021043C3F3401240EAEE
:1049E000C20003F01003184302F071F9764BA4786B
:1049F0001A8812F0010F0CBF0020022012F0020FE3
:104A00000CBF0021042112F0040F0CBF002310235F
:104A100003936E4B02F0080A1B6812F0400F03F07C
:104A2000C00B03F480794BEA0A0A0CBF002620264B
:104A300003F4805812F0100F4AEA090A019003F4B7
:104A4000005C0CBF00204FF400704AEA080A12F024
:104A5000200F029103F4804E0CBF00214FF48061BF
:104A60004AEA0C0A12F4807F049605900CBF0026D7
:104A70004FF4006603F4003003F400474AEA0E0ADC
:104A80000796089003F480364AEA070A06914AEA34
:104A9000060A03F48021089E09914AEA060A099E43
:104AA00003F400254AEA060A03F480104AEA0505E1
:104AB000284303F000730343454812F4007F06784F
:104AC0000198C6F3800643EA0603029E43EA000308
:104AD000039843EA0603049E43EA0003059843EA69
:104AE0000603069E43EA0003079843EA060343EAE7
:104AF00000030CBF00214FF4001112F4806F43EA51
:104B000001014FF000000CBF00234FF080631943F8
:104B10000346EBE0672800F02681682840F0C68550
:104B2000102002F0D1F800248DE16C2800F0A7815C
:104B300016D86A2800F002846B2840F0B78505205B
:104B400002F0C2F8234B188802F0C1F8224B1888F3
:104B500002F0BDF8214B187800F0010000F0D3BC42
:104B60006E2800F09E8100F2FD81062002F0ACF874
:104B70001B4B186802F0B4F81A4B8BE1782800F050
:104B8000FF8033D8742800F03E830AD8722800F0E2
:104B90009583732840F08A85082002F095F8012457
:104BA000C5E3762800F0E98300F26D832F2002F040
:104BB0008BF80D4CDCE200BFD4110020E01B00207C
:104BC00028270020741100207C110020781100207B
:104BD000224000207228002074280020FC2600209B
:104BE000841100207C1B00208FBD0108A42800F048
:104BF000EA8313D87B2800F06182A02840F0568514
:104C00000C2002F061F8BF4B186802F069F8BE4B47
:104C1000186802F065F8BD4B00F008BCF12800F000
:104C2000EB80FE2800F0F683F02840F03F85B84C7A
:104C3000042002F049F82368B3F85A0002F047F85C
:104C40002368B3F8580000F06FBC032002F03CF872
:104C5000002002F003F8204602F000F80D2000F0DA
:104C600052BC02F031F8012001F0F8FF0A2001F0F7
:104C7000F5FFA6E3062002F027F8412001F0EEFF41
:104C8000462001F0EBFF4E2001F0E8FF412001F04B
:104C9000E5FFA04B187800F047BC9F4B185D01342E
:104CA00001F0DCFF0B2CF8D100249C4B185D013483
:104CB00001F0D4FF082CF8D10024994B185D013481
:104CC00001F0CCFF072CF8D100F0EEBC072001F07A
:104CD000FBFFE72001F0C2FF924B587901F0BEFFC5
:104CE000002001F0BBFF042000F0DCBCA3420CD28A
:104CF0008D4A9D5C012202FA05F50D4218BF9A40CB
:104D000003F1010318BF1043F0E701F0E9FF854B01
:104D100093F82008F7E3122001F0D6FF834B00241C
:104D20001B88B3F5806F94BF01250825804BE05E9A
:104D3000023490FBF5F080B201F0C9FF062CF5D1EA
:104D40007C4C208801F0C3FF608801F0C0FFA08880
:104D5000794C01F0BCFF208801F0B9FF608801F0B8
:104D6000B6FFA088E0E3102001F0AEFF0024734BF3
:104D7000185D013401F072FF102CF8D100F094BCE2
:104D8000702001F0A1FF00260E247443604D01360F
:104D90002B682344B3F8250101F099FF2B682344C5
:104DA000B3F8270101F093FF2B682344B3F82901DE
:104DB00001F08DFF2B68234493F82B0101F04EFF87
:104DC0002B68234493F82C0101F048FF2B682344FF
:104DD00093F82D0101F042FF2B68234493F82E0134
:104DE00001F03CFF2B681C44D4F82F0101F078FF40
:104DF000082EC9D100F058BC702001F065FF494C65
:104E000004F1700594F8D00001F028FF94F8D10067
:104E100001F024FF94F8D20001F020FF94F8D300B1
:104E200001F01CFF94F8D40001F018FF94F8D500AD
:104E300001F014FF073494F8CF0001F00FFFAC42EB
:104E4000E0D100F031BC3E4B185D013401F006FFAB
:104E5000102CF8D100F028BC3A4D0024A87F400067
:104E600000F0FE0001F030FFAB7F9C4280F01C841C
:104E7000354B33F8140001F02AFF0134F4E7334CCA
:104E8000062001F021FF208801F021FF608801F059
:104E90001EFF2F4B188847E3042001F015FF2D4B10
:104EA000C4E2072001F010FF2B4B1888FF28A8BF91
:104EB000FF20C0B201F0D2FE284B186880F310002A
:104EC00080B201F004FF1F4B188C01F000FF154B5E
:104ED00093F88521224B2AB11B680A20584380F39E
:104EE000100002E0186800F30F0080B21CE30D4CC4
:104EF000022001F0E9FE94F8E00101F0AFFE94F821
:104F0000DF0100E3E8F7FF1FECF7FF1FF0F7FF1FDB
:104F1000401C00202640002030C601083CC6010885
:104F200011C60108D41100202B27002012000020F8
:104F3000DE270020121C0020C81100200E1E0020B9
:104F4000AC1D0020282700208A110020541B0020BF
:104F5000C21C00205C1B0020E8270020F427002052
:104F6000F0270020B74C0B2001F0AEFE236800258F
:104F7000187801F073FE23682646587801F06EFE1B
:104F80003368B04C2B441879013501F067FE032DCE
:104F9000F6D12368D87901F061FE2368987801F092
:104FA0005DFE2368D87801F059FE2368588901F026
:104FB0008EFE2368187AA6E2A34D1E2001F084FE1F
:104FC0002B6800241B78022B65D12B6804F10802A2
:104FD00053F822009D4910F0D7FC13F0E5FC80F354
:104FE0000800C0B201F03AFE2B68994903EB840334
:104FF000D86A10F0C9FC13F0D7FC80F30800C0B2E7
:1050000001F02CFE2B6804F10E0253F822009149A6
:1050100010F0BAFC13F0C8FC80F30800C0B20134F1
:1050200001F01CFE032CD0D1072C2B6821D1586C29
:10503000864910F0A9FC13F0B7FC80F30800C0B259
:1050400001F00CFE2B688149986C10F09DFC13F068
:10505000ABFC80F30800C0B201F000FE2B6893F8AF
:105060004C0010F039FC13F09FFC80F30800C0B234
:105070000BE02344587801F0F1FD2B682344D87AE3
:1050800001F0ECFD2B682344587D013401F0E6FD6E
:105090000A2CC9D108E32B682344587801F0DEFDBF
:1050A0002B682344D87A01F0D9FD2B682344587D1E
:1050B000013401F0D3FD0A2CEDD1F5E23C2001F0E2
:1050C00003FE0024604D04F108022B68614953F887
:1050D000220010F059FC13F067FC80B201F0F7FDDC
:1050E0002B685C4903EB8403D86A10F04DFC13F085
:1050F0005BFC80B201F0EBFD2B6804F10E0253F86B
:105100002200544910F040FC13F04EFC013480B2F0
:1051100001F0DDFD032CD5D1072C2B6816D1586C7E
:105120004C4910F031FC13F03FFC80B201F0CFFD90
:105130002B684849986C10F027FC13F035FC80B2BE
:1051400001F0C5FD2B6893F84C000BE02344587820
:1051500001F0BDFD2B682344D87A01F0B8FD2B681F
:105160002344587D013401F0B2FD0A2CD4D19BE2D6
:1051700014F8010F002800F0978201F06FFDF7E7A7
:10518000012001F0A1FD304B1B681878BBE15020D5
:1051900001F09AFD00242C4B04F120021B680C2125
:1051A00003EB82035D1D2C4A5B79013401FB032371
:1051B000187A01F053FD687801F050FDA87801F0ED
:1051C0004DFDE87801F04AFD142CE4D16CE206268E
:1051D0006E431D4BD0361B6801351E44B07A01F07A
:1051E0003DFD707901F03AFDB07901F037FDF079BD
:1051F00001F034FD307A01F031FD707A01F02EFDBE
:105200000C2DE4D150E2002701240025134B9A789D
:10521000954230DA0333E95C00230F4A03EB0208BE
:105220009A5C8A4204D00C33B3F5A87FF5D120E014
:10523000D8F8040013F0E8F981460CB926460FE0CF
:10524000074416E0D81C0020401C0020000020412C
:105250000000C84200007A4424BB0108282700202F
:105260004E4506DAD8F80430985D01F0F7FC0136B7
:10527000F6E70135CAE7002C00F01682F8B201F01B
:1052800023FD0024C1E7C24D0024A87801F01CFDD5
:10529000AB789C4280F00882BE4BE05C0023BE4AA3
:1052A00099189A5C824204D00C33B3F5A87FF6D1EA
:1052B00002E0087A01F0D2FC0134E9E7B74C16208D
:1052C00001F002FDB4F8960101F001FDB4F84001CF
:1052D00001F0FDFCB4F8420101F0F9FCB4F844011E
:1052E00001F0F5FCB4F8D80101F0F1FC94F8ED01FF
:1052F00001F0B4FC002001F0B1FC94F8EE0101F0E3
:10530000ADFC94F8850101F0A9FC94F8920101F03C
:10531000A5FC002001F0A2FCA14B1B68B3F95600CC
:105320000A2390FBF3F080B201F0D1FC86E0E0B2FA
:10533000013401F093FC092CF9D1B5E1102001F002
:10534000C3FC984B984C187800F0020001F086FCE2
:10535000964B187801F082FC206801F0C1FC60686F
:1053600001F0BEFC924B188801F0B1FC914B1888FB
:1053700001F0ADFC864B588CD6E001F0BAFC064635
:10538000122001F0A1FC0EB98B4B02E0102E03D1CC
:105390008A4B1D685C6801E000242546304601F018
:1053A0005DFC284601F09CFC204601F099FC844BF2
:1053B000186801F095FC002001F089FC002001F044
:1053C00086FC00209FE0724D002495F824002E46B4
:1053D00080000130C0B201F077FC95F8240001F0A4
:1053E0003DFC96F824309C4280F05E81754D285D2E
:1053F00001F034FC05F11003185D01F02FFC05F1FC
:105400002003185D303501F029FC285D01F026FCF1
:105410000134E6E7082001F057FC00246A4B185BD2
:10542000023401F054FC082CF8D13DE1186839E150
:10543000042001F049FC594B986833E194F87A0153
:1054400001F00CFC94F87E0101F008FC94F87D0159
:1054500001F004FC94F87F0155E0504C072001F066
:1054600033FCB4F8800101F032FCB4F8820101F0A1
:105470002EFC94F8840101F0F1FBB4F8860153E0AE
:10548000464C0C2001F020FC94F8900101F0E6FB62
:10549000B4F89A0101F01BFCB4F8960101F017FC76
:1054A000B4F8980101F013FC94F8910101F0D6FBD7
:1054B000B4F89C0101F00BFCB4F89E0134E0344ECA
:1054C000424CB07F002500EB4000C0B201F0FCFB75
:1054D000B37F02349D4280F0E78014F8020C01F0A3
:1054E000BDFB14F8010C013500EB800000EB8000DF
:1054F00000F2EE2001F0EBFBEAE7012001F0E4FB13
:10550000264B93F8920101F0A9FBCDE0082001F0B1
:10551000DBFB0024214B234493F88801013401F084
:105520009DFB082CF6D1BFE001F0D1FBBCE0184B8D
:105530001A4C93F86E0004F12805C0EBC000C0B20D
:1055400001F0C2FB94F8F4010023214AD25C90429E
:1055500000F0AE800C333C2BF7D10834AC42F1D1D3
:10556000A2E0402001F0B0FB0C4C04F14005B4F87F
:10557000AC0201F0ACFB94F8AE0201F06FFB043416
:1055800094F8AB0201F06AFBAC42F0D18CE000BFB2
:10559000282700202B27002024BB0108D41100203D
:1055A000401C0020CE11002000280020C01B00203D
:1055B000FA270020F8270020002700200C270020D1
:1055C000801100204D2700208E270020741300201A
:1055D00098270020E02001F077FB424C04F1800581
:1055E000B4F82E02043400F03F0001F070FBB4F870
:1055F0002A02C0F3861001F06AFB94F82802000921
:1056000001F02CFB94F8280200F00F0001F026FBBB
:1056100094F8290201F022FBAC42E1D144E0324C83
:105620000D2001F051FB03F081FE01F017FB2088F3
:1056300001F056FBE06801F053FB0CF03BFD31E05C
:1056400001F06CFB0446842001F03EFB204601F093
:1056500047FB254BDD6804F18003AB428CBFC4EBF4
:105660000505802505F0F8FB20462A460AA903F027
:1056700091FE00240546AC4216DA0AA9085D01F045
:10568000EDFA0134F7E7132001F01EFB0024174B5D
:10569000185D013401F0E2FA0B2CF8D1002001F082
:1056A0001FFB002001F01CFB012018E0002016E089
:1056B00001F0D4FAB4F8F60101F009FB94F8F8010E
:1056C00001F0CCFA94F8F90101F0C8FA94F8FB0162
:1056D00001F0C4FA94F8FA0101F0C0FA3DE72BB0EA
:1056E000BDE8F08FD41100201800002030C601085A
:1056F0002DE9FF47B84C80462378B84F002B00F0C7
:10570000E7813B6862689A1A7C2A40F2E181636013
:10571000237A00250133237205F12400AE4EC0B276
:1057200001F0BAFD06F10A0333F9150010F0D8F8BC
:10573000AB4B8146188810F0D3F80146484610F06C
:10574000D7F9A84910F020F910F0E4FA013500B2B9
:1057500001F0CEFD032DDFD1302001F09DFDA24BE5
:10576000B3F9000001F0C4FD01F0A4FD337A9907FC
:105770002ED1726841F288339A4219D99B4E10207B
:1057800001F08AFD3068642590FBF5F000B201F06D
:10579000AFFD212001F080FD336893FBF5F005FBA0
:1057A000103585EAE570A0EBE57000B201F0A0FDD0
:1057B000142001F071FD8E4BB3F9000001F098FD4B
:1057C0001C2001F069FD002001F092FD01F072FD46
:1057D000237A5A0740F05981022001F05DFD854B84
:1057E0004FF0050918686423323090FBF3F000B2E3
:1057F00001F07EFD804B0320B3F9065001F04CFD13
:105800007E4B95FBF9F51B78ADB213F0040F7C4E7F
:105810000BD07C48414603F0C7FB20B9336813F036
:10582000100F18BF002528B205E06B4B1B699B8940
:10583000B3FBF9F000B201F05BFD33689B076BD559
:10584000DFF8DC81A38A98F80020642505FB032398
:10585000B4F8169052004FEA0919B3FBF2F31FFA9D
:1058600089F949EA03291FFA89F9C3F3032349EAAD
:105870000309062001F010FD0FFA89F001F038FD50
:10588000E28A98F80030013292B292FBF3F103FB06
:105890001123E382A369504E9B7B012B05D1392054
:1058A00001F0FAFCB6F914001AE0B38A6E265E43E2
:1058B000152396FBF3F6B6B23A2001F0EDFCB6FBE9
:1058C000F5F80FFA88F001F013FD3B2001F0E4FC3D
:1058D00005FB186080B205300A2390FBF3F000B29C
:1058E00001F006FD282001F0D7FCE3690A2293FBB2
:1058F000F2F000B201F0FCFC042001F0CDFC2369C1
:105900009B8913B104F010F903E0334B186A80F35C
:10591000100000B201F0ECFC3B4B1B689E0640F10E
:10592000A9803A4E33789D071BD5112001F0B4FCB5
:10593000A08C4FF4F3656843354B90FBF3F000B255
:1059400001F0D6FC192001F0A7FCA38C5D43642371
:1059500095FBF3F595FBF3F203FB125000B201F057
:10596000C7FC3378E58C13F0020F08BF0025012037
:1059700001F092FC28B201F0BBFC092001F08CFC84
:10598000002001F0B5FC234B1D78234B1B88B3F599
:10599000967F09D9227A02F00F02072A04D842F230
:1059A0000F75AB42B8BF1D46052001F075FCA36919
:1059B0005B7B0BB928B23DE0A5F120000FF090FF12
:1059C000164910F095F80021054610F07BF948B310
:1059D0004FF03F4128E000BFD4270020E83F0020DF
:1059E0001200002000007A447C1B0020501B002085
:1059F000C21C0020541A0020BA1C002022400020A3
:105A0000101000205C13002074110020CE11002023
:105A1000A0860100C01B0020520000206666E63F01
:105A2000500000204FF07C5128460FF0A5FE10F0EA
:105A300071F900B201F05CFC3378980703D494F854
:105A40002830012B04D1012384F82830BC4818E009
:105A5000BC4BBD499D6968680FF096FF10F05AF97C
:105A6000B9490290A8680FF08FFF10F053F9039026
:105A700002A806E0B54A02AB92E8030083E80300FF
:105A8000184601F040FC01F015FC237A282B1FD1A9
:105A9000AC4B00223D681A724FF47A73B5FBF3F8F1
:105AA00017203C2501F0F8FBB8FBF5F6B6FBF5F046
:105AB00005FB1060000200B201F01AFC182001F092
:105AC000EBFB05FB168000B201F012FC01F0F2FBCB
:105AD00094F834309B4D002B00F05B8101F0F8FA14
